{
  "address": "0xf951e7c84dAde86Fb95894B6B200f157d599D98B",
  "abi": [
    {
      "anonymous": false,
      "inputs": [
        {
          "indexed": true,
          "internalType": "address",
          "name": "pool",
          "type": "address"
        },
        {
          "indexed": true,
          "internalType": "address",
          "name": "token",
          "type": "address"
        },
        {
          "indexed": false,
          "internalType": "uint256",
          "name": "amount",
          "type": "uint256"
        }
      ],
      "name": "Collect",
      "type": "event"
    },
    {
      "anonymous": false,
      "inputs": [
        {
          "indexed": false,
          "internalType": "uint8",
          "name": "version",
          "type": "uint8"
        }
      ],
      "name": "Initialized",
      "type": "event"
    },
    {
      "anonymous": false,
      "inputs": [
        {
          "indexed": true,
          "internalType": "bytes32",
          "name": "role",
          "type": "bytes32"
        },
        {
          "indexed": true,
          "internalType": "bytes32",
          "name": "previousAdminRole",
          "type": "bytes32"
        },
        {
          "indexed": true,
          "internalType": "bytes32",
          "name": "newAdminRole",
          "type": "bytes32"
        }
      ],
      "name": "RoleAdminChanged",
      "type": "event"
    },
    {
      "anonymous": false,
      "inputs": [
        {
          "indexed": true,
          "internalType": "bytes32",
          "name": "role",
          "type": "bytes32"
        },
        {
          "indexed": true,
          "internalType": "address",
          "name": "account",
          "type": "address"
        },
        {
          "indexed": true,
          "internalType": "address",
          "name": "sender",
          "type": "address"
        }
      ],
      "name": "RoleGranted",
      "type": "event"
    },
    {
      "anonymous": false,
      "inputs": [
        {
          "indexed": true,
          "internalType": "bytes32",
          "name": "role",
          "type": "bytes32"
        },
        {
          "indexed": true,
          "internalType": "address",
          "name": "account",
          "type": "address"
        },
        {
          "indexed": true,
          "internalType": "address",
          "name": "sender",
          "type": "address"
        }
      ],
      "name": "RoleRevoked",
      "type": "event"
    },
    {
      "anonymous": false,
      "inputs": [
        {
          "indexed": false,
          "internalType": "address",
          "name": "fund",
          "type": "address"
        }
      ],
      "name": "SetDaoFund",
      "type": "event"
    },
    {
      "anonymous": false,
      "inputs": [
        {
          "indexed": false,
          "internalType": "address",
          "name": "factory",
          "type": "address"
        },
        {
          "indexed": false,
          "internalType": "uint256",
          "name": "rate",
          "type": "uint256"
        }
      ],
      "name": "SetFactoryGrowthFundRate",
      "type": "event"
    },
    {
      "anonymous": false,
      "inputs": [
        {
          "indexed": false,
          "internalType": "address",
          "name": "fund",
          "type": "address"
        }
      ],
      "name": "SetGrowthFund",
      "type": "event"
    },
    {
      "anonymous": false,
      "inputs": [
        {
          "indexed": false,
          "internalType": "address",
          "name": "pool",
          "type": "address"
        },
        {
          "indexed": false,
          "internalType": "uint256",
          "name": "rate",
          "type": "uint256"
        }
      ],
      "name": "SetGrowthFundRate",
      "type": "event"
    },
    {
      "anonymous": false,
      "inputs": [
        {
          "indexed": false,
          "internalType": "uint256",
          "name": "amount",
          "type": "uint256"
        }
      ],
      "name": "SetMinimumRevenue",
      "type": "event"
    },
    {
      "anonymous": false,
      "inputs": [
        {
          "indexed": false,
          "internalType": "address",
          "name": "token",
          "type": "address"
        }
      ],
      "name": "SetRevenueToken",
      "type": "event"
    },
    {
      "anonymous": false,
      "inputs": [
        {
          "indexed": false,
          "internalType": "address",
          "name": "pool",
          "type": "address"
        },
        {
          "indexed": false,
          "internalType": "bool",
          "name": "skip",
          "type": "bool"
        }
      ],
      "name": "SetSkipCollect",
      "type": "event"
    },
    {
      "anonymous": false,
      "inputs": [
        {
          "indexed": true,
          "internalType": "address",
          "name": "feeToken",
          "type": "address"
        },
        {
          "indexed": true,
          "internalType": "address",
          "name": "revenueToken",
          "type": "address"
        },
        {
          "indexed": false,
          "internalType": "uint256",
          "name": "amount",
          "type": "uint256"
        },
        {
          "indexed": false,
          "internalType": "uint256",
          "name": "output",
          "type": "uint256"
        },
        {
          "indexed": false,
          "internalType": "uint256",
          "name": "growthFundShare",
          "type": "uint256"
        },
        {
          "indexed": false,
          "internalType": "uint256",
          "name": "daoFundShare",
          "type": "uint256"
        }
      ],
      "name": "Share",
      "type": "event"
    },
    {
      "anonymous": false,
      "inputs": [
        {
          "indexed": false,
          "internalType": "address",
          "name": "broker",
          "type": "address"
        },
        {
          "indexed": false,
          "internalType": "bool",
          "name": "isVerified",
          "type": "bool"
        }
      ],
      "name": "VerifyBroker",
      "type": "event"
    },
    {
      "inputs": [],
      "name": "DEFAULT_ADMIN_ROLE",
      "outputs": [
        {
          "internalType": "bytes32",
          "name": "",
          "type": "bytes32"
        }
      ],
      "stateMutability": "view",
      "type": "function"
    },
    {
      "inputs": [],
      "name": "MANAGER_ROLE",
      "outputs": [
        {
          "internalType": "bytes32",
          "name": "",
          "type": "bytes32"
        }
      ],
      "stateMutability": "view",
      "type": "function"
    },
    {
      "inputs": [],
      "name": "OP_ROLE",
      "outputs": [
        {
          "internalType": "bytes32",
          "name": "",
          "type": "bytes32"
        }
      ],
      "stateMutability": "view",
      "type": "function"
    },
    {
      "inputs": [
        {
          "internalType": "address",
          "name": "feeToken",
          "type": "address"
        }
      ],
      "name": "allocateRevenue",
      "outputs": [
        {
          "internalType": "uint256",
          "name": "amount",
          "type": "uint256"
        },
        {
          "internalType": "uint256",
          "name": "growthFundShare",
          "type": "uint256"
        },
        {
          "internalType": "uint256",
          "name": "daoFundShare",
          "type": "uint256"
        }
      ],
      "stateMutability": "view",
      "type": "function"
    },
    {
      "inputs": [
        {
          "internalType": "uint256",
          "name": "start",
          "type": "uint256"
        },
        {
          "internalType": "uint256",
          "name": "limit",
          "type": "uint256"
        }
      ],
      "name": "collectByPage",
      "outputs": [],
      "stateMutability": "nonpayable",
      "type": "function"
    },
    {
      "inputs": [
        {
          "internalType": "address[]",
          "name": "tokens",
          "type": "address[]"
        },
        {
          "internalType": "uint256[]",
          "name": "amounts",
          "type": "uint256[]"
        }
      ],
      "name": "collectFeeCallback",
      "outputs": [],
      "stateMutability": "nonpayable",
      "type": "function"
    },
    {
      "inputs": [
        {
          "internalType": "address",
          "name": "pool",
          "type": "address"
        }
      ],
      "name": "collectFrom",
      "outputs": [],
      "stateMutability": "nonpayable",
      "type": "function"
    },
    {
      "inputs": [],
      "name": "daoFund",
      "outputs": [
        {
          "internalType": "address",
          "name": "",
          "type": "address"
        }
      ],
      "stateMutability": "view",
      "type": "function"
    },
    {
      "inputs": [
        {
          "internalType": "uint256",
          "name": "start",
          "type": "uint256"
        },
        {
          "internalType": "uint256",
          "name": "end",
          "type": "uint256"
        }
      ],
      "name": "feeTokens",
      "outputs": [
        {
          "internalType": "address[]",
          "name": "tokens",
          "type": "address[]"
        }
      ],
      "stateMutability": "view",
      "type": "function"
    },
    {
      "inputs": [
        {
          "internalType": "address",
          "name": "_pool",
          "type": "address"
        }
      ],
      "name": "getGrowthFundRate",
      "outputs": [
        {
          "internalType": "uint256",
          "name": "rate",
          "type": "uint256"
        }
      ],
      "stateMutability": "view",
      "type": "function"
    },
    {
      "inputs": [
        {
          "internalType": "bytes32",
          "name": "role",
          "type": "bytes32"
        }
      ],
      "name": "getRoleAdmin",
      "outputs": [
        {
          "internalType": "bytes32",
          "name": "",
          "type": "bytes32"
        }
      ],
      "stateMutability": "view",
      "type": "function"
    },
    {
      "inputs": [
        {
          "internalType": "bytes32",
          "name": "role",
          "type": "bytes32"
        },
        {
          "internalType": "address",
          "name": "account",
          "type": "address"
        }
      ],
      "name": "grantRole",
      "outputs": [],
      "stateMutability": "nonpayable",
      "type": "function"
    },
    {
      "inputs": [],
      "name": "growthFund",
      "outputs": [
        {
          "internalType": "address",
          "name": "",
          "type": "address"
        }
      ],
      "stateMutability": "view",
      "type": "function"
    },
    {
      "inputs": [
        {
          "internalType": "bytes32",
          "name": "role",
          "type": "bytes32"
        },
        {
          "internalType": "address",
          "name": "account",
          "type": "address"
        }
      ],
      "name": "hasRole",
      "outputs": [
        {
          "internalType": "bool",
          "name": "",
          "type": "bool"
        }
      ],
      "stateMutability": "view",
      "type": "function"
    },
    {
      "inputs": [
        {
          "internalType": "address",
          "name": "_masterDeployer",
          "type": "address"
        },
        {
          "internalType": "address",
          "name": "_revenueToken",
          "type": "address"
        },
        {
          "internalType": "address",
          "name": "_wklay",
          "type": "address"
        }
      ],
      "name": "initialize",
      "outputs": [],
      "stateMutability": "nonpayable",
      "type": "function"
    },
    {
      "inputs": [
        {
          "internalType": "address",
          "name": "",
          "type": "address"
        }
      ],
      "name": "isVerifiedBroker",
      "outputs": [
        {
          "internalType": "bool",
          "name": "",
          "type": "bool"
        }
      ],
      "stateMutability": "view",
      "type": "function"
    },
    {
      "inputs": [],
      "name": "masterDeployer",
      "outputs": [
        {
          "internalType": "address",
          "name": "",
          "type": "address"
        }
      ],
      "stateMutability": "view",
      "type": "function"
    },
    {
      "inputs": [],
      "name": "minimumRevenue",
      "outputs": [
        {
          "internalType": "uint256",
          "name": "",
          "type": "uint256"
        }
      ],
      "stateMutability": "view",
      "type": "function"
    },
    {
      "inputs": [
        {
          "internalType": "bytes[]",
          "name": "data",
          "type": "bytes[]"
        }
      ],
      "name": "multicall",
      "outputs": [
        {
          "internalType": "bytes[]",
          "name": "results",
          "type": "bytes[]"
        }
      ],
      "stateMutability": "nonpayable",
      "type": "function"
    },
    {
      "inputs": [
        {
          "internalType": "bytes32",
          "name": "role",
          "type": "bytes32"
        },
        {
          "internalType": "address",
          "name": "account",
          "type": "address"
        }
      ],
      "name": "renounceRole",
      "outputs": [],
      "stateMutability": "nonpayable",
      "type": "function"
    },
    {
      "inputs": [],
      "name": "revenueToken",
      "outputs": [
        {
          "internalType": "address",
          "name": "",
          "type": "address"
        }
      ],
      "stateMutability": "view",
      "type": "function"
    },
    {
      "inputs": [
        {
          "internalType": "bytes32",
          "name": "role",
          "type": "bytes32"
        },
        {
          "internalType": "address",
          "name": "account",
          "type": "address"
        }
      ],
      "name": "revokeRole",
      "outputs": [],
      "stateMutability": "nonpayable",
      "type": "function"
    },
    {
      "inputs": [
        {
          "internalType": "address",
          "name": "broker",
          "type": "address"
        },
        {
          "internalType": "address",
          "name": "feeToken",
          "type": "address"
        },
        {
          "internalType": "bool",
          "name": "ok",
          "type": "bool"
        }
      ],
      "name": "setApproval",
      "outputs": [],
      "stateMutability": "nonpayable",
      "type": "function"
    },
    {
      "inputs": [
        {
          "internalType": "address",
          "name": "_fund",
          "type": "address"
        }
      ],
      "name": "setDaoFund",
      "outputs": [],
      "stateMutability": "nonpayable",
      "type": "function"
    },
    {
      "inputs": [
        {
          "internalType": "address",
          "name": "_factory",
          "type": "address"
        },
        {
          "internalType": "uint256",
          "name": "_rate",
          "type": "uint256"
        }
      ],
      "name": "setFactoryGrowthFundRate",
      "outputs": [],
      "stateMutability": "nonpayable",
      "type": "function"
    },
    {
      "inputs": [
        {
          "internalType": "address",
          "name": "_fund",
          "type": "address"
        }
      ],
      "name": "setGrowthFund",
      "outputs": [],
      "stateMutability": "nonpayable",
      "type": "function"
    },
    {
      "inputs": [
        {
          "internalType": "address",
          "name": "_pool",
          "type": "address"
        },
        {
          "internalType": "uint256",
          "name": "_rate",
          "type": "uint256"
        }
      ],
      "name": "setGrowthFundRate",
      "outputs": [],
      "stateMutability": "nonpayable",
      "type": "function"
    },
    {
      "inputs": [
        {
          "internalType": "uint256",
          "name": "amount",
          "type": "uint256"
        }
      ],
      "name": "setMinimumRevenue",
      "outputs": [],
      "stateMutability": "nonpayable",
      "type": "function"
    },
    {
      "inputs": [
        {
          "internalType": "address",
          "name": "_token",
          "type": "address"
        }
      ],
      "name": "setRevenueToken",
      "outputs": [],
      "stateMutability": "nonpayable",
      "type": "function"
    },
    {
      "inputs": [
        {
          "internalType": "address",
          "name": "pool",
          "type": "address"
        },
        {
          "internalType": "bool",
          "name": "skip",
          "type": "bool"
        }
      ],
      "name": "setSkipCollect",
      "outputs": [],
      "stateMutability": "nonpayable",
      "type": "function"
    },
    {
      "inputs": [
        {
          "internalType": "address",
          "name": "feeToken",
          "type": "address"
        },
        {
          "internalType": "uint256",
          "name": "minimumOutput",
          "type": "uint256"
        },
        {
          "internalType": "address payable",
          "name": "broker",
          "type": "address"
        },
        {
          "internalType": "bytes",
          "name": "data",
          "type": "bytes"
        }
      ],
      "name": "share",
      "outputs": [],
      "stateMutability": "nonpayable",
      "type": "function"
    },
    {
      "inputs": [
        {
          "internalType": "address",
          "name": "",
          "type": "address"
        }
      ],
      "name": "skipCollect",
      "outputs": [
        {
          "internalType": "bool",
          "name": "",
          "type": "bool"
        }
      ],
      "stateMutability": "view",
      "type": "function"
    },
    {
      "inputs": [
        {
          "internalType": "bytes4",
          "name": "interfaceId",
          "type": "bytes4"
        }
      ],
      "name": "supportsInterface",
      "outputs": [
        {
          "internalType": "bool",
          "name": "",
          "type": "bool"
        }
      ],
      "stateMutability": "view",
      "type": "function"
    },
    {
      "inputs": [],
      "name": "totalFeeTokens",
      "outputs": [
        {
          "internalType": "uint256",
          "name": "",
          "type": "uint256"
        }
      ],
      "stateMutability": "view",
      "type": "function"
    },
    {
      "inputs": [
        {
          "internalType": "address",
          "name": "broker",
          "type": "address"
        },
        {
          "internalType": "bool",
          "name": "isVerified",
          "type": "bool"
        }
      ],
      "name": "verifyBroker",
      "outputs": [],
      "stateMutability": "nonpayable",
      "type": "function"
    },
    {
      "inputs": [],
      "name": "wklay",
      "outputs": [
        {
          "internalType": "address",
          "name": "",
          "type": "address"
        }
      ],
      "stateMutability": "view",
      "type": "function"
    },
    {
      "stateMutability": "payable",
      "type": "receive"
    }
  ],
  "transactionHash": "0xe62594a1dabcfe14670e0608f65d0c8c841cc60284ca1628f6c93d319e15c71f",
  "args": [],
  "numDeployments": 2,
  "solcInputHash": "2eb17f8f20804e04638c76af8440916b",
  "bytecode": "0x608060405234801561001057600080fd5b506145ee806100206000396000f3fe6080604052600436106102535760003560e01c80637118c6d711610138578063c0c53b8b116100b0578063d547741f1161007f578063ec87621c11610064578063ec87621c14610777578063ef0ef77d1461078c578063f0332830146107ac57600080fd5b8063d547741f1461072a578063dbcd58e21461074a57600080fd5b8063c0c53b8b146106a7578063c128ceaa146106c7578063c5483d42146106e7578063cf58879a146106fd57600080fd5b8063a217fddf11610107578063ac9650d8116100ec578063ac9650d81461063a578063b048ea0814610667578063bbff840d1461068757600080fd5b8063a217fddf14610605578063a6898cba1461061a57600080fd5b80637118c6d7146105285780638729c828146105555780638d934f741461058557806391d14854146105b257600080fd5b80634ca8a395116101cb5780635d67c9fd1161019a57806362167eef1161017f57806362167eef146104b857806362f2c352146104e857806370f7d3731461050857600080fd5b80635d67c9fd146104785780635ddc84ce1461049857600080fd5b80634ca8a395146103c4578063556e4e68146103d957806359e3dc221461042b5780635c3640ec1461044b57600080fd5b80632f2ff15d116102225780633865aba4116102075780633865aba414610354578063396a7dd1146103745780634675d25b146103af57600080fd5b80632f2ff15d1461031457806336568abe1461033457600080fd5b806301ffc9a71461025f5780630d56dace14610294578063248a9ca3146102b65780632c559d27146102f457600080fd5b3661025a57005b600080fd5b34801561026b57600080fd5b5061027f61027a366004613c75565b6107cc565b60405190151581526020015b60405180910390f35b3480156102a057600080fd5b506102b46102af366004613cd9565b610865565b005b3480156102c257600080fd5b506102e66102d1366004613d05565b60009081526065602052604090206001015490565b60405190815260200161028b565b34801561030057600080fd5b506102b461030f366004613d1e565b610a4a565b34801561032057600080fd5b506102b461032f366004613d3b565b610ba2565b34801561034057600080fd5b506102b461034f366004613d3b565b610bcc565b34801561036057600080fd5b506102b461036f366004613d1e565b610c7f565b34801561038057600080fd5b5061039461038f366004613d1e565b610dea565b6040805193845260208401929092529082015260600161028b565b3480156103bb57600080fd5b506102e6610ee2565b3480156103d057600080fd5b5060a4546102e6565b3480156103e557600080fd5b506098546104069073ffffffffffffffffffffffffffffffffffffffff1681565b60405173ffffffffffffffffffffffffffffffffffffffff909116815260200161028b565b34801561043757600080fd5b506102b4610446366004613d79565b610f3c565b34801561045757600080fd5b50609b546104069073ffffffffffffffffffffffffffffffffffffffff1681565b34801561048457600080fd5b506102b4610493366004613d1e565b611138565b3480156104a457600080fd5b506102b46104b3366004613d05565b611288565b3480156104c457600080fd5b5061027f6104d3366004613d1e565b60a26020526000908152604090205460ff1681565b3480156104f457600080fd5b506102b4610503366004613da7565b611387565b34801561051457600080fd5b506102b4610523366004613cd9565b611765565b34801561053457600080fd5b50610548610543366004613da7565b61193c565b60405161028b9190613dc9565b34801561056157600080fd5b5061027f610570366004613d1e565b60a66020526000908152604090205460ff1681565b34801561059157600080fd5b50609c546104069073ffffffffffffffffffffffffffffffffffffffff1681565b3480156105be57600080fd5b5061027f6105cd366004613d3b565b600091825260656020908152604080842073ffffffffffffffffffffffffffffffffffffffff93909316845291905290205460ff1690565b34801561061157600080fd5b506102e6600081565b34801561062657600080fd5b506102b4610635366004613e23565b611a35565b34801561064657600080fd5b5061065a610655366004613ec2565b611c41565b60405161028b9190613fad565b34801561067357600080fd5b506102b461068236600461402d565b611d2f565b34801561069357600080fd5b506102b46106a2366004613d79565b611fa1565b3480156106b357600080fd5b506102b46106c2366004614078565b612105565b3480156106d357600080fd5b506102e66106e2366004613d1e565b61247b565b3480156106f357600080fd5b506102e660995481565b34801561070957600080fd5b506097546104069073ffffffffffffffffffffffffffffffffffffffff1681565b34801561073657600080fd5b506102b4610745366004613d3b565b612638565b34801561075657600080fd5b50609a546104069073ffffffffffffffffffffffffffffffffffffffff1681565b34801561078357600080fd5b506102e661265d565b34801561079857600080fd5b506102b46107a7366004613d1e565b61269e565b3480156107b857600080fd5b506102b46107c73660046141c5565b6127ee565b60007fffffffff0000000000000000000000000000000000000000000000000000000082167f7965db0b00000000000000000000000000000000000000000000000000000000148061085f57507f01ffc9a7000000000000000000000000000000000000000000000000000000007fffffffff000000000000000000000000000000000000000000000000000000008316145b92915050565b6040516020016108a69060208082526007908201527f4d414e4147455200000000000000000000000000000000000000000000000000604082015260600190565b604051602081830303815290604052805190602001206108c581612a68565b73ffffffffffffffffffffffffffffffffffffffff8316610947576040517f08c379a000000000000000000000000000000000000000000000000000000000815260206004820152600860248201527f4e4f545f5a45524f00000000000000000000000000000000000000000000000060448201526064015b60405180910390fd5b6127108211156109b3576040517f08c379a000000000000000000000000000000000000000000000000000000000815260206004820152600760248201527f544f4f5f42494700000000000000000000000000000000000000000000000000604482015260640161093e565b73ffffffffffffffffffffffffffffffffffffffff83166000818152609d60209081526040808320869055609e82529182902080547fffffffffffffffffffffffffffffffffffffffffffffffffffffffffffffff00166001179055815192835282018490527f9a7f36cb92c3a48741577312e190fb527f1d8a2f05eed281ccdcf054f9f3499991015b60405180910390a1505050565b604051602001610a8b9060208082526007908201527f4d414e4147455200000000000000000000000000000000000000000000000000604082015260600190565b60405160208183030381529060405280519060200120610aaa81612a68565b73ffffffffffffffffffffffffffffffffffffffff8216610b27576040517f08c379a000000000000000000000000000000000000000000000000000000000815260206004820152600860248201527f4e4f545f5a45524f000000000000000000000000000000000000000000000000604482015260640161093e565b609c80547fffffffffffffffffffffffff00000000000000000000000000000000000000001673ffffffffffffffffffffffffffffffffffffffff84169081179091556040519081527f61850c638ae43fda9dfdc1a96c2b322ebc66d14e4d77e2030e0a4a84371e8b44906020015b60405180910390a15050565b600082815260656020526040902060010154610bbd81612a68565b610bc78383612a75565b505050565b73ffffffffffffffffffffffffffffffffffffffff81163314610c71576040517f08c379a000000000000000000000000000000000000000000000000000000000815260206004820152602f60248201527f416363657373436f6e74726f6c3a2063616e206f6e6c792072656e6f756e636560448201527f20726f6c657320666f722073656c660000000000000000000000000000000000606482015260840161093e565b610c7b8282612b69565b5050565b604051602001610cc09060208082526002908201527f4f50000000000000000000000000000000000000000000000000000000000000604082015260600190565b60405160208183030381529060405280519060200120610cdf81612a68565b60a380547fffffffffffffffffffffffff00000000000000000000000000000000000000001673ffffffffffffffffffffffffffffffffffffffff8416908117909155600090815260a6602052604090205460ff1615610d3d575050565b8173ffffffffffffffffffffffffffffffffffffffff1663caa4b46a6040518163ffffffff1660e01b81526004016040805180830381600087803b158015610d8457600080fd5b505af1158015610d98573d6000803e3d6000fd5b505050506040513d601f19601f82011682018060405250810190610dbc91906142a7565b505060a380547fffffffffffffffffffffffff00000000000000000000000000000000000000001690555050565b6040517f70a082310000000000000000000000000000000000000000000000000000000081523060048201526000908190819073ffffffffffffffffffffffffffffffffffffffff8516906370a082319060240160206040518083038186803b158015610e5657600080fd5b505afa158015610e6a573d6000803e3d6000fd5b505050506040513d601f19601f82011682018060405250810190610e8e91906142da565b73ffffffffffffffffffffffffffffffffffffffff8516600090815260a16020526040902054909350610ece908490610ec961271083614322565b612c24565b9150610eda828461435f565b929491935050565b604051602001610f239060208082526002908201527f4f50000000000000000000000000000000000000000000000000000000000000604082015260600190565b6040516020818303038152906040528051906020012081565b604051602001610f7d9060208082526007908201527f4d414e4147455200000000000000000000000000000000000000000000000000604082015260600190565b60405160208183030381529060405280519060200120610f9c81612a68565b6097546040517fa4063dbc00000000000000000000000000000000000000000000000000000000815273ffffffffffffffffffffffffffffffffffffffff858116600483015290911690819063a4063dbc9060240160206040518083038186803b15801561100957600080fd5b505afa15801561101d573d6000803e3d6000fd5b505050506040513d601f19601f820116820180604052508101906110419190614376565b6110a7576040517f08c379a000000000000000000000000000000000000000000000000000000000815260206004820152600860248201527f4e4f5420504f4f4c000000000000000000000000000000000000000000000000604482015260640161093e565b73ffffffffffffffffffffffffffffffffffffffff8416600081815260a6602090815260409182902080547fffffffffffffffffffffffffffffffffffffffffffffffffffffffffffffff00168715159081179091558251938452908301527faa0e5829e6847f080b2193417ffa7be83545cc72d0a5a24e716404af42da412a91015b60405180910390a150505050565b6040516020016111799060208082526007908201527f4d414e4147455200000000000000000000000000000000000000000000000000604082015260600190565b6040516020818303038152906040528051906020012061119881612a68565b73ffffffffffffffffffffffffffffffffffffffff8216611215576040517f08c379a000000000000000000000000000000000000000000000000000000000815260206004820152600860248201527f4e4f545f5a45524f000000000000000000000000000000000000000000000000604482015260640161093e565b609b80547fffffffffffffffffffffffff00000000000000000000000000000000000000001673ffffffffffffffffffffffffffffffffffffffff84169081179091556040519081527fb80d9b26e906c9f0ff398547e2d990aacc9c1f9fe96bb81e75783992f6d9f03b90602001610b96565b6040516020016112c99060208082526007908201527f4d414e4147455200000000000000000000000000000000000000000000000000604082015260600190565b604051602081830303815290604052805190602001206112e881612a68565b60008211611352576040517f08c379a000000000000000000000000000000000000000000000000000000000815260206004820152600860248201527f4e4f545f5a45524f000000000000000000000000000000000000000000000000604482015260640161093e565b60998290556040518281527f129533e18daf1d480fd24e5a1fc61ccb2f504e6898df5c22684e8d42d5a1449e90602001610b96565b6040516020016113c89060208082526002908201527f4f50000000000000000000000000000000000000000000000000000000000000604082015260600190565b604051602081830303815290604052805190602001206113e781612a68565b609754604080517f566a89af000000000000000000000000000000000000000000000000000000008152905173ffffffffffffffffffffffffffffffffffffffff909216916000916114a191849163566a89af916004808301926020929190829003018186803b15801561145a57600080fd5b505afa15801561146e573d6000803e3d6000fd5b505050506040513d601f19601f8201168201806040525081019061149291906142da565b61149c8688614393565b612cf6565b90508085106114b1575050505050565b845b81811015611735576040517ea5ae210000000000000000000000000000000000000000000000000000000081526004810182905260009073ffffffffffffffffffffffffffffffffffffffff85169062a5ae219060240160206040518083038186803b15801561152257600080fd5b505afa158015611536573d6000803e3d6000fd5b505050506040513d601f19601f8201168201806040525081019061155a91906143ab565b73ffffffffffffffffffffffffffffffffffffffff8116600090815260a6602052604090205490915060ff16156115915750611723565b6000808273ffffffffffffffffffffffffffffffffffffffff1663fb5d80b36040518163ffffffff1660e01b8152600401604080518083038186803b1580156115d957600080fd5b505afa1580156115ed573d6000803e3d6000fd5b505050506040513d601f19601f8201168201806040525081019061161191906142a7565b91509150816fffffffffffffffffffffffffffffffff16600014801561164757506fffffffffffffffffffffffffffffffff8116155b1561165457505050611723565b60a380547fffffffffffffffffffffffff00000000000000000000000000000000000000001673ffffffffffffffffffffffffffffffffffffffff8516908117909155604080517fcaa4b46a000000000000000000000000000000000000000000000000000000008152815163caa4b46a926004808401939192918290030181600087803b1580156116e557600080fd5b505af11580156116f9573d6000803e3d6000fd5b505050506040513d601f19601f8201168201806040525081019061171d91906142a7565b50505050505b8061172d816143c8565b9150506114b3565b505060a380547fffffffffffffffffffffffff000000000000000000000000000000000000000016905550505050565b6040516020016117a69060208082526007908201527f4d414e4147455200000000000000000000000000000000000000000000000000604082015260600190565b604051602081830303815290604052805190602001206117c581612a68565b73ffffffffffffffffffffffffffffffffffffffff8316611842576040517f08c379a000000000000000000000000000000000000000000000000000000000815260206004820152600860248201527f4e4f545f5a45524f000000000000000000000000000000000000000000000000604482015260640161093e565b6127108211156118ae576040517f08c379a000000000000000000000000000000000000000000000000000000000815260206004820152600760248201527f544f4f5f42494700000000000000000000000000000000000000000000000000604482015260640161093e565b73ffffffffffffffffffffffffffffffffffffffff83166000818152609f6020908152604080832086905560a082529182902080547fffffffffffffffffffffffffffffffffffffffffffffffffffffffffffffff00166001179055815192835282018490527f1b8b6a5cc8e5560e91b8aa7116fdc7929ea43d2ba0793e20a51bf1cfbeebc0369101610a3d565b6060611948838361435f565b67ffffffffffffffff811115611960576119606140b8565b604051908082528060200260200182016040528015611989578160200160208202803683370190505b50905061199b8260a480549050612cf6565b9150825b82811015611a2e5760a481815481106119ba576119ba614401565b9060005260206000200160009054906101000a900473ffffffffffffffffffffffffffffffffffffffff168282815181106119f7576119f7614401565b73ffffffffffffffffffffffffffffffffffffffff9092166020928302919091019091015280611a26816143c8565b91505061199f565b5092915050565b604051602001611a769060208082526002908201527f4f50000000000000000000000000000000000000000000000000000000000000604082015260600190565b60405160208183030381529060405280519060200120611a9581612a68565b6040517f70a0823100000000000000000000000000000000000000000000000000000000815230600482015260009073ffffffffffffffffffffffffffffffffffffffff8816906370a082319060240160206040518083038186803b158015611afd57600080fd5b505afa158015611b11573d6000803e3d6000fd5b505050506040513d601f19601f82011682018060405250810190611b3591906142da565b90506000611b47888389898989612d0c565b9050600080611b578a858561335d565b609854919350915073ffffffffffffffffffffffffffffffffffffffff168215611ba257609b54611ba29073ffffffffffffffffffffffffffffffffffffffff8381169116856133e1565b8115611bcf57609c54611bcf9073ffffffffffffffffffffffffffffffffffffffff8381169116846133e1565b60408051868152602081018690529081018490526060810183905273ffffffffffffffffffffffffffffffffffffffff80831691908d16907f56513147cc739e1e937e841a2c24d310a5abf7a27ef52dfc8e4c67e97425a0779060800160405180910390a35050505050505050505050565b60608167ffffffffffffffff811115611c5c57611c5c6140b8565b604051908082528060200260200182016040528015611c8f57816020015b6060815260200190600190039081611c7a5790505b50905060005b82811015611a2e57611cff30858584818110611cb357611cb3614401565b9050602002810190611cc59190614430565b8080601f01602080910402602001604051908101604052809392919081815260200183838082843760009201919091525061346e92505050565b828281518110611d1157611d11614401565b60200260200101819052508080611d27906143c8565b915050611c95565b604051602001611d709060208082526002908201527f4f50000000000000000000000000000000000000000000000000000000000000604082015260600190565b60405160208183030381529060405280519060200120611d8f81612a68565b73ffffffffffffffffffffffffffffffffffffffff8416600090815260a2602052604090205460ff16611e1e576040517f08c379a000000000000000000000000000000000000000000000000000000000815260206004820152600b60248201527f4e4f545f56455249464544000000000000000000000000000000000000000000604482015260640161093e565b8115611ef1576040517f095ea7b300000000000000000000000000000000000000000000000000000000815273ffffffffffffffffffffffffffffffffffffffff85811660048301527fffffffffffffffffffffffffffffffffffffffffffffffffffffffffffffffff602483015284169063095ea7b390604401602060405180830381600087803b158015611eb357600080fd5b505af1158015611ec7573d6000803e3d6000fd5b505050506040513d601f19601f82011682018060405250810190611eeb9190614376565b50611f9b565b6040517f095ea7b300000000000000000000000000000000000000000000000000000000815273ffffffffffffffffffffffffffffffffffffffff85811660048301526000602483015284169063095ea7b390604401602060405180830381600087803b158015611f6157600080fd5b505af1158015611f75573d6000803e3d6000fd5b505050506040513d601f19601f82011682018060405250810190611f999190614376565b505b50505050565b604051602001611fe29060208082526007908201527f4d414e4147455200000000000000000000000000000000000000000000000000604082015260600190565b6040516020818303038152906040528051906020012061200181612a68565b73ffffffffffffffffffffffffffffffffffffffff831661207e576040517f08c379a000000000000000000000000000000000000000000000000000000000815260206004820152600860248201527f4e4f545f5a45524f000000000000000000000000000000000000000000000000604482015260640161093e565b73ffffffffffffffffffffffffffffffffffffffff8316600081815260a2602090815260409182902080547fffffffffffffffffffffffffffffffffffffffffffffffffffffffffffffff00168615159081179091558251938452908301527f2f7544148bd36bd1f673c67408962ce71e2c72f682ffe3a3649e3f3b8eb729e19101610a3d565b600054610100900460ff16158080156121255750600054600160ff909116105b8061213f5750303b15801561213f575060005460ff166001145b6121cb576040517f08c379a000000000000000000000000000000000000000000000000000000000815260206004820152602e60248201527f496e697469616c697a61626c653a20636f6e747261637420697320616c72656160448201527f647920696e697469616c697a6564000000000000000000000000000000000000606482015260840161093e565b600080547fffffffffffffffffffffffffffffffffffffffffffffffffffffffffffffff00166001179055801561222957600080547fffffffffffffffffffffffffffffffffffffffffffffffffffffffffffff00ff166101001790555b73ffffffffffffffffffffffffffffffffffffffff84166122a6576040517f08c379a000000000000000000000000000000000000000000000000000000000815260206004820152600c60248201527f5a45524f5f414444524553530000000000000000000000000000000000000000604482015260640161093e565b73ffffffffffffffffffffffffffffffffffffffff8316612323576040517f08c379a000000000000000000000000000000000000000000000000000000000815260206004820152600c60248201527f5a45524f5f414444524553530000000000000000000000000000000000000000604482015260640161093e565b73ffffffffffffffffffffffffffffffffffffffff82166123a0576040517f08c379a000000000000000000000000000000000000000000000000000000000815260206004820152600c60248201527f5a45524f5f414444524553530000000000000000000000000000000000000000604482015260640161093e565b6097805473ffffffffffffffffffffffffffffffffffffffff8087167fffffffffffffffffffffffff00000000000000000000000000000000000000009283161790925560988054868416908316179055609a805492851692909116919091179055620f4240609955612411613493565b61241c60003361352c565b8015611f9b57600080547fffffffffffffffffffffffffffffffffffffffffffffffffffffffffffff00ff169055604051600181527f7f26b83ff96e1f2b6a682f133852f6798a09c465da95921460cefb38474024989060200161112a565b73ffffffffffffffffffffffffffffffffffffffff81166000908152609e602052604081205460ff16156124d2575073ffffffffffffffffffffffffffffffffffffffff166000908152609d602052604090205490565b6097546040517fa7bce75500000000000000000000000000000000000000000000000000000000815273ffffffffffffffffffffffffffffffffffffffff8481166004830152600092169063a7bce7559060240160206040518083038186803b15801561253e57600080fd5b505afa158015612552573d6000803e3d6000fd5b505050506040513d601f19601f8201168201806040525081019061257691906143ab565b73ffffffffffffffffffffffffffffffffffffffff8116600090815260a0602052604090205490915060ff16612608576040517f08c379a000000000000000000000000000000000000000000000000000000000815260206004820152600960248201527f4e4f545f53455455500000000000000000000000000000000000000000000000604482015260640161093e565b73ffffffffffffffffffffffffffffffffffffffff166000908152609f602052604090205492915050565b919050565b60008281526065602052604090206001015461265381612a68565b610bc78383612b69565b604051602001610f239060208082526007908201527f4d414e4147455200000000000000000000000000000000000000000000000000604082015260600190565b6040516020016126df9060208082526007908201527f4d414e4147455200000000000000000000000000000000000000000000000000604082015260600190565b604051602081830303815290604052805190602001206126fe81612a68565b73ffffffffffffffffffffffffffffffffffffffff821661277b576040517f08c379a000000000000000000000000000000000000000000000000000000000815260206004820152600860248201527f4e4f545f5a45524f000000000000000000000000000000000000000000000000604482015260640161093e565b609880547fffffffffffffffffffffffff00000000000000000000000000000000000000001673ffffffffffffffffffffffffffffffffffffffff84169081179091556040519081527fc06258a22dd82acd4aca5423e3a0da8420e7e6408be33120b7e3c999115e5c7d90602001610b96565b60a354339073ffffffffffffffffffffffffffffffffffffffff168114612871576040517f08c379a000000000000000000000000000000000000000000000000000000000815260206004820152600b60248201527f4e4f5420414c4c4f574544000000000000000000000000000000000000000000604482015260640161093e565b60005b8351811015611f9b57600084828151811061289157612891614401565b6020026020010151905060008483815181106128af576128af614401565b6020026020010151905080600014156128c9575050612a56565b73ffffffffffffffffffffffffffffffffffffffff8216600090815260a5602052604090205460ff1661299d5760a4805460018082019092557fe434dc35da084cf8d7e8186688ea2dacb53db7003d427af3abf351bd9d0a4e8d0180547fffffffffffffffffffffffff00000000000000000000000000000000000000001673ffffffffffffffffffffffffffffffffffffffff8516908117909155600090815260a56020526040902080547fffffffffffffffffffffffffffffffffffffffffffffffffffffffffffffff001690911790555b6129a68461247b565b6129b09082614322565b73ffffffffffffffffffffffffffffffffffffffff8316600090815260a16020526040812080549091906129e5908490614393565b925050819055508173ffffffffffffffffffffffffffffffffffffffff168473ffffffffffffffffffffffffffffffffffffffff167f1314fd112a381beea61539dbd21ec04afcff2662ac7d1b83273aade1f53d1b9783604051612a4b91815260200190565b60405180910390a350505b80612a60816143c8565b915050612874565b612a728133613536565b50565b600082815260656020908152604080832073ffffffffffffffffffffffffffffffffffffffff8516845290915290205460ff16610c7b57600082815260656020908152604080832073ffffffffffffffffffffffffffffffffffffffff85168452909152902080547fffffffffffffffffffffffffffffffffffffffffffffffffffffffffffffff00166001179055612b0b3390565b73ffffffffffffffffffffffffffffffffffffffff168173ffffffffffffffffffffffffffffffffffffffff16837f2f8788117e7eff1d82e926ec794901d17c78024a50270940304540a733656f0d60405160405180910390a45050565b600082815260656020908152604080832073ffffffffffffffffffffffffffffffffffffffff8516845290915290205460ff1615610c7b57600082815260656020908152604080832073ffffffffffffffffffffffffffffffffffffffff8516808552925280832080547fffffffffffffffffffffffffffffffffffffffffffffffffffffffffffffff0016905551339285917ff6391f5c32d9c69d2a47ea670b442974b53935d1edc7fd64eb21e047a839171b9190a45050565b600080807fffffffffffffffffffffffffffffffffffffffffffffffffffffffffffffffff8587098587029250828110838203039150508060001415612c7c5760008411612c7157600080fd5b508290049050612cef565b808411612c8857600080fd5b6000848688096000868103871696879004966002600389028118808a02820302808a02820302808a02820302808a02820302808a02820302808a02909103029181900381900460010186841190950394909402919094039290920491909117919091029150505b9392505050565b6000818310612d055781612cef565b5090919050565b609a5460985460009173ffffffffffffffffffffffffffffffffffffffff908116918116908916811415612d44578792505050613353565b6040517f70a0823100000000000000000000000000000000000000000000000000000000815230600482015260009073ffffffffffffffffffffffffffffffffffffffff8316906370a082319060240160206040518083038186803b158015612dac57600080fd5b505afa158015612dc0573d6000803e3d6000fd5b505050506040513d601f19601f82011682018060405250810190612de491906142da565b73ffffffffffffffffffffffffffffffffffffffff8816600090815260a2602052604090205490915060ff16612e76576040517f08c379a000000000000000000000000000000000000000000000000000000000815260206004820152601360248201527f4e4f545f56455249464945445f42524f4b455200000000000000000000000000604482015260640161093e565b60008a73ffffffffffffffffffffffffffffffffffffffff168473ffffffffffffffffffffffffffffffffffffffff161415612fa1576040517f2e1a7d4d000000000000000000000000000000000000000000000000000000008152600481018b905273ffffffffffffffffffffffffffffffffffffffff851690632e1a7d4d90602401600060405180830381600087803b158015612f1457600080fd5b505af1158015612f28573d6000803e3d6000fd5b505050508773ffffffffffffffffffffffffffffffffffffffff168a8888604051612f5492919061449c565b60006040518083038185875af1925050503d8060008114612f91576040519150601f19603f3d011682016040523d82523d6000602084013e612f96565b606091505b505080915050613166565b6040517fdd62ed3e00000000000000000000000000000000000000000000000000000000815230600482015273ffffffffffffffffffffffffffffffffffffffff89811660248301528c169063dd62ed3e9060440160206040518083038186803b15801561300e57600080fd5b505afa158015613022573d6000803e3d6000fd5b505050506040513d601f19601f8201168201806040525081019061304691906142da565b8a11156130f7576040517f095ea7b300000000000000000000000000000000000000000000000000000000815273ffffffffffffffffffffffffffffffffffffffff8981166004830152602482018c90528c169063095ea7b390604401602060405180830381600087803b1580156130bd57600080fd5b505af11580156130d1573d6000803e3d6000fd5b505050506040513d601f19601f820116820180604052508101906130f59190614376565b505b8773ffffffffffffffffffffffffffffffffffffffff16878760405161311e92919061449c565b6000604051808303816000865af19150503d806000811461315b576040519150601f19603f3d011682016040523d82523d6000602084013e613160565b606091505b50909150505b806131cd576040517f08c379a000000000000000000000000000000000000000000000000000000000815260206004820152600b60248201527f42524f4b45525f4641494c000000000000000000000000000000000000000000604482015260640161093e565b506040517f70a08231000000000000000000000000000000000000000000000000000000008152306004820152819073ffffffffffffffffffffffffffffffffffffffff8416906370a082319060240160206040518083038186803b15801561323557600080fd5b505afa158015613249573d6000803e3d6000fd5b505050506040513d601f19601f8201168201806040525081019061326d91906142da565b613277919061435f565b9350878410156132e3576040517f08c379a000000000000000000000000000000000000000000000000000000000815260206004820152600860248201527f534c495050414745000000000000000000000000000000000000000000000000604482015260640161093e565b60995484101561334f576040517f08c379a000000000000000000000000000000000000000000000000000000000815260206004820152600f60248201527f4d494e494d554d20524556454e55450000000000000000000000000000000000604482015260640161093e565b5050505b9695505050505050565b73ffffffffffffffffffffffffffffffffffffffff8316600090815260a160205260408120548190613397908490610ec961271088614322565b73ffffffffffffffffffffffffffffffffffffffff8616600090815260a1602052604081205591508183116133cd5760006133d7565b6133d7828461435f565b9050935093915050565b6040805173ffffffffffffffffffffffffffffffffffffffff8416602482015260448082018490528251808303909101815260649091019091526020810180517bffffffffffffffffffffffffffffffffffffffffffffffffffffffff167fa9059cbb00000000000000000000000000000000000000000000000000000000179052610bc7908490613608565b6060612cef838360405180606001604052806027815260200161459260279139613714565b600054610100900460ff1661352a576040517f08c379a000000000000000000000000000000000000000000000000000000000815260206004820152602b60248201527f496e697469616c697a61626c653a20636f6e7472616374206973206e6f74206960448201527f6e697469616c697a696e67000000000000000000000000000000000000000000606482015260840161093e565b565b610c7b8282612a75565b600082815260656020908152604080832073ffffffffffffffffffffffffffffffffffffffff8516845290915290205460ff16610c7b5761358e8173ffffffffffffffffffffffffffffffffffffffff166014613832565b613599836020613832565b6040516020016135aa9291906144ac565b604080517fffffffffffffffffffffffffffffffffffffffffffffffffffffffffffffffe0818403018152908290527f08c379a000000000000000000000000000000000000000000000000000000000825261093e9160040161452d565b600061366a826040518060400160405280602081526020017f5361666545524332303a206c6f772d6c6576656c2063616c6c206661696c65648152508573ffffffffffffffffffffffffffffffffffffffff16613a759092919063ffffffff16565b805190915015610bc757808060200190518101906136889190614376565b610bc7576040517f08c379a000000000000000000000000000000000000000000000000000000000815260206004820152602a60248201527f5361666545524332303a204552433230206f7065726174696f6e20646964206e60448201527f6f74207375636365656400000000000000000000000000000000000000000000606482015260840161093e565b606073ffffffffffffffffffffffffffffffffffffffff84163b6137ba576040517f08c379a000000000000000000000000000000000000000000000000000000000815260206004820152602660248201527f416464726573733a2064656c65676174652063616c6c20746f206e6f6e2d636f60448201527f6e74726163740000000000000000000000000000000000000000000000000000606482015260840161093e565b6000808573ffffffffffffffffffffffffffffffffffffffff16856040516137e29190614540565b600060405180830381855af49150503d806000811461381d576040519150601f19603f3d011682016040523d82523d6000602084013e613822565b606091505b5091509150613353828286613a8c565b60606000613841836002614322565b61384c906002614393565b67ffffffffffffffff811115613864576138646140b8565b6040519080825280601f01601f19166020018201604052801561388e576020820181803683370190505b5090507f3000000000000000000000000000000000000000000000000000000000000000816000815181106138c5576138c5614401565b60200101907effffffffffffffffffffffffffffffffffffffffffffffffffffffffffffff1916908160001a9053507f78000000000000000000000000000000000000000000000000000000000000008160018151811061392857613928614401565b60200101907effffffffffffffffffffffffffffffffffffffffffffffffffffffffffffff1916908160001a9053506000613964846002614322565b61396f906001614393565b90505b6001811115613a0c577f303132333435363738396162636465660000000000000000000000000000000085600f16601081106139b0576139b0614401565b1a60f81b8282815181106139c6576139c6614401565b60200101907effffffffffffffffffffffffffffffffffffffffffffffffffffffffffffff1916908160001a90535060049490941c93613a058161455c565b9050613972565b508315612cef576040517f08c379a000000000000000000000000000000000000000000000000000000000815260206004820181905260248201527f537472696e67733a20686578206c656e67746820696e73756666696369656e74604482015260640161093e565b6060613a848484600085613adf565b949350505050565b60608315613a9b575081612cef565b825115613aab5782518084602001fd5b816040517f08c379a000000000000000000000000000000000000000000000000000000000815260040161093e919061452d565b606082471015613b71576040517f08c379a000000000000000000000000000000000000000000000000000000000815260206004820152602660248201527f416464726573733a20696e73756666696369656e742062616c616e636520666f60448201527f722063616c6c0000000000000000000000000000000000000000000000000000606482015260840161093e565b73ffffffffffffffffffffffffffffffffffffffff85163b613bef576040517f08c379a000000000000000000000000000000000000000000000000000000000815260206004820152601d60248201527f416464726573733a2063616c6c20746f206e6f6e2d636f6e7472616374000000604482015260640161093e565b6000808673ffffffffffffffffffffffffffffffffffffffff168587604051613c189190614540565b60006040518083038185875af1925050503d8060008114613c55576040519150601f19603f3d011682016040523d82523d6000602084013e613c5a565b606091505b5091509150613c6a828286613a8c565b979650505050505050565b600060208284031215613c8757600080fd5b81357fffffffff0000000000000000000000000000000000000000000000000000000081168114612cef57600080fd5b73ffffffffffffffffffffffffffffffffffffffff81168114612a7257600080fd5b60008060408385031215613cec57600080fd5b8235613cf781613cb7565b946020939093013593505050565b600060208284031215613d1757600080fd5b5035919050565b600060208284031215613d3057600080fd5b8135612cef81613cb7565b60008060408385031215613d4e57600080fd5b823591506020830135613d6081613cb7565b809150509250929050565b8015158114612a7257600080fd5b60008060408385031215613d8c57600080fd5b8235613d9781613cb7565b91506020830135613d6081613d6b565b60008060408385031215613dba57600080fd5b50508035926020909101359150565b6020808252825182820181905260009190848201906040850190845b81811015613e1757835173ffffffffffffffffffffffffffffffffffffffff1683529284019291840191600101613de5565b50909695505050505050565b600080600080600060808688031215613e3b57600080fd5b8535613e4681613cb7565b9450602086013593506040860135613e5d81613cb7565b9250606086013567ffffffffffffffff80821115613e7a57600080fd5b818801915088601f830112613e8e57600080fd5b813581811115613e9d57600080fd5b896020828501011115613eaf57600080fd5b9699959850939650602001949392505050565b60008060208385031215613ed557600080fd5b823567ffffffffffffffff80821115613eed57600080fd5b818501915085601f830112613f0157600080fd5b813581811115613f1057600080fd5b8660208260051b8501011115613f2557600080fd5b60209290920196919550909350505050565b60005b83811015613f52578181015183820152602001613f3a565b83811115611f9b5750506000910152565b60008151808452613f7b816020860160208601613f37565b601f017fffffffffffffffffffffffffffffffffffffffffffffffffffffffffffffffe0169290920160200192915050565b6000602080830181845280855180835260408601915060408160051b870101925083870160005b82811015614020577fffffffffffffffffffffffffffffffffffffffffffffffffffffffffffffffc088860301845261400e858351613f63565b94509285019290850190600101613fd4565b5092979650505050505050565b60008060006060848603121561404257600080fd5b833561404d81613cb7565b9250602084013561405d81613cb7565b9150604084013561406d81613d6b565b809150509250925092565b60008060006060848603121561408d57600080fd5b833561409881613cb7565b925060208401356140a881613cb7565b9150604084013561406d81613cb7565b7f4e487b7100000000000000000000000000000000000000000000000000000000600052604160045260246000fd5b604051601f82017fffffffffffffffffffffffffffffffffffffffffffffffffffffffffffffffe016810167ffffffffffffffff8111828210171561412e5761412e6140b8565b604052919050565b600067ffffffffffffffff821115614150576141506140b8565b5060051b60200190565b600082601f83011261416b57600080fd5b8135602061418061417b83614136565b6140e7565b82815260059290921b8401810191818101908684111561419f57600080fd5b8286015b848110156141ba57803583529183019183016141a3565b509695505050505050565b600080604083850312156141d857600080fd5b823567ffffffffffffffff808211156141f057600080fd5b818501915085601f83011261420457600080fd5b8135602061421461417b83614136565b82815260059290921b8401810191818101908984111561423357600080fd5b948201945b8386101561425a57853561424b81613cb7565b82529482019490820190614238565b9650508601359250508082111561427057600080fd5b5061427d8582860161415a565b9150509250929050565b80516fffffffffffffffffffffffffffffffff8116811461263357600080fd5b600080604083850312156142ba57600080fd5b6142c383614287565b91506142d160208401614287565b90509250929050565b6000602082840312156142ec57600080fd5b5051919050565b7f4e487b7100000000000000000000000000000000000000000000000000000000600052601160045260246000fd5b6000817fffffffffffffffffffffffffffffffffffffffffffffffffffffffffffffffff048311821515161561435a5761435a6142f3565b500290565b600082821015614371576143716142f3565b500390565b60006020828403121561438857600080fd5b8151612cef81613d6b565b600082198211156143a6576143a66142f3565b500190565b6000602082840312156143bd57600080fd5b8151612cef81613cb7565b60007fffffffffffffffffffffffffffffffffffffffffffffffffffffffffffffffff8214156143fa576143fa6142f3565b5060010190565b7f4e487b7100000000000000000000000000000000000000000000000000000000600052603260045260246000fd5b60008083357fffffffffffffffffffffffffffffffffffffffffffffffffffffffffffffffe184360301811261446557600080fd5b83018035915067ffffffffffffffff82111561448057600080fd5b60200191503681900382131561449557600080fd5b9250929050565b8183823760009101908152919050565b7f416363657373436f6e74726f6c3a206163636f756e74200000000000000000008152600083516144e4816017850160208801613f37565b7f206973206d697373696e6720726f6c65200000000000000000000000000000006017918401918201528351614521816028840160208801613f37565b01602801949350505050565b602081526000612cef6020830184613f63565b60008251614552818460208701613f37565b9190910192915050565b60008161456b5761456b6142f3565b507fffffffffffffffffffffffffffffffffffffffffffffffffffffffffffffffff019056fe416464726573733a206c6f772d6c6576656c2064656c65676174652063616c6c206661696c6564a26469706673582212203473c6a1ae4cd3bf6285168bd91a8382bb6ab56669e6121eecee1eac307ad90364736f6c63430008090033",
  "devdoc": {
    "kind": "dev",
    "methods": {
      "getRoleAdmin(bytes32)": {
        "details": "Returns the admin role that controls `role`. See {grantRole} and {revokeRole}. To change a role's admin, use {_setRoleAdmin}."
      },
      "grantRole(bytes32,address)": {
        "details": "Grants `role` to `account`. If `account` had not been already granted `role`, emits a {RoleGranted} event. Requirements: - the caller must have ``role``'s admin role. May emit a {RoleGranted} event."
      },
      "hasRole(bytes32,address)": {
        "details": "Returns `true` if `account` has been granted `role`."
      },
      "multicall(bytes[])": {
        "details": "Receives and executes a batch of function calls on this contract."
      },
      "renounceRole(bytes32,address)": {
        "details": "Revokes `role` from the calling account. Roles are often managed via {grantRole} and {revokeRole}: this function's purpose is to provide a mechanism for accounts to lose their privileges if they are compromised (such as when a trusted device is misplaced). If the calling account had been revoked `role`, emits a {RoleRevoked} event. Requirements: - the caller must be `account`. May emit a {RoleRevoked} event."
      },
      "revokeRole(bytes32,address)": {
        "details": "Revokes `role` from `account`. If `account` had been granted `role`, emits a {RoleRevoked} event. Requirements: - the caller must have ``role``'s admin role. May emit a {RoleRevoked} event."
      },
      "supportsInterface(bytes4)": {
        "details": "See {IERC165-supportsInterface}."
      }
    },
    "version": 1
  },
  "userdoc": {
    "kind": "user",
    "methods": {
      "allocateRevenue(address)": {
        "notice": "   Revenue  "
      },
      "collectByPage(uint256,uint256)": {
        "notice": "deployer ,   "
      },
      "collectFeeCallback(address[],uint256[])": {
        "notice": "Callback  (Pool )"
      },
      "collectFrom(address)": {
        "notice": "    "
      }
    },
    "notice": "     ",
    "version": 1
  },
  "storageLayout": {
    "storage": [
      {
        "astId": 419,
        "contract": "contracts/ProtocolRevenueShare.sol:ProtocolRevenueShare",
        "label": "_initialized",
        "offset": 0,
        "slot": "0",
        "type": "t_uint8"
      },
      {
        "astId": 422,
        "contract": "contracts/ProtocolRevenueShare.sol:ProtocolRevenueShare",
        "label": "_initializing",
        "offset": 1,
        "slot": "0",
        "type": "t_bool"
      },
      {
        "astId": 847,
        "contract": "contracts/ProtocolRevenueShare.sol:ProtocolRevenueShare",
        "label": "__gap",
        "offset": 0,
        "slot": "1",
        "type": "t_array(t_uint256)50_storage"
      },
      {
        "astId": 1117,
        "contract": "contracts/ProtocolRevenueShare.sol:ProtocolRevenueShare",
        "label": "__gap",
        "offset": 0,
        "slot": "51",
        "type": "t_array(t_uint256)50_storage"
      },
      {
        "astId": 39,
        "contract": "contracts/ProtocolRevenueShare.sol:ProtocolRevenueShare",
        "label": "_roles",
        "offset": 0,
        "slot": "101",
        "type": "t_mapping(t_bytes32,t_struct(RoleData)34_storage)"
      },
      {
        "astId": 338,
        "contract": "contracts/ProtocolRevenueShare.sol:ProtocolRevenueShare",
        "label": "__gap",
        "offset": 0,
        "slot": "102",
        "type": "t_array(t_uint256)49_storage"
      },
      {
        "astId": 3056,
        "contract": "contracts/ProtocolRevenueShare.sol:ProtocolRevenueShare",
        "label": "masterDeployer",
        "offset": 0,
        "slot": "151",
        "type": "t_address"
      },
      {
        "astId": 3058,
        "contract": "contracts/ProtocolRevenueShare.sol:ProtocolRevenueShare",
        "label": "revenueToken",
        "offset": 0,
        "slot": "152",
        "type": "t_address"
      },
      {
        "astId": 3060,
        "contract": "contracts/ProtocolRevenueShare.sol:ProtocolRevenueShare",
        "label": "minimumRevenue",
        "offset": 0,
        "slot": "153",
        "type": "t_uint256"
      },
      {
        "astId": 3062,
        "contract": "contracts/ProtocolRevenueShare.sol:ProtocolRevenueShare",
        "label": "wklay",
        "offset": 0,
        "slot": "154",
        "type": "t_address"
      },
      {
        "astId": 3064,
        "contract": "contracts/ProtocolRevenueShare.sol:ProtocolRevenueShare",
        "label": "growthFund",
        "offset": 0,
        "slot": "155",
        "type": "t_address"
      },
      {
        "astId": 3066,
        "contract": "contracts/ProtocolRevenueShare.sol:ProtocolRevenueShare",
        "label": "daoFund",
        "offset": 0,
        "slot": "156",
        "type": "t_address"
      },
      {
        "astId": 3070,
        "contract": "contracts/ProtocolRevenueShare.sol:ProtocolRevenueShare",
        "label": "_growthFundRate",
        "offset": 0,
        "slot": "157",
        "type": "t_mapping(t_address,t_uint256)"
      },
      {
        "astId": 3074,
        "contract": "contracts/ProtocolRevenueShare.sol:ProtocolRevenueShare",
        "label": "_setupGrowthFundRate",
        "offset": 0,
        "slot": "158",
        "type": "t_mapping(t_address,t_bool)"
      },
      {
        "astId": 3078,
        "contract": "contracts/ProtocolRevenueShare.sol:ProtocolRevenueShare",
        "label": "_factoryGrowthFundRate",
        "offset": 0,
        "slot": "159",
        "type": "t_mapping(t_address,t_uint256)"
      },
      {
        "astId": 3082,
        "contract": "contracts/ProtocolRevenueShare.sol:ProtocolRevenueShare",
        "label": "_setupFactoryGrowthFundRate",
        "offset": 0,
        "slot": "160",
        "type": "t_mapping(t_address,t_bool)"
      },
      {
        "astId": 3086,
        "contract": "contracts/ProtocolRevenueShare.sol:ProtocolRevenueShare",
        "label": "_allocatedGrowthFunds",
        "offset": 0,
        "slot": "161",
        "type": "t_mapping(t_address,t_uint256)"
      },
      {
        "astId": 3090,
        "contract": "contracts/ProtocolRevenueShare.sol:ProtocolRevenueShare",
        "label": "isVerifiedBroker",
        "offset": 0,
        "slot": "162",
        "type": "t_mapping(t_address,t_bool)"
      },
      {
        "astId": 3092,
        "contract": "contracts/ProtocolRevenueShare.sol:ProtocolRevenueShare",
        "label": "cachedPool",
        "offset": 0,
        "slot": "163",
        "type": "t_address"
      },
      {
        "astId": 3095,
        "contract": "contracts/ProtocolRevenueShare.sol:ProtocolRevenueShare",
        "label": "_feeTokens",
        "offset": 0,
        "slot": "164",
        "type": "t_array(t_address)dyn_storage"
      },
      {
        "astId": 3099,
        "contract": "contracts/ProtocolRevenueShare.sol:ProtocolRevenueShare",
        "label": "isFee",
        "offset": 0,
        "slot": "165",
        "type": "t_mapping(t_address,t_bool)"
      },
      {
        "astId": 3103,
        "contract": "contracts/ProtocolRevenueShare.sol:ProtocolRevenueShare",
        "label": "skipCollect",
        "offset": 0,
        "slot": "166",
        "type": "t_mapping(t_address,t_bool)"
      }
    ],
    "types": {
      "t_address": {
        "encoding": "inplace",
        "label": "address",
        "numberOfBytes": "20"
      },
      "t_array(t_address)dyn_storage": {
        "base": "t_address",
        "encoding": "dynamic_array",
        "label": "address[]",
        "numberOfBytes": "32"
      },
      "t_array(t_uint256)49_storage": {
        "base": "t_uint256",
        "encoding": "inplace",
        "label": "uint256[49]",
        "numberOfBytes": "1568"
      },
      "t_array(t_uint256)50_storage": {
        "base": "t_uint256",
        "encoding": "inplace",
        "label": "uint256[50]",
        "numberOfBytes": "1600"
      },
      "t_bool": {
        "encoding": "inplace",
        "label": "bool",
        "numberOfBytes": "1"
      },
      "t_bytes32": {
        "encoding": "inplace",
        "label": "bytes32",
        "numberOfBytes": "32"
      },
      "t_mapping(t_address,t_bool)": {
        "encoding": "mapping",
        "key": "t_address",
        "label": "mapping(address => bool)",
        "numberOfBytes": "32",
        "value": "t_bool"
      },
      "t_mapping(t_address,t_uint256)": {
        "encoding": "mapping",
        "key": "t_address",
        "label": "mapping(address => uint256)",
        "numberOfBytes": "32",
        "value": "t_uint256"
      },
      "t_mapping(t_bytes32,t_struct(RoleData)34_storage)": {
        "encoding": "mapping",
        "key": "t_bytes32",
        "label": "mapping(bytes32 => struct AccessControlUpgradeable.RoleData)",
        "numberOfBytes": "32",
        "value": "t_struct(RoleData)34_storage"
      },
      "t_struct(RoleData)34_storage": {
        "encoding": "inplace",
        "label": "struct AccessControlUpgradeable.RoleData",
        "members": [
          {
            "astId": 31,
            "contract": "contracts/ProtocolRevenueShare.sol:ProtocolRevenueShare",
            "label": "members",
            "offset": 0,
            "slot": "0",
            "type": "t_mapping(t_address,t_bool)"
          },
          {
            "astId": 33,
            "contract": "contracts/ProtocolRevenueShare.sol:ProtocolRevenueShare",
            "label": "adminRole",
            "offset": 0,
            "slot": "1",
            "type": "t_bytes32"
          }
        ],
        "numberOfBytes": "64"
      },
      "t_uint256": {
        "encoding": "inplace",
        "label": "uint256",
        "numberOfBytes": "32"
      },
      "t_uint8": {
        "encoding": "inplace",
        "label": "uint8",
        "numberOfBytes": "1"
      }
    }
  }
}