{
  "address": "0x5359362392CFb5Bc7c04EFA1323E60E5Ac260eB5",
  "abi": [
    {
      "anonymous": false,
      "inputs": [
        {
          "indexed": true,
          "internalType": "address",
          "name": "operator",
          "type": "address"
        },
        {
          "indexed": true,
          "internalType": "uint256",
          "name": "weekStartTime",
          "type": "uint256"
        },
        {
          "indexed": false,
          "internalType": "uint256",
          "name": "amount",
          "type": "uint256"
        }
      ],
      "name": "CancelReward",
      "type": "event"
    },
    {
      "anonymous": false,
      "inputs": [
        {
          "indexed": true,
          "internalType": "address",
          "name": "owner",
          "type": "address"
        },
        {
          "indexed": false,
          "internalType": "uint256",
          "name": "amount",
          "type": "uint256"
        }
      ],
      "name": "Claim",
      "type": "event"
    },
    {
      "anonymous": false,
      "inputs": [
        {
          "indexed": true,
          "internalType": "address",
          "name": "owner",
          "type": "address"
        },
        {
          "indexed": true,
          "internalType": "uint256",
          "name": "epoch",
          "type": "uint256"
        },
        {
          "indexed": false,
          "internalType": "address",
          "name": "token",
          "type": "address"
        },
        {
          "indexed": false,
          "internalType": "uint256",
          "name": "amount",
          "type": "uint256"
        }
      ],
      "name": "ClaimDividend",
      "type": "event"
    },
    {
      "anonymous": false,
      "inputs": [
        {
          "indexed": true,
          "internalType": "uint256",
          "name": "dividendId",
          "type": "uint256"
        },
        {
          "indexed": false,
          "internalType": "address",
          "name": "token",
          "type": "address"
        },
        {
          "indexed": false,
          "internalType": "uint256",
          "name": "amount",
          "type": "uint256"
        }
      ],
      "name": "DepositDividend",
      "type": "event"
    },
    {
      "anonymous": false,
      "inputs": [
        {
          "indexed": true,
          "internalType": "address",
          "name": "operator",
          "type": "address"
        },
        {
          "indexed": true,
          "internalType": "uint256",
          "name": "weekStartTime",
          "type": "uint256"
        },
        {
          "indexed": false,
          "internalType": "uint256",
          "name": "amount",
          "type": "uint256"
        }
      ],
      "name": "DepositReward",
      "type": "event"
    },
    {
      "anonymous": false,
      "inputs": [
        {
          "indexed": true,
          "internalType": "uint256",
          "name": "dividendId",
          "type": "uint256"
        },
        {
          "indexed": false,
          "internalType": "address[]",
          "name": "token",
          "type": "address[]"
        },
        {
          "indexed": false,
          "internalType": "uint256[]",
          "name": "amount",
          "type": "uint256[]"
        }
      ],
      "name": "ExecuteDividend",
      "type": "event"
    },
    {
      "anonymous": false,
      "inputs": [
        {
          "indexed": false,
          "internalType": "uint8",
          "name": "version",
          "type": "uint8"
        }
      ],
      "name": "Initialized",
      "type": "event"
    },
    {
      "anonymous": false,
      "inputs": [
        {
          "indexed": true,
          "internalType": "uint256",
          "name": "dividendId",
          "type": "uint256"
        }
      ],
      "name": "ResetDividend",
      "type": "event"
    },
    {
      "anonymous": false,
      "inputs": [
        {
          "indexed": true,
          "internalType": "bytes32",
          "name": "role",
          "type": "bytes32"
        },
        {
          "indexed": true,
          "internalType": "bytes32",
          "name": "previousAdminRole",
          "type": "bytes32"
        },
        {
          "indexed": true,
          "internalType": "bytes32",
          "name": "newAdminRole",
          "type": "bytes32"
        }
      ],
      "name": "RoleAdminChanged",
      "type": "event"
    },
    {
      "anonymous": false,
      "inputs": [
        {
          "indexed": true,
          "internalType": "bytes32",
          "name": "role",
          "type": "bytes32"
        },
        {
          "indexed": true,
          "internalType": "address",
          "name": "account",
          "type": "address"
        },
        {
          "indexed": true,
          "internalType": "address",
          "name": "sender",
          "type": "address"
        }
      ],
      "name": "RoleGranted",
      "type": "event"
    },
    {
      "anonymous": false,
      "inputs": [
        {
          "indexed": true,
          "internalType": "bytes32",
          "name": "role",
          "type": "bytes32"
        },
        {
          "indexed": true,
          "internalType": "address",
          "name": "account",
          "type": "address"
        },
        {
          "indexed": true,
          "internalType": "address",
          "name": "sender",
          "type": "address"
        }
      ],
      "name": "RoleRevoked",
      "type": "event"
    },
    {
      "anonymous": false,
      "inputs": [
        {
          "indexed": true,
          "internalType": "uint256",
          "name": "dividendId",
          "type": "uint256"
        },
        {
          "indexed": false,
          "internalType": "uint256",
          "name": "startTime",
          "type": "uint256"
        },
        {
          "indexed": false,
          "internalType": "uint256",
          "name": "recordDate",
          "type": "uint256"
        },
        {
          "indexed": false,
          "internalType": "uint256",
          "name": "totalShare",
          "type": "uint256"
        }
      ],
      "name": "SetDividend",
      "type": "event"
    },
    {
      "anonymous": false,
      "inputs": [
        {
          "indexed": true,
          "internalType": "address",
          "name": "owner",
          "type": "address"
        },
        {
          "indexed": false,
          "internalType": "uint256",
          "name": "amount",
          "type": "uint256"
        }
      ],
      "name": "Stake",
      "type": "event"
    },
    {
      "anonymous": false,
      "inputs": [
        {
          "indexed": true,
          "internalType": "address",
          "name": "owner",
          "type": "address"
        },
        {
          "indexed": false,
          "internalType": "uint256",
          "name": "amount",
          "type": "uint256"
        },
        {
          "indexed": false,
          "internalType": "uint256",
          "name": "requestId",
          "type": "uint256"
        }
      ],
      "name": "Unstake",
      "type": "event"
    },
    {
      "anonymous": false,
      "inputs": [
        {
          "indexed": false,
          "internalType": "uint256",
          "name": "prev",
          "type": "uint256"
        },
        {
          "indexed": false,
          "internalType": "uint256",
          "name": "curr",
          "type": "uint256"
        }
      ],
      "name": "UpdateCoolDown",
      "type": "event"
    },
    {
      "anonymous": false,
      "inputs": [
        {
          "indexed": true,
          "internalType": "address",
          "name": "owner",
          "type": "address"
        },
        {
          "indexed": false,
          "internalType": "uint256",
          "name": "amount",
          "type": "uint256"
        }
      ],
      "name": "Withdraw",
      "type": "event"
    },
    {
      "inputs": [],
      "name": "DEFAULT_ADMIN_ROLE",
      "outputs": [
        {
          "internalType": "bytes32",
          "name": "",
          "type": "bytes32"
        }
      ],
      "stateMutability": "view",
      "type": "function"
    },
    {
      "inputs": [],
      "name": "MANAGER_ROLE",
      "outputs": [
        {
          "internalType": "bytes32",
          "name": "",
          "type": "bytes32"
        }
      ],
      "stateMutability": "view",
      "type": "function"
    },
    {
      "inputs": [
        {
          "internalType": "address",
          "name": "",
          "type": "address"
        }
      ],
      "name": "accumulativeUserReward",
      "outputs": [
        {
          "internalType": "uint256",
          "name": "",
          "type": "uint256"
        }
      ],
      "stateMutability": "view",
      "type": "function"
    },
    {
      "inputs": [
        {
          "internalType": "address",
          "name": "owner",
          "type": "address"
        },
        {
          "internalType": "uint256",
          "name": "epoch",
          "type": "uint256"
        }
      ],
      "name": "allocatedDividend",
      "outputs": [
        {
          "internalType": "bool",
          "name": "isPaid",
          "type": "bool"
        },
        {
          "internalType": "address[]",
          "name": "tokens",
          "type": "address[]"
        },
        {
          "internalType": "uint256[]",
          "name": "amounts",
          "type": "uint256[]"
        }
      ],
      "stateMutability": "view",
      "type": "function"
    },
    {
      "inputs": [
        {
          "internalType": "address",
          "name": "owner",
          "type": "address"
        }
      ],
      "name": "balanceOf",
      "outputs": [
        {
          "internalType": "uint256",
          "name": "amount",
          "type": "uint256"
        }
      ],
      "stateMutability": "view",
      "type": "function"
    },
    {
      "inputs": [
        {
          "internalType": "uint256",
          "name": "amount",
          "type": "uint256"
        },
        {
          "internalType": "uint256",
          "name": "startTime",
          "type": "uint256"
        }
      ],
      "name": "cancelReward",
      "outputs": [],
      "stateMutability": "nonpayable",
      "type": "function"
    },
    {
      "inputs": [
        {
          "internalType": "uint256",
          "name": "epoch",
          "type": "uint256"
        }
      ],
      "name": "claimDividend",
      "outputs": [],
      "stateMutability": "nonpayable",
      "type": "function"
    },
    {
      "inputs": [],
      "name": "claimReward",
      "outputs": [
        {
          "internalType": "uint256",
          "name": "amount",
          "type": "uint256"
        }
      ],
      "stateMutability": "nonpayable",
      "type": "function"
    },
    {
      "inputs": [
        {
          "internalType": "address",
          "name": "owner",
          "type": "address"
        }
      ],
      "name": "claimableReward",
      "outputs": [
        {
          "internalType": "uint256",
          "name": "",
          "type": "uint256"
        }
      ],
      "stateMutability": "view",
      "type": "function"
    },
    {
      "inputs": [],
      "name": "cooldownPeriod",
      "outputs": [
        {
          "internalType": "uint256",
          "name": "",
          "type": "uint256"
        }
      ],
      "stateMutability": "view",
      "type": "function"
    },
    {
      "inputs": [
        {
          "internalType": "address",
          "name": "token",
          "type": "address"
        },
        {
          "internalType": "uint256",
          "name": "amount",
          "type": "uint256"
        }
      ],
      "name": "depositDividend",
      "outputs": [],
      "stateMutability": "nonpayable",
      "type": "function"
    },
    {
      "inputs": [
        {
          "internalType": "uint256",
          "name": "amount",
          "type": "uint256"
        },
        {
          "internalType": "uint256",
          "name": "startTime",
          "type": "uint256"
        }
      ],
      "name": "depositReward",
      "outputs": [],
      "stateMutability": "nonpayable",
      "type": "function"
    },
    {
      "inputs": [
        {
          "internalType": "uint256",
          "name": "epoch",
          "type": "uint256"
        }
      ],
      "name": "dividendInfo",
      "outputs": [
        {
          "components": [
            {
              "internalType": "uint256",
              "name": "startDate",
              "type": "uint256"
            },
            {
              "internalType": "uint256",
              "name": "recordDate",
              "type": "uint256"
            },
            {
              "internalType": "uint256",
              "name": "totalShare",
              "type": "uint256"
            },
            {
              "internalType": "address[]",
              "name": "tokens",
              "type": "address[]"
            },
            {
              "internalType": "uint256[]",
              "name": "amounts",
              "type": "uint256[]"
            }
          ],
          "internalType": "struct IStakedStoneStruct.Dividend",
          "name": "",
          "type": "tuple"
        }
      ],
      "stateMutability": "view",
      "type": "function"
    },
    {
      "inputs": [],
      "name": "executeDividend",
      "outputs": [],
      "stateMutability": "nonpayable",
      "type": "function"
    },
    {
      "inputs": [
        {
          "internalType": "bytes32",
          "name": "role",
          "type": "bytes32"
        }
      ],
      "name": "getRoleAdmin",
      "outputs": [
        {
          "internalType": "bytes32",
          "name": "",
          "type": "bytes32"
        }
      ],
      "stateMutability": "view",
      "type": "function"
    },
    {
      "inputs": [
        {
          "internalType": "bytes32",
          "name": "role",
          "type": "bytes32"
        },
        {
          "internalType": "address",
          "name": "account",
          "type": "address"
        }
      ],
      "name": "grantRole",
      "outputs": [],
      "stateMutability": "nonpayable",
      "type": "function"
    },
    {
      "inputs": [
        {
          "internalType": "bytes32",
          "name": "role",
          "type": "bytes32"
        },
        {
          "internalType": "address",
          "name": "account",
          "type": "address"
        }
      ],
      "name": "hasRole",
      "outputs": [
        {
          "internalType": "bool",
          "name": "",
          "type": "bool"
        }
      ],
      "stateMutability": "view",
      "type": "function"
    },
    {
      "inputs": [
        {
          "internalType": "address",
          "name": "_stone",
          "type": "address"
        },
        {
          "internalType": "uint256",
          "name": "_openDate",
          "type": "uint256"
        }
      ],
      "name": "initialize",
      "outputs": [],
      "stateMutability": "nonpayable",
      "type": "function"
    },
    {
      "inputs": [
        {
          "internalType": "bytes[]",
          "name": "data",
          "type": "bytes[]"
        }
      ],
      "name": "multicall",
      "outputs": [
        {
          "internalType": "bytes[]",
          "name": "results",
          "type": "bytes[]"
        }
      ],
      "stateMutability": "nonpayable",
      "type": "function"
    },
    {
      "inputs": [],
      "name": "reStake",
      "outputs": [],
      "stateMutability": "nonpayable",
      "type": "function"
    },
    {
      "inputs": [],
      "name": "readyDividendInfo",
      "outputs": [
        {
          "components": [
            {
              "internalType": "uint256",
              "name": "startDate",
              "type": "uint256"
            },
            {
              "internalType": "uint256",
              "name": "recordDate",
              "type": "uint256"
            },
            {
              "internalType": "uint256",
              "name": "totalShare",
              "type": "uint256"
            },
            {
              "internalType": "address[]",
              "name": "tokens",
              "type": "address[]"
            },
            {
              "internalType": "uint256[]",
              "name": "amounts",
              "type": "uint256[]"
            }
          ],
          "internalType": "struct IStakedStoneStruct.Dividend",
          "name": "",
          "type": "tuple"
        }
      ],
      "stateMutability": "view",
      "type": "function"
    },
    {
      "inputs": [
        {
          "internalType": "bytes32",
          "name": "role",
          "type": "bytes32"
        },
        {
          "internalType": "address",
          "name": "account",
          "type": "address"
        }
      ],
      "name": "renounceRole",
      "outputs": [],
      "stateMutability": "nonpayable",
      "type": "function"
    },
    {
      "inputs": [
        {
          "internalType": "uint256",
          "name": "",
          "type": "uint256"
        }
      ],
      "name": "requestOwnerOf",
      "outputs": [
        {
          "internalType": "address",
          "name": "",
          "type": "address"
        }
      ],
      "stateMutability": "view",
      "type": "function"
    },
    {
      "inputs": [],
      "name": "resetDividendRecordDate",
      "outputs": [],
      "stateMutability": "nonpayable",
      "type": "function"
    },
    {
      "inputs": [
        {
          "internalType": "bytes32",
          "name": "role",
          "type": "bytes32"
        },
        {
          "internalType": "address",
          "name": "account",
          "type": "address"
        }
      ],
      "name": "revokeRole",
      "outputs": [],
      "stateMutability": "nonpayable",
      "type": "function"
    },
    {
      "inputs": [
        {
          "internalType": "uint256",
          "name": "period",
          "type": "uint256"
        }
      ],
      "name": "setCooldownPeriod",
      "outputs": [],
      "stateMutability": "nonpayable",
      "type": "function"
    },
    {
      "inputs": [],
      "name": "setDividendRecordDate",
      "outputs": [],
      "stateMutability": "nonpayable",
      "type": "function"
    },
    {
      "inputs": [
        {
          "internalType": "uint256",
          "name": "amount",
          "type": "uint256"
        }
      ],
      "name": "stake",
      "outputs": [],
      "stateMutability": "nonpayable",
      "type": "function"
    },
    {
      "inputs": [],
      "name": "stone",
      "outputs": [
        {
          "internalType": "address",
          "name": "",
          "type": "address"
        }
      ],
      "stateMutability": "view",
      "type": "function"
    },
    {
      "inputs": [
        {
          "internalType": "bytes4",
          "name": "interfaceId",
          "type": "bytes4"
        }
      ],
      "name": "supportsInterface",
      "outputs": [
        {
          "internalType": "bool",
          "name": "",
          "type": "bool"
        }
      ],
      "stateMutability": "view",
      "type": "function"
    },
    {
      "inputs": [],
      "name": "totalDividendEpoch",
      "outputs": [
        {
          "internalType": "uint256",
          "name": "",
          "type": "uint256"
        }
      ],
      "stateMutability": "view",
      "type": "function"
    },
    {
      "inputs": [
        {
          "internalType": "uint256",
          "name": "",
          "type": "uint256"
        }
      ],
      "name": "totalRewardPerWeek",
      "outputs": [
        {
          "internalType": "uint256",
          "name": "",
          "type": "uint256"
        }
      ],
      "stateMutability": "view",
      "type": "function"
    },
    {
      "inputs": [],
      "name": "totalSupply",
      "outputs": [
        {
          "internalType": "uint256",
          "name": "",
          "type": "uint256"
        }
      ],
      "stateMutability": "view",
      "type": "function"
    },
    {
      "inputs": [
        {
          "internalType": "uint256",
          "name": "amount",
          "type": "uint256"
        }
      ],
      "name": "unstake",
      "outputs": [],
      "stateMutability": "nonpayable",
      "type": "function"
    },
    {
      "inputs": [
        {
          "internalType": "address",
          "name": "owner",
          "type": "address"
        },
        {
          "internalType": "uint256",
          "name": "index",
          "type": "uint256"
        }
      ],
      "name": "unstakingRequestByIndex",
      "outputs": [
        {
          "components": [
            {
              "internalType": "uint256",
              "name": "id",
              "type": "uint256"
            },
            {
              "internalType": "uint256",
              "name": "amount",
              "type": "uint256"
            },
            {
              "internalType": "uint256",
              "name": "requestTs",
              "type": "uint256"
            },
            {
              "internalType": "bool",
              "name": "isClaimed",
              "type": "bool"
            }
          ],
          "internalType": "struct IStakedStoneStruct.UnstakingRequest",
          "name": "",
          "type": "tuple"
        }
      ],
      "stateMutability": "view",
      "type": "function"
    },
    {
      "inputs": [
        {
          "internalType": "address",
          "name": "",
          "type": "address"
        }
      ],
      "name": "unstakingRequestCounts",
      "outputs": [
        {
          "internalType": "uint256",
          "name": "",
          "type": "uint256"
        }
      ],
      "stateMutability": "view",
      "type": "function"
    },
    {
      "inputs": [
        {
          "internalType": "uint256",
          "name": "",
          "type": "uint256"
        }
      ],
      "name": "unstakingRequests",
      "outputs": [
        {
          "internalType": "uint256",
          "name": "id",
          "type": "uint256"
        },
        {
          "internalType": "uint256",
          "name": "amount",
          "type": "uint256"
        },
        {
          "internalType": "uint256",
          "name": "requestTs",
          "type": "uint256"
        },
        {
          "internalType": "bool",
          "name": "isClaimed",
          "type": "bool"
        }
      ],
      "stateMutability": "view",
      "type": "function"
    },
    {
      "inputs": [
        {
          "internalType": "uint256",
          "name": "requestId",
          "type": "uint256"
        }
      ],
      "name": "withdraw",
      "outputs": [
        {
          "internalType": "uint256",
          "name": "amount",
          "type": "uint256"
        }
      ],
      "stateMutability": "nonpayable",
      "type": "function"
    },
    {
      "stateMutability": "payable",
      "type": "receive"
    }
  ],
  "transactionHash": "0x4d33fb04874d688e724b59467296f024626c8d85663da13d64795f28456e1ae8",
  "args": [],
  "numDeployments": 1,
  "solcInputHash": "1806b842839a999417b4c4922fb686e5",
  "bytecode": "0x608060405234801561001057600080fd5b50614a1c806100206000396000f3fe6080604052600436106102895760003560e01c80639abd357211610153578063cd6dc687116100cb578063e95034251161007f578063ec87621c11610064578063ec87621c146107b8578063f37aecaa146107cd578063f86ee1631461082257600080fd5b8063e950342514610783578063eba8a266146107a357600080fd5b8063d547741f116100b0578063d547741f14610716578063e649872d14610736578063e748c0571461076357600080fd5b8063cd6dc687146106d6578063d428d9d6146106f657600080fd5b8063ac9650d811610122578063c415fcae11610107578063c415fcae14610651578063c43e25cf1461067e578063cc5c1e081461069357600080fd5b8063ac9650d81461060f578063b88a802f1461063c57600080fd5b80639abd3572146105a5578063a217fddf146105c5578063a694fc3a146105da578063a986123e146105fa57600080fd5b806336568abe1161020157806370a08231116101b557806380ea3de11161019a57806380ea3de11461051d57806381364c3d1461053d57806391d148541461055257600080fd5b806370a08231146104ad578063712262b7146104f057600080fd5b806351d57ade116101e657806351d57ade146104495780635bfc49081461045e5780635f78d6bd1461048d57600080fd5b806336568abe14610414578063465fdaa31461043457600080fd5b806318160ddd116102585780632e17de781161023d5780632e17de78146103b25780632e1a7d4d146103d45780632f2ff15d146103f457600080fd5b806318160ddd1461036d578063248a9ca31461038257600080fd5b80630167eb851461029557806301ffc9a7146102ec57806304646a491461031c57806309356b9d1461034057600080fd5b3661029057005b600080fd5b3480156102a157600080fd5b50609f546102c29073ffffffffffffffffffffffffffffffffffffffff1681565b60405173ffffffffffffffffffffffffffffffffffffffff90911681526020015b60405180910390f35b3480156102f857600080fd5b5061030c610307366004614219565b610864565b60405190151581526020016102e3565b34801561032857600080fd5b50610332609e5481565b6040519081526020016102e3565b34801561034c57600080fd5b5061036061035b36600461425b565b6108fd565b6040516102e391906142af565b34801561037957600080fd5b50609d54610332565b34801561038e57600080fd5b5061033261039d36600461425b565b60009081526065602052604090206001015490565b3480156103be57600080fd5b506103d26103cd36600461425b565b610a47565b005b3480156103e057600080fd5b506103326103ef36600461425b565b610c63565b34801561040057600080fd5b506103d261040f36600461438b565b610ea7565b34801561042057600080fd5b506103d261042f36600461438b565b610ed1565b34801561044057600080fd5b506103d2610f84565b34801561045557600080fd5b5061036061114d565b34801561046a57600080fd5b5061047e6104793660046143b7565b61126b565b6040516102e3939291906143e1565b34801561049957600080fd5b506103d26104a83660046143b7565b61149a565b3480156104b957600080fd5b506103326104c836600461447f565b73ffffffffffffffffffffffffffffffffffffffff166000908152609c602052604090205490565b3480156104fc57600080fd5b5061033261050b36600461447f565b60ab6020526000908152604090205481565b34801561052957600080fd5b506103d261053836600461425b565b6117c4565b34801561054957600080fd5b506103d261186b565b34801561055e57600080fd5b5061030c61056d36600461438b565b600091825260656020908152604080842073ffffffffffffffffffffffffffffffffffffffff93909316845291905290205460ff1690565b3480156105b157600080fd5b506103d26105c036600461425b565b611ab3565b3480156105d157600080fd5b50610332600081565b3480156105e657600080fd5b506103d26105f536600461425b565b611e3b565b34801561060657600080fd5b5060a654610332565b34801561061b57600080fd5b5061062f61062a36600461449a565b611ef6565b6040516102e39190614585565b34801561064857600080fd5b50610332611feb565b34801561065d57600080fd5b5061033261066c36600461447f565b60af6020526000908152604090205481565b34801561068a57600080fd5b506103d2612042565b34801561069f57600080fd5b506102c26106ae36600461425b565b60aa6020526000908152604090205473ffffffffffffffffffffffffffffffffffffffff1681565b3480156106e257600080fd5b506103d26106f13660046143b7565b61235d565b34801561070257600080fd5b506103d2610711366004614605565b612544565b34801561072257600080fd5b506103d261073136600461438b565b612707565b34801561074257600080fd5b5061033261075136600461425b565b60976020526000908152604090205481565b34801561076f57600080fd5b506103d261077e366004614605565b61272c565b34801561078f57600080fd5b5061033261079e36600461447f565b6128f8565b3480156107af57600080fd5b506103d26129b9565b3480156107c457600080fd5b506103326129f0565b3480156107d957600080fd5b506107ed6107e83660046143b7565b612a4a565b6040516102e3919081518152602080830151908201526040808301519082015260609182015115159181019190915260800190565b34801561082e57600080fd5b5061084261083d36600461425b565b612b0b565b60408051948552602085019390935291830152151560608201526080016102e3565b60007fffffffff0000000000000000000000000000000000000000000000000000000082167f7965db0b0000000000000000000000000000000000000000000000000000000014806108f757507f01ffc9a7000000000000000000000000000000000000000000000000000000007fffffffff000000000000000000000000000000000000000000000000000000008316145b92915050565b61092f6040518060a0016040528060008152602001600081526020016000815260200160608152602001606081525090565b60a6828154811061094257610942614627565b90600052602060002090600502016040518060a0016040529081600082015481526020016001820154815260200160028201548152602001600382018054806020026020016040519081016040528092919081815260200182805480156109df57602002820191906000526020600020905b815473ffffffffffffffffffffffffffffffffffffffff1681526001909101906020018083116109b4575b5050505050815260200160048201805480602002602001604051908101604052809291908181526020018280548015610a3757602002820191906000526020600020905b815481526020019060010190808311610a23575b5050505050815250509050919050565b336000610a52612b48565b9050610a5e8282612bb8565b610a6782612c42565b336000908152609c602052604081208054859290610a86908490614685565b9250508190555082609d6000828254610a9f9190614685565b909155505060a980546040805160808101825282815260208082018881524283850190815260006060850181815260018801895597815293517fdc471888e6136f84c49e531e9c9240dc4e3fba66da9d3a49e2af6202133683e0600488029081019190915591517fdc471888e6136f84c49e531e9c9240dc4e3fba66da9d3a49e2af6202133683e1830155517fdc471888e6136f84c49e531e9c9240dc4e3fba66da9d3a49e2af6202133683e282015594517fdc471888e6136f84c49e531e9c9240dc4e3fba66da9d3a49e2af6202133683e390950180547fffffffffffffffffffffffffffffffffffffffffffffffffffffffffffffff00169515159590951790945533815260ab909352822080549192919082610bbd8361469c565b90915550600083815260aa6020908152604080832080547fffffffffffffffffffffffff0000000000000000000000000000000000000000163390811790915580845260ac8352818420858552835281842087905586845260ad835292819020849055805189815291820186905292935090917ff960dbf9e5d0682f7a298ed974e33a28b4464914b7a2bfac12ae419a9afeb28091015b60405180910390a25050505050565b60008060a98381548110610c7957610c79614627565b60009182526020918290206040805160808101825260049093029091018054835260018101549383019390935260028301549082015260039091015460ff161580156060830152909150610d2e576040517f08c379a000000000000000000000000000000000000000000000000000000000815260206004820152600f60248201527f414c524541445920434c41494d4544000000000000000000000000000000000060448201526064015b60405180910390fd5b600083815260aa602052604090205473ffffffffffffffffffffffffffffffffffffffff163314610dbb576040517f08c379a000000000000000000000000000000000000000000000000000000000815260206004820152600960248201527f4e4f54204f574e455200000000000000000000000000000000000000000000006044820152606401610d25565b42609e548260400151610dce91906146d5565b1115610e36576040517f08c379a000000000000000000000000000000000000000000000000000000000815260206004820152600d60248201527f4e45454420434f4f4c444f574e000000000000000000000000000000000000006044820152606401610d25565b6020810151609f54909250610e629073ffffffffffffffffffffffffffffffffffffffff163384612c74565b610e6c3384612d48565b60405182815233907f884edad9ce6fa2440d8a54cc123490eb96d2768479d49ff9c7366125a94243649060200160405180910390a250919050565b600082815260656020526040902060010154610ec281612e75565b610ecc8383612e82565b505050565b73ffffffffffffffffffffffffffffffffffffffff81163314610f76576040517f08c379a000000000000000000000000000000000000000000000000000000000815260206004820152602f60248201527f416363657373436f6e74726f6c3a2063616e206f6e6c792072656e6f756e636560448201527f20726f6c657320666f722073656c6600000000000000000000000000000000006064820152608401610d25565b610f808282612f76565b5050565b604051602001610fc59060208082526007908201527f4d414e4147455200000000000000000000000000000000000000000000000000604082015260600190565b60405160208183030381529060405280519060200120610fe481612e75565b60a25461104d576040517f08c379a000000000000000000000000000000000000000000000000000000000815260206004820152600760248201527f4e4f5420534554000000000000000000000000000000000000000000000000006044820152606401610d25565b60005b60a4548110156110f057600060a1600301828154811061107257611072614627565b600091825260208220015460a5805473ffffffffffffffffffffffffffffffffffffffff909216935090849081106110ac576110ac614627565b60009182526020909120015490506110db73ffffffffffffffffffffffffffffffffffffffff83163383612c74565b505080806110e89061469c565b915050611050565b50600060a181815560a282905560a38290559061110e60a482614125565b61111c600483016000614125565b505060a6546040517f89c1ba38b85b2ef703b7be0205683eb60bad532e0393ea83035e234a1473791090600090a250565b61117f6040518060a0016040528060008152602001600081526020016000815260200160608152602001606081525090565b6040805160a08101825260a18054825260a25460208084019190915260a3548385015260a480548551818402810184019096528086529394929360608601939283018282801561120557602002820191906000526020600020905b815473ffffffffffffffffffffffffffffffffffffffff1681526001909101906020018083116111da575b505050505081526020016004820180548060200260200160405190810160405280929190818152602001828054801561125d57602002820191906000526020600020905b815481526020019060010190808311611249575b505050505081525050905090565b6000606080600060a6858154811061128557611285614627565b90600052602060002090600502016040518060a00160405290816000820154815260200160018201548152602001600282015481526020016003820180548060200260200160405190810160405280929190818152602001828054801561132257602002820191906000526020600020905b815473ffffffffffffffffffffffffffffffffffffffff1681526001909101906020018083116112f7575b505050505081526020016004820180548060200260200160405190810160405280929190818152602001828054801561137a57602002820191906000526020600020905b815481526020019060010190808311611366575b50505050508152505090508060600151925080606001515167ffffffffffffffff8111156113aa576113aa6146ed565b6040519080825280602002602001820160405280156113d3578160200160208202803683370190505b5073ffffffffffffffffffffffffffffffffffffffff8716600090815260a86020908152604080832089845290915281205460ff169550909250611418878784613031565b905080611426575050611493565b604082015160005b845181101561148e5761145f8460800151828151811061145057611450614627565b6020026020010151848461310e565b85828151811061147157611471614627565b6020908102919091010152806114868161469c565b91505061142e565b505050505b9250925092565b6040516020016114db9060208082526007908201527f4d414e4147455200000000000000000000000000000000000000000000000000604082015260600190565b604051602081830303815290604052805190602001206114fa81612e75565b60a254611563576040517f08c379a000000000000000000000000000000000000000000000000000000000815260206004820152600760248201527f4e4f5420534554000000000000000000000000000000000000000000000000006044820152606401610d25565b600082116115cd576040517f08c379a000000000000000000000000000000000000000000000000000000000815260206004820152600860248201527f4e4f54205a45524f0000000000000000000000000000000000000000000000006044820152606401610d25565b6115ef73ffffffffffffffffffffffffffffffffffffffff84163330856131df565b60005b60a4548110156116de57600060a1600301828154811061161457611614614627565b60009182526020909120015473ffffffffffffffffffffffffffffffffffffffff90811691508516811461164857506116cc565b8360a1600401838154811061165f5761165f614627565b90600052602060002001600082825461167891906146d5565b909155505060a6546040805173ffffffffffffffffffffffffffffffffffffffff88168152602081018790527f42aeda043a53e048de3d1643589f86a93851f5b509fc4eef44e804713ec849b99101610c54565b806116d68161469c565b9150506115f2565b5060a4805460018082019092557fe434dc35da084cf8d7e8186688ea2dacb53db7003d427af3abf351bd9d0a4e8d0180547fffffffffffffffffffffffff00000000000000000000000000000000000000001673ffffffffffffffffffffffffffffffffffffffff861690811790915560a5805492830181556000527fb29a2b3b6f2ff1b765777a231725941da5072cc4fcc30ac4a2ce09706e8ddeff90910183905560a654604080519283526020830185905290917f42aeda043a53e048de3d1643589f86a93851f5b509fc4eef44e804713ec849b9910160405180910390a2505050565b6040516020016118059060208082526007908201527f4d414e4147455200000000000000000000000000000000000000000000000000604082015260600190565b6040516020818303038152906040528051906020012061182481612e75565b609e80549083905560408051828152602081018590527fe54abd71d5bfcd010a9afd9b82fa4f6d9873e50f949a087bd32aff503a8a8b8791015b60405180910390a1505050565b6040516020016118ac9060208082526007908201527f4d414e4147455200000000000000000000000000000000000000000000000000604082015260600190565b604051602081830303815290604052805190602001206118cb81612e75565b60a054421015611937576040517f08c379a000000000000000000000000000000000000000000000000000000000815260206004820152600960248201527f4e4f5420535441525400000000000000000000000000000000000000000000006044820152606401610d25565b61193f612b48565b5060a254156119aa576040517f08c379a000000000000000000000000000000000000000000000000000000000815260206004820152600b60248201527f414c5245414459205345540000000000000000000000000000000000000000006044820152606401610d25565b6000609b5411611a16576040517f08c379a000000000000000000000000000000000000000000000000000000000815260206004820152601460248201527f544f54414c205348415245204e4f54205a45524f0000000000000000000000006044820152606401610d25565b60a654611a255760a054611a58565b60a68054611a3590600190614685565b81548110611a4557611a45614627565b9060005260206000209060050201600101545b60a18190554260a2819055609b5460a381905560a65460408051948552602085019390935291830152907f8084edb4cf8c3ad32f1f26a4b075ae554a2a5283e0965f45ecc628f6b5dbc786906060015b60405180910390a250565b336000611abe612b48565b9050611aca8282612bb8565b611ad382612c42565b33600090815260a8602090815260408083208684528252918290208251808401909352805460ff16158015845260019091015491830191909152611b73576040517f08c379a000000000000000000000000000000000000000000000000000000000815260206004820152600c60248201527f414c5245414459205041494400000000000000000000000000000000000000006044820152606401610d25565b6000816020015111611be1576040517f08c379a000000000000000000000000000000000000000000000000000000000815260206004820152600860248201527f4e4f2053484152450000000000000000000000000000000000000000000000006044820152606401610d25565b600060a68581548110611bf657611bf6614627565b90600052602060002090600502016040518060a001604052908160008201548152602001600182015481526020016002820154815260200160038201805480602002602001604051908101604052809291908181526020018280548015611c9357602002820191906000526020600020905b815473ffffffffffffffffffffffffffffffffffffffff168152600190910190602001808311611c68575b5050505050815260200160048201805480602002602001604051908101604052809291908181526020018280548015611ceb57602002820191906000526020600020905b815481526020019060010190808311611cd7575b50505091909252505050604081015190915060005b826060015151811015611dee57600083606001518281518110611d2557611d25614627565b60200260200101519050600084608001518381518110611d4757611d47614627565b602002602001015190506000611d628288602001518761310e565b9050611d8573ffffffffffffffffffffffffffffffffffffffff84163383612c74565b6040805173ffffffffffffffffffffffffffffffffffffffff85168152602081018390528b9133917f1b21e5e267d298d0cfa6802a843faf3c104b8ec7d575be035bfbfbc0cb9b878f910160405180910390a35050508080611de69061469c565b915050611d00565b505033600090815260a8602090815260408083209783529690529490942080547fffffffffffffffffffffffffffffffffffffffffffffffffffffffffffffff0016600117905550505050565b336000611e46612b48565b9050611e528282612bb8565b611e5b82612c42565b60a054421015611ec7576040517f08c379a000000000000000000000000000000000000000000000000000000000815260206004820152600960248201527f4e4f5420535441525400000000000000000000000000000000000000000000006044820152606401610d25565b609f54611eec9073ffffffffffffffffffffffffffffffffffffffff163330866131df565b610ecc3384613243565b60608167ffffffffffffffff811115611f1157611f116146ed565b604051908082528060200260200182016040528015611f4457816020015b6060815260200190600190039081611f2f5790505b50905060005b82811015611fe457611fb430858584818110611f6857611f68614627565b9050602002810190611f7a919061471c565b8080601f0160208091040260200160405190810160405280939291908181526020018383808284376000920191909152506132e592505050565b828281518110611fc657611fc6614627565b60200260200101819052508080611fdc9061469c565b915050611f4a565b5092915050565b6000336000611ff8612b48565b90506120048282612bb8565b61200d82612c42565b6120163361330a565b609f5490935061203d9073ffffffffffffffffffffffffffffffffffffffff163385612c74565b505090565b6040516020016120839060208082526007908201527f4d414e4147455200000000000000000000000000000000000000000000000000604082015260600190565b604051602081830303815290604052805190602001206120a281612e75565b60a25461210b576040517f08c379a000000000000000000000000000000000000000000000000000000000815260206004820152600760248201527f4e4f5420534554000000000000000000000000000000000000000000000000006044820152606401610d25565b60a454612174576040517f08c379a000000000000000000000000000000000000000000000000000000000815260206004820152600a60248201527f4e4f204445504f534954000000000000000000000000000000000000000000006044820152606401610d25565b61217c612b48565b506040805160a08101825260a154815260a25460208083019190915260a3548284015260a4805484518184028101840190955280855260a69460608501939092919083018282801561220457602002820191906000526020600020905b815473ffffffffffffffffffffffffffffffffffffffff1681526001909101906020018083116121d9575b5050505050815260200160a160040180548060200260200160405190810160405280929190818152602001828054801561225d57602002820191906000526020600020905b815481526020019060010190808311612249575b5050509190925250508154600181810184556000938452602093849020835160059093020191825583830151908201556040820151600282015560608201518051929391926122b29260038501920190614143565b50608082015180516122ce9160048401916020909101906141c9565b50505060a160020154609b60008282546122e89190614685565b9091555050600060a181815560a282905560a38290559061230a60a482614125565b612318600483016000614125565b505060a65461232990600190614685565b6040517fa6e0490be65d6d4bce57d7b18ba16b514a5b039e85ed295305d1e9e63f557dec90611aa89060a49060a590614788565b600054610100900460ff161580801561237d5750600054600160ff909116105b806123975750303b158015612397575060005460ff166001145b612423576040517f08c379a000000000000000000000000000000000000000000000000000000000815260206004820152602e60248201527f496e697469616c697a61626c653a20636f6e747261637420697320616c72656160448201527f647920696e697469616c697a65640000000000000000000000000000000000006064820152608401610d25565b600080547fffffffffffffffffffffffffffffffffffffffffffffffffffffffffffffff00166001179055801561248157600080547fffffffffffffffffffffffffffffffffffffffffffffffffffffffffffff00ff166101001790555b609f80547fffffffffffffffffffffffff00000000000000000000000000000000000000001673ffffffffffffffffffffffffffffffffffffffff851617905562093a80609e5560a082905560988290556124da613395565b6124e560003361342e565b8015610ecc57600080547fffffffffffffffffffffffffffffffffffffffffffffffffffffffffffff00ff169055604051600181527f7f26b83ff96e1f2b6a682f133852f6798a09c465da95921460cefb38474024989060200161185e565b6040516020016125859060208082526007908201527f4d414e4147455200000000000000000000000000000000000000000000000000604082015260600190565b604051602081830303815290604052805190602001206125a481612e75565b6125b162093a8083614853565b15612618576040517f08c379a000000000000000000000000000000000000000000000000000000000815260206004820152601760248201527f737461727454696d6520252037206461797320213d20300000000000000000006044820152606401610d25565b42821015612682576040517f08c379a000000000000000000000000000000000000000000000000000000000815260206004820152600860248201527f544f4f204c4154450000000000000000000000000000000000000000000000006044820152606401610d25565b609f546126a79073ffffffffffffffffffffffffffffffffffffffff163330866131df565b600082815260976020526040812080548592906126c59084906146d5565b9091555050604051838152829033907f11df96c8b9e61be6108e9001f87a321a1aa58b0fffbb02a3e5cb1a490de7f875906020015b60405180910390a3505050565b60008281526065602052604090206001015461272281612e75565b610ecc8383612f76565b60405160200161276d9060208082526007908201527f4d414e4147455200000000000000000000000000000000000000000000000000604082015260600190565b6040516020818303038152906040528051906020012061278c81612e75565b428210156127f6576040517f08c379a000000000000000000000000000000000000000000000000000000000815260206004820152600860248201527f544f4f204c4154450000000000000000000000000000000000000000000000006044820152606401610d25565b60008281526097602052604081208054859290612814908490614685565b9091555050609f546040517fa9059cbb0000000000000000000000000000000000000000000000000000000081523360048201526024810185905273ffffffffffffffffffffffffffffffffffffffff9091169063a9059cbb90604401602060405180830381600087803b15801561288b57600080fd5b505af115801561289f573d6000803e3d6000fd5b505050506040513d601f19601f820116820180604052508101906128c39190614867565b50604051838152829033907fff16e0f040677e89c03a5b04dddd1656d379b6a72ce0faf921c47af7d2857404906020016126fa565b600080609a54612906613438565b61291091906146d5565b73ffffffffffffffffffffffffffffffffffffffff8416600090815260ae60209081526040918290208251808401909352805480845260019091015491830182905292935090916129a79061296485613534565b61296e9190614685565b73ffffffffffffffffffffffffffffffffffffffff87166000908152609c60205260409020546c0100000000000000000000000061310e565b6129b191906146d5565b949350505050565b3360006129c4612b48565b90506129d08282612bb8565b6129d982612c42565b60006129e43361330a565b9050610ecc3382613243565b604051602001612a319060208082526007908201527f4d414e4147455200000000000000000000000000000000000000000000000000604082015260600190565b6040516020818303038152906040528051906020012081565b612a7760405180608001604052806000815260200160008152602001600081526020016000151581525090565b73ffffffffffffffffffffffffffffffffffffffff8316600090815260ac6020908152604080832085845290915290205460a9805482908110612abc57612abc614627565b60009182526020918290206040805160808101825260049093029091018054835260018101549383019390935260028301549082015260039091015460ff161515606082015291505092915050565b60a98181548110612b1b57600080fd5b60009182526020909120600490910201805460018201546002830154600390930154919350919060ff1684565b60985460009081612b57613438565b9050612b6281613576565b9050612b6d81613534565b60998190559250428210612b8057505090565b609d54612b8d8342614685565b612b979190614889565b609b6000828254612ba891906146d5565b9091555050426098555090919050565b73ffffffffffffffffffffffffffffffffffffffff8216600090815260ae602052604090208054612c2690612bed9084614685565b73ffffffffffffffffffffffffffffffffffffffff85166000908152609c60205260409020546c0100000000000000000000000061310e565b816001016000828254612c3991906146d5565b90915550505550565b612c4b816135c3565b73ffffffffffffffffffffffffffffffffffffffff16600090815260a760205260409020429055565b60405173ffffffffffffffffffffffffffffffffffffffff8316602482015260448101829052610ecc9084907fa9059cbb00000000000000000000000000000000000000000000000000000000906064015b604080517fffffffffffffffffffffffffffffffffffffffffffffffffffffffffffffffe08184030181529190526020810180517bffffffffffffffffffffffffffffffffffffffffffffffffffffffff167fffffffff00000000000000000000000000000000000000000000000000000000909316929092179091526139d7565b600160a98281548110612d5d57612d5d614627565b6000918252602080832060049290920290910160030180547fffffffffffffffffffffffffffffffffffffffffffffffffffffffffffffff00169315159390931790925573ffffffffffffffffffffffffffffffffffffffff8416815260ab9091526040812080548290612dd0906148c6565b9182905550600083815260ad6020526040902054909150808214612e355773ffffffffffffffffffffffffffffffffffffffff8416600090815260ac60209081526040808320858452825280832054848452818420819055835260ad90915290208190555b50600091825260ad6020908152604080842084905573ffffffffffffffffffffffffffffffffffffffff909416835260ac81528383209183525290812055565b612e7f8133613ae3565b50565b600082815260656020908152604080832073ffffffffffffffffffffffffffffffffffffffff8516845290915290205460ff16610f8057600082815260656020908152604080832073ffffffffffffffffffffffffffffffffffffffff85168452909152902080547fffffffffffffffffffffffffffffffffffffffffffffffffffffffffffffff00166001179055612f183390565b73ffffffffffffffffffffffffffffffffffffffff168173ffffffffffffffffffffffffffffffffffffffff16837f2f8788117e7eff1d82e926ec794901d17c78024a50270940304540a733656f0d60405160405180910390a45050565b600082815260656020908152604080832073ffffffffffffffffffffffffffffffffffffffff8516845290915290205460ff1615610f8057600082815260656020908152604080832073ffffffffffffffffffffffffffffffffffffffff8516808552925280832080547fffffffffffffffffffffffffffffffffffffffffffffffffffffffffffffff0016905551339285917ff6391f5c32d9c69d2a47ea670b442974b53935d1edc7fd64eb21e047a839171b9190a45050565b73ffffffffffffffffffffffffffffffffffffffff8316600090815260a860209081526040808320858452909152902060010154801561307057613107565b73ffffffffffffffffffffffffffffffffffffffff84166000908152609c6020526040902054806130a15750613107565b73ffffffffffffffffffffffffffffffffffffffff8516600090815260a7602052604081205484516130d39190613bb5565b9050808460200151116130e7575050613107565b818185602001516130f89190614685565b6131029190614889565b925050505b9392505050565b600080807fffffffffffffffffffffffffffffffffffffffffffffffffffffffffffffffff8587098587029250828110838203039150508060001415613166576000841161315b57600080fd5b508290049050613107565b80841161317257600080fd5b6000848688096000868103871696879004966002600389028118808a02820302808a02820302808a02820302808a02820302808a02820302808a02909103029181900381900460010186841190950394909402919094039290920491909117919091029150509392505050565b60405173ffffffffffffffffffffffffffffffffffffffff8085166024830152831660448201526064810182905261323d9085907f23b872dd0000000000000000000000000000000000000000000000000000000090608401612cc6565b50505050565b73ffffffffffffffffffffffffffffffffffffffff82166000908152609c6020526040812080548392906132789084906146d5565b9250508190555080609d600082825461329191906146d5565b909155505060405181815273ffffffffffffffffffffffffffffffffffffffff8316907febedb8b3c678666e7f36970bc8f57abf6d8fa2e828c0da91ea5b75bf68ed101a9060200160405180910390a25050565b606061310783836040518060600160405280602781526020016149c060279139613bcc565b73ffffffffffffffffffffffffffffffffffffffff8116600090815260ae6020908152604080832060010180549084905533845260af90925282208054919283926133569084906146d5565b909155505060405181815233907f47cee97cb7acd717b3c0aa1435d004cd5b3c8c57d70dbceb4e4458bbd60e39d49060200160405180910390a2919050565b600054610100900460ff1661342c576040517f08c379a000000000000000000000000000000000000000000000000000000000815260206004820152602b60248201527f496e697469616c697a61626c653a20636f6e7472616374206973206e6f74206960448201527f6e697469616c697a696e670000000000000000000000000000000000000000006064820152608401610d25565b565b610f808282612e82565b6098546000908161344c62093a80426148fb565b6134599062093a80614889565b9050808210156134f257600061347262093a80846148fb565b61347f9062093a80614889565b9050805b828110156134ef57600061349a8262093a806146d5565b905062093a806134aa8683614685565b6000848152609760205260409020546134c39190614889565b6134cd91906148fb565b6134d790876146d5565b955093506134e862093a80826146d5565b9050613483565b50505b62093a806135008342614685565b6000838152609760205260409020546135199190614889565b61352391906148fb565b61352d90846146d5565b9250505090565b609954811580159061354857506000609d54115b1561357157613567826c01000000000000000000000000609d5461310e565b6108f790826146d5565b919050565b6000609d54600014156135a25781609a600082825461359591906146d5565b9091555060009392505050565b609a54156135bf57609a546135b790836146d5565b6000609a5591505b5090565b73ffffffffffffffffffffffffffffffffffffffff81166000908152609c6020526040902054806135f2575050565b73ffffffffffffffffffffffffffffffffffffffff8216600090815260a7602052604090205460a654613681578161362a8242614685565b6136349190614889565b73ffffffffffffffffffffffffffffffffffffffff8416600090815260a860209081526040808320838052909152812060010180549091906136779084906146d5565b9091555050505050565b60a65460009061369390600190614685565b9050600060a682815481106136aa576136aa614627565b90600052602060002090600502016040518060a00160405290816000820154815260200160018201548152602001600282015481526020016003820180548060200260200160405190810160405280929190818152602001828054801561374757602002820191906000526020600020905b815473ffffffffffffffffffffffffffffffffffffffff16815260019091019060200180831161371c575b505050505081526020016004820180548060200260200160405190810160405280929190818152602001828054801561379f57602002820191906000526020600020905b81548152602001906001019080831161378b575b505050505081525050905060006137ba826020015185613bb5565b6137c49042614685565b90506137d08582614889565b73ffffffffffffffffffffffffffffffffffffffff8716600090815260a860205260408120906138018660016146d5565b8152602001908152602001600020600101600082825461382191906146d5565b90915550505b83826020015111156139cf57815161383f9085613bb5565b826020015161384e9190614685565b905061385a8582614889565b73ffffffffffffffffffffffffffffffffffffffff8716600090815260a8602090815260408083208784529091528120600101805490919061389d9084906146d5565b9091555050826138ac576139cf565b60a66138b7846148c6565b935083815481106138ca576138ca614627565b90600052602060002090600502016040518060a00160405290816000820154815260200160018201548152602001600282015481526020016003820180548060200260200160405190810160405280929190818152602001828054801561396757602002820191906000526020600020905b815473ffffffffffffffffffffffffffffffffffffffff16815260019091019060200180831161393c575b50505050508152602001600482018054806020026020016040519081016040528092919081815260200182805480156139bf57602002820191906000526020600020905b8154815260200190600101908083116139ab575b5050505050815250509150613827565b505050505050565b6000613a39826040518060400160405280602081526020017f5361666545524332303a206c6f772d6c6576656c2063616c6c206661696c65648152508573ffffffffffffffffffffffffffffffffffffffff16613cea9092919063ffffffff16565b805190915015610ecc5780806020019051810190613a579190614867565b610ecc576040517f08c379a000000000000000000000000000000000000000000000000000000000815260206004820152602a60248201527f5361666545524332303a204552433230206f7065726174696f6e20646964206e60448201527f6f742073756363656564000000000000000000000000000000000000000000006064820152608401610d25565b600082815260656020908152604080832073ffffffffffffffffffffffffffffffffffffffff8516845290915290205460ff16610f8057613b3b8173ffffffffffffffffffffffffffffffffffffffff166014613cf9565b613b46836020613cf9565b604051602001613b5792919061490f565b604080517fffffffffffffffffffffffffffffffffffffffffffffffffffffffffffffffe0818403018152908290527f08c379a0000000000000000000000000000000000000000000000000000000008252610d2591600401614990565b600081831015613bc55781613107565b5090919050565b606073ffffffffffffffffffffffffffffffffffffffff84163b613c72576040517f08c379a000000000000000000000000000000000000000000000000000000000815260206004820152602660248201527f416464726573733a2064656c65676174652063616c6c20746f206e6f6e2d636f60448201527f6e747261637400000000000000000000000000000000000000000000000000006064820152608401610d25565b6000808573ffffffffffffffffffffffffffffffffffffffff1685604051613c9a91906149a3565b600060405180830381855af49150503d8060008114613cd5576040519150601f19603f3d011682016040523d82523d6000602084013e613cda565b606091505b5091509150613102828286613f3c565b60606129b18484600085613f8f565b60606000613d08836002614889565b613d139060026146d5565b67ffffffffffffffff811115613d2b57613d2b6146ed565b6040519080825280601f01601f191660200182016040528015613d55576020820181803683370190505b5090507f300000000000000000000000000000000000000000000000000000000000000081600081518110613d8c57613d8c614627565b60200101907effffffffffffffffffffffffffffffffffffffffffffffffffffffffffffff1916908160001a9053507f780000000000000000000000000000000000000000000000000000000000000081600181518110613def57613def614627565b60200101907effffffffffffffffffffffffffffffffffffffffffffffffffffffffffffff1916908160001a9053506000613e2b846002614889565b613e369060016146d5565b90505b6001811115613ed3577f303132333435363738396162636465660000000000000000000000000000000085600f1660108110613e7757613e77614627565b1a60f81b828281518110613e8d57613e8d614627565b60200101907effffffffffffffffffffffffffffffffffffffffffffffffffffffffffffff1916908160001a90535060049490941c93613ecc816148c6565b9050613e39565b508315613107576040517f08c379a000000000000000000000000000000000000000000000000000000000815260206004820181905260248201527f537472696e67733a20686578206c656e67746820696e73756666696369656e746044820152606401610d25565b60608315613f4b575081613107565b825115613f5b5782518084602001fd5b816040517f08c379a0000000000000000000000000000000000000000000000000000000008152600401610d259190614990565b606082471015614021576040517f08c379a000000000000000000000000000000000000000000000000000000000815260206004820152602660248201527f416464726573733a20696e73756666696369656e742062616c616e636520666f60448201527f722063616c6c00000000000000000000000000000000000000000000000000006064820152608401610d25565b73ffffffffffffffffffffffffffffffffffffffff85163b61409f576040517f08c379a000000000000000000000000000000000000000000000000000000000815260206004820152601d60248201527f416464726573733a2063616c6c20746f206e6f6e2d636f6e74726163740000006044820152606401610d25565b6000808673ffffffffffffffffffffffffffffffffffffffff1685876040516140c891906149a3565b60006040518083038185875af1925050503d8060008114614105576040519150601f19603f3d011682016040523d82523d6000602084013e61410a565b606091505b509150915061411a828286613f3c565b979650505050505050565b5080546000825590600052602060002090810190612e7f9190614204565b8280548282559060005260206000209081019282156141bd579160200282015b828111156141bd57825182547fffffffffffffffffffffffff00000000000000000000000000000000000000001673ffffffffffffffffffffffffffffffffffffffff909116178255602090920191600190910190614163565b506135bf929150614204565b8280548282559060005260206000209081019282156141bd579160200282015b828111156141bd5782518255916020019190600101906141e9565b5b808211156135bf5760008155600101614205565b60006020828403121561422b57600080fd5b81357fffffffff000000000000000000000000000000000000000000000000000000008116811461310757600080fd5b60006020828403121561426d57600080fd5b5035919050565b600081518084526020808501945080840160005b838110156142a457815187529582019590820190600101614288565b509495945050505050565b6000602080835260c0830184518285015281850151604085015260408501516060850152606085015160a0608086015281815180845260e0870191508483019350600092505b8083101561432b57835173ffffffffffffffffffffffffffffffffffffffff1682529284019260019290920191908401906142f5565b50608087015193507fffffffffffffffffffffffffffffffffffffffffffffffffffffffffffffffe08682030160a087015261411a8185614274565b803573ffffffffffffffffffffffffffffffffffffffff8116811461357157600080fd5b6000806040838503121561439e57600080fd5b823591506143ae60208401614367565b90509250929050565b600080604083850312156143ca57600080fd5b6143d383614367565b946020939093013593505050565b60006060820185151583526020606081850152818651808452608086019150828801935060005b8181101561443a57845173ffffffffffffffffffffffffffffffffffffffff1683529383019391830191600101614408565b50508481036040860152855180825290820192508186019060005b8181101561447157825185529383019391830191600101614455565b509298975050505050505050565b60006020828403121561449157600080fd5b61310782614367565b600080602083850312156144ad57600080fd5b823567ffffffffffffffff808211156144c557600080fd5b818501915085601f8301126144d957600080fd5b8135818111156144e857600080fd5b8660208260051b85010111156144fd57600080fd5b60209290920196919550909350505050565b60005b8381101561452a578181015183820152602001614512565b8381111561323d5750506000910152565b6000815180845261455381602086016020860161450f565b601f017fffffffffffffffffffffffffffffffffffffffffffffffffffffffffffffffe0169290920160200192915050565b6000602080830181845280855180835260408601915060408160051b870101925083870160005b828110156145f8577fffffffffffffffffffffffffffffffffffffffffffffffffffffffffffffffc08886030184526145e685835161453b565b945092850192908501906001016145ac565b5092979650505050505050565b6000806040838503121561461857600080fd5b50508035926020909101359150565b7f4e487b7100000000000000000000000000000000000000000000000000000000600052603260045260246000fd5b7f4e487b7100000000000000000000000000000000000000000000000000000000600052601160045260246000fd5b60008282101561469757614697614656565b500390565b60007fffffffffffffffffffffffffffffffffffffffffffffffffffffffffffffffff8214156146ce576146ce614656565b5060010190565b600082198211156146e8576146e8614656565b500190565b7f4e487b7100000000000000000000000000000000000000000000000000000000600052604160045260246000fd5b60008083357fffffffffffffffffffffffffffffffffffffffffffffffffffffffffffffffe184360301811261475157600080fd5b83018035915067ffffffffffffffff82111561476c57600080fd5b60200191503681900382131561478157600080fd5b9250929050565b60006040820160408352808554808352606085019150600092508683526020808420845b838110156147de57815473ffffffffffffffffffffffffffffffffffffffff16855293820193600191820191016147ac565b505085830381870152865480845287855281852093820192505b80851015614817578354835260019485019490930192918101916147f8565b5090979650505050505050565b7f4e487b7100000000000000000000000000000000000000000000000000000000600052601260045260246000fd5b60008261486257614862614824565b500690565b60006020828403121561487957600080fd5b8151801515811461310757600080fd5b6000817fffffffffffffffffffffffffffffffffffffffffffffffffffffffffffffffff04831182151516156148c1576148c1614656565b500290565b6000816148d5576148d5614656565b507fffffffffffffffffffffffffffffffffffffffffffffffffffffffffffffffff0190565b60008261490a5761490a614824565b500490565b7f416363657373436f6e74726f6c3a206163636f756e742000000000000000000081526000835161494781601785016020880161450f565b7f206973206d697373696e6720726f6c6520000000000000000000000000000000601791840191820152835161498481602884016020880161450f565b01602801949350505050565b602081526000613107602083018461453b565b600082516149b581846020870161450f565b919091019291505056fe416464726573733a206c6f772d6c6576656c2064656c65676174652063616c6c206661696c6564a2646970667358221220f8abc2178c97f602f15f32bd4fc4cc76a5494104c7870d61c85dfd132fb9b6c064736f6c63430008090033",
  "devdoc": {
    "kind": "dev",
    "methods": {
      "depositReward(uint256,uint256)": {
        "params": {
          "amount": "amount to deposit",
          "startTime": "The start time of distribution. should always satisfy UTC 00:00. (startTime % 604,800 == 0)"
        }
      },
      "getRoleAdmin(bytes32)": {
        "details": "Returns the admin role that controls `role`. See {grantRole} and {revokeRole}. To change a role's admin, use {_setRoleAdmin}."
      },
      "grantRole(bytes32,address)": {
        "details": "Grants `role` to `account`. If `account` had not been already granted `role`, emits a {RoleGranted} event. Requirements: - the caller must have ``role``'s admin role. May emit a {RoleGranted} event."
      },
      "hasRole(bytes32,address)": {
        "details": "Returns `true` if `account` has been granted `role`."
      },
      "multicall(bytes[])": {
        "details": "Receives and executes a batch of function calls on this contract."
      },
      "renounceRole(bytes32,address)": {
        "details": "Revokes `role` from the calling account. Roles are often managed via {grantRole} and {revokeRole}: this function's purpose is to provide a mechanism for accounts to lose their privileges if they are compromised (such as when a trusted device is misplaced). If the calling account had been revoked `role`, emits a {RoleRevoked} event. Requirements: - the caller must be `account`. May emit a {RoleRevoked} event."
      },
      "revokeRole(bytes32,address)": {
        "details": "Revokes `role` from `account`. If `account` had been granted `role`, emits a {RoleRevoked} event. Requirements: - the caller must have ``role``'s admin role. May emit a {RoleRevoked} event."
      },
      "supportsInterface(bytes4)": {
        "details": "See {IERC165-supportsInterface}."
      }
    },
    "version": 1
  },
  "userdoc": {
    "kind": "user",
    "methods": {
      "accumulativeUserReward(address)": {
        "notice": "   (STONE)"
      },
      "allocatedDividend(address,uint256)": {
        "notice": "     "
      },
      "balanceOf(address)": {
        "notice": "calculate the balance staked by owner"
      },
      "cancelReward(uint256,uint256)": {
        "notice": "Retrieve undistributed STONE"
      },
      "claimDividend(uint256)": {
        "notice": " "
      },
      "claimReward()": {
        "notice": "claim allocated STONE reward"
      },
      "claimableReward(address)": {
        "notice": "calculate claimable STONE reward"
      },
      "depositDividend(address,uint256)": {
        "notice": " "
      },
      "depositReward(uint256,uint256)": {
        "notice": "deposit the STONE to be distributed linearly for 1 week"
      },
      "dividendInfo(uint256)": {
        "notice": " "
      },
      "executeDividend()": {
        "notice": " "
      },
      "reStake()": {
        "notice": "Re-stake claimable Stone"
      },
      "readyDividendInfo()": {
        "notice": "  "
      },
      "resetDividendRecordDate()": {
        "notice": "  "
      },
      "setCooldownPeriod(uint256)": {
        "notice": "Sets period until un-staking requested amount is able to be withdrawn."
      },
      "setDividendRecordDate()": {
        "notice": "  "
      },
      "stake(uint256)": {
        "notice": "Stakes Stone for msg.sender"
      },
      "totalDividendEpoch()": {
        "notice": "  "
      },
      "totalSupply()": {
        "notice": "total stone staked"
      },
      "unstake(uint256)": {
        "notice": "request unstaking to msg.sender"
      },
      "unstakingRequestByIndex(address,uint256)": {
        "notice": "Get the information of un-staking requests by owner"
      },
      "unstakingRequestCounts(address)": {
        "notice": "Get the number of un-staking requests by owner"
      },
      "withdraw(uint256)": {
        "notice": "withdraw unstaked Stone after cooldown"
      }
    },
    "notice": "StakedStone Contract created to distribute rewards to STONE holders [ ] ============== StakedStone , STONE  Pangeaswap     .     unstake  , cooldown  withdraw  . unstake    claim  . 1. Manager Side stake() => unstake() =====> withdraw() ---------- | cooldown |   - setCooldownPeriod(period) : unstake withdraw  . default : 7 days  1. Holder Side - stake(amount) : amount STONE  - unstake(amount) :  STONE amount   - unstakingRequestCounts(owner) :  owner  unstaking request  ( withdraw ) - unstakingRequestByIndex(owner, index); :  unstaking   - withdraw(requestId) : cooldown   unstaking request   [ ] ============== ``    Holder  ,         . 1. Manager Side                                     setDividendRecordDate() => depositDividend(token,amount) => executeDividend(); <= resetDividendRecordDate() :   ; -   account   . -  ,  . -       . -    resetDividendRecordDate   ,   . (msg.sender) 2. Holder Side - allocatedDividend(epoch) :  epoch       - claimDividend(epoch) :  epoch    [ ] ================ ``         ,    . 1. Manager Side - depositReward(amount, startTime) :   (startTime  1 ) - cancelReward(amount, startTime) :      2. Holder Side - claimableReward(owner) :        - claimReward() :  ",
    "version": 1
  },
  "storageLayout": {
    "storage": [
      {
        "astId": 419,
        "contract": "contracts/StakedStone.sol:StakedStone",
        "label": "_initialized",
        "offset": 0,
        "slot": "0",
        "type": "t_uint8"
      },
      {
        "astId": 422,
        "contract": "contracts/StakedStone.sol:StakedStone",
        "label": "_initializing",
        "offset": 1,
        "slot": "0",
        "type": "t_bool"
      },
      {
        "astId": 847,
        "contract": "contracts/StakedStone.sol:StakedStone",
        "label": "__gap",
        "offset": 0,
        "slot": "1",
        "type": "t_array(t_uint256)50_storage"
      },
      {
        "astId": 1117,
        "contract": "contracts/StakedStone.sol:StakedStone",
        "label": "__gap",
        "offset": 0,
        "slot": "51",
        "type": "t_array(t_uint256)50_storage"
      },
      {
        "astId": 39,
        "contract": "contracts/StakedStone.sol:StakedStone",
        "label": "_roles",
        "offset": 0,
        "slot": "101",
        "type": "t_mapping(t_bytes32,t_struct(RoleData)34_storage)"
      },
      {
        "astId": 338,
        "contract": "contracts/StakedStone.sol:StakedStone",
        "label": "__gap",
        "offset": 0,
        "slot": "102",
        "type": "t_array(t_uint256)49_storage"
      },
      {
        "astId": 4093,
        "contract": "contracts/StakedStone.sol:StakedStone",
        "label": "totalRewardPerWeek",
        "offset": 0,
        "slot": "151",
        "type": "t_mapping(t_uint256,t_uint256)"
      },
      {
        "astId": 4095,
        "contract": "contracts/StakedStone.sol:StakedStone",
        "label": "checkpoint",
        "offset": 0,
        "slot": "152",
        "type": "t_uint256"
      },
      {
        "astId": 4097,
        "contract": "contracts/StakedStone.sol:StakedStone",
        "label": "rewardGrowthGlobalLast",
        "offset": 0,
        "slot": "153",
        "type": "t_uint256"
      },
      {
        "astId": 4099,
        "contract": "contracts/StakedStone.sol:StakedStone",
        "label": "pendingReward",
        "offset": 0,
        "slot": "154",
        "type": "t_uint256"
      },
      {
        "astId": 4101,
        "contract": "contracts/StakedStone.sol:StakedStone",
        "label": "totalShare",
        "offset": 0,
        "slot": "155",
        "type": "t_uint256"
      },
      {
        "astId": 4105,
        "contract": "contracts/StakedStone.sol:StakedStone",
        "label": "_balanceOf",
        "offset": 0,
        "slot": "156",
        "type": "t_mapping(t_address,t_uint256)"
      },
      {
        "astId": 4107,
        "contract": "contracts/StakedStone.sol:StakedStone",
        "label": "_totalSupply",
        "offset": 0,
        "slot": "157",
        "type": "t_uint256"
      },
      {
        "astId": 4109,
        "contract": "contracts/StakedStone.sol:StakedStone",
        "label": "cooldownPeriod",
        "offset": 0,
        "slot": "158",
        "type": "t_uint256"
      },
      {
        "astId": 4111,
        "contract": "contracts/StakedStone.sol:StakedStone",
        "label": "stone",
        "offset": 0,
        "slot": "159",
        "type": "t_address"
      },
      {
        "astId": 4113,
        "contract": "contracts/StakedStone.sol:StakedStone",
        "label": "openDate",
        "offset": 0,
        "slot": "160",
        "type": "t_uint256"
      },
      {
        "astId": 4116,
        "contract": "contracts/StakedStone.sol:StakedStone",
        "label": "readyDividend",
        "offset": 0,
        "slot": "161",
        "type": "t_struct(Dividend)5996_storage"
      },
      {
        "astId": 4120,
        "contract": "contracts/StakedStone.sol:StakedStone",
        "label": "_dividendHistory",
        "offset": 0,
        "slot": "166",
        "type": "t_array(t_struct(Dividend)5996_storage)dyn_storage"
      },
      {
        "astId": 4124,
        "contract": "contracts/StakedStone.sol:StakedStone",
        "label": "_userLastRecordDate",
        "offset": 0,
        "slot": "167",
        "type": "t_mapping(t_address,t_uint256)"
      },
      {
        "astId": 4131,
        "contract": "contracts/StakedStone.sol:StakedStone",
        "label": "_userDividendSnapshot",
        "offset": 0,
        "slot": "168",
        "type": "t_mapping(t_address,t_mapping(t_uint256,t_struct(DividendSnapshot)6001_storage))"
      },
      {
        "astId": 4135,
        "contract": "contracts/StakedStone.sol:StakedStone",
        "label": "unstakingRequests",
        "offset": 0,
        "slot": "169",
        "type": "t_array(t_struct(UnstakingRequest)5978_storage)dyn_storage"
      },
      {
        "astId": 4139,
        "contract": "contracts/StakedStone.sol:StakedStone",
        "label": "requestOwnerOf",
        "offset": 0,
        "slot": "170",
        "type": "t_mapping(t_uint256,t_address)"
      },
      {
        "astId": 4144,
        "contract": "contracts/StakedStone.sol:StakedStone",
        "label": "unstakingRequestCounts",
        "offset": 0,
        "slot": "171",
        "type": "t_mapping(t_address,t_uint256)"
      },
      {
        "astId": 4150,
        "contract": "contracts/StakedStone.sol:StakedStone",
        "label": "_ownedRequests",
        "offset": 0,
        "slot": "172",
        "type": "t_mapping(t_address,t_mapping(t_uint256,t_uint256))"
      },
      {
        "astId": 4154,
        "contract": "contracts/StakedStone.sol:StakedStone",
        "label": "_ownedRequestsIndex",
        "offset": 0,
        "slot": "173",
        "type": "t_mapping(t_uint256,t_uint256)"
      },
      {
        "astId": 4159,
        "contract": "contracts/StakedStone.sol:StakedStone",
        "label": "_userRewardSnapshot",
        "offset": 0,
        "slot": "174",
        "type": "t_mapping(t_address,t_struct(RewardSnapshot)5983_storage)"
      },
      {
        "astId": 4164,
        "contract": "contracts/StakedStone.sol:StakedStone",
        "label": "accumulativeUserReward",
        "offset": 0,
        "slot": "175",
        "type": "t_mapping(t_address,t_uint256)"
      }
    ],
    "types": {
      "t_address": {
        "encoding": "inplace",
        "label": "address",
        "numberOfBytes": "20"
      },
      "t_array(t_address)dyn_storage": {
        "base": "t_address",
        "encoding": "dynamic_array",
        "label": "address[]",
        "numberOfBytes": "32"
      },
      "t_array(t_struct(Dividend)5996_storage)dyn_storage": {
        "base": "t_struct(Dividend)5996_storage",
        "encoding": "dynamic_array",
        "label": "struct IStakedStoneStruct.Dividend[]",
        "numberOfBytes": "32"
      },
      "t_array(t_struct(UnstakingRequest)5978_storage)dyn_storage": {
        "base": "t_struct(UnstakingRequest)5978_storage",
        "encoding": "dynamic_array",
        "label": "struct IStakedStoneStruct.UnstakingRequest[]",
        "numberOfBytes": "32"
      },
      "t_array(t_uint256)49_storage": {
        "base": "t_uint256",
        "encoding": "inplace",
        "label": "uint256[49]",
        "numberOfBytes": "1568"
      },
      "t_array(t_uint256)50_storage": {
        "base": "t_uint256",
        "encoding": "inplace",
        "label": "uint256[50]",
        "numberOfBytes": "1600"
      },
      "t_array(t_uint256)dyn_storage": {
        "base": "t_uint256",
        "encoding": "dynamic_array",
        "label": "uint256[]",
        "numberOfBytes": "32"
      },
      "t_bool": {
        "encoding": "inplace",
        "label": "bool",
        "numberOfBytes": "1"
      },
      "t_bytes32": {
        "encoding": "inplace",
        "label": "bytes32",
        "numberOfBytes": "32"
      },
      "t_mapping(t_address,t_bool)": {
        "encoding": "mapping",
        "key": "t_address",
        "label": "mapping(address => bool)",
        "numberOfBytes": "32",
        "value": "t_bool"
      },
      "t_mapping(t_address,t_mapping(t_uint256,t_struct(DividendSnapshot)6001_storage))": {
        "encoding": "mapping",
        "key": "t_address",
        "label": "mapping(address => mapping(uint256 => struct IStakedStoneStruct.DividendSnapshot))",
        "numberOfBytes": "32",
        "value": "t_mapping(t_uint256,t_struct(DividendSnapshot)6001_storage)"
      },
      "t_mapping(t_address,t_mapping(t_uint256,t_uint256))": {
        "encoding": "mapping",
        "key": "t_address",
        "label": "mapping(address => mapping(uint256 => uint256))",
        "numberOfBytes": "32",
        "value": "t_mapping(t_uint256,t_uint256)"
      },
      "t_mapping(t_address,t_struct(RewardSnapshot)5983_storage)": {
        "encoding": "mapping",
        "key": "t_address",
        "label": "mapping(address => struct IStakedStoneStruct.RewardSnapshot)",
        "numberOfBytes": "32",
        "value": "t_struct(RewardSnapshot)5983_storage"
      },
      "t_mapping(t_address,t_uint256)": {
        "encoding": "mapping",
        "key": "t_address",
        "label": "mapping(address => uint256)",
        "numberOfBytes": "32",
        "value": "t_uint256"
      },
      "t_mapping(t_bytes32,t_struct(RoleData)34_storage)": {
        "encoding": "mapping",
        "key": "t_bytes32",
        "label": "mapping(bytes32 => struct AccessControlUpgradeable.RoleData)",
        "numberOfBytes": "32",
        "value": "t_struct(RoleData)34_storage"
      },
      "t_mapping(t_uint256,t_address)": {
        "encoding": "mapping",
        "key": "t_uint256",
        "label": "mapping(uint256 => address)",
        "numberOfBytes": "32",
        "value": "t_address"
      },
      "t_mapping(t_uint256,t_struct(DividendSnapshot)6001_storage)": {
        "encoding": "mapping",
        "key": "t_uint256",
        "label": "mapping(uint256 => struct IStakedStoneStruct.DividendSnapshot)",
        "numberOfBytes": "32",
        "value": "t_struct(DividendSnapshot)6001_storage"
      },
      "t_mapping(t_uint256,t_uint256)": {
        "encoding": "mapping",
        "key": "t_uint256",
        "label": "mapping(uint256 => uint256)",
        "numberOfBytes": "32",
        "value": "t_uint256"
      },
      "t_struct(Dividend)5996_storage": {
        "encoding": "inplace",
        "label": "struct IStakedStoneStruct.Dividend",
        "members": [
          {
            "astId": 5985,
            "contract": "contracts/StakedStone.sol:StakedStone",
            "label": "startDate",
            "offset": 0,
            "slot": "0",
            "type": "t_uint256"
          },
          {
            "astId": 5987,
            "contract": "contracts/StakedStone.sol:StakedStone",
            "label": "recordDate",
            "offset": 0,
            "slot": "1",
            "type": "t_uint256"
          },
          {
            "astId": 5989,
            "contract": "contracts/StakedStone.sol:StakedStone",
            "label": "totalShare",
            "offset": 0,
            "slot": "2",
            "type": "t_uint256"
          },
          {
            "astId": 5992,
            "contract": "contracts/StakedStone.sol:StakedStone",
            "label": "tokens",
            "offset": 0,
            "slot": "3",
            "type": "t_array(t_address)dyn_storage"
          },
          {
            "astId": 5995,
            "contract": "contracts/StakedStone.sol:StakedStone",
            "label": "amounts",
            "offset": 0,
            "slot": "4",
            "type": "t_array(t_uint256)dyn_storage"
          }
        ],
        "numberOfBytes": "160"
      },
      "t_struct(DividendSnapshot)6001_storage": {
        "encoding": "inplace",
        "label": "struct IStakedStoneStruct.DividendSnapshot",
        "members": [
          {
            "astId": 5998,
            "contract": "contracts/StakedStone.sol:StakedStone",
            "label": "isPaid",
            "offset": 0,
            "slot": "0",
            "type": "t_bool"
          },
          {
            "astId": 6000,
            "contract": "contracts/StakedStone.sol:StakedStone",
            "label": "share",
            "offset": 0,
            "slot": "1",
            "type": "t_uint256"
          }
        ],
        "numberOfBytes": "64"
      },
      "t_struct(RewardSnapshot)5983_storage": {
        "encoding": "inplace",
        "label": "struct IStakedStoneStruct.RewardSnapshot",
        "members": [
          {
            "astId": 5980,
            "contract": "contracts/StakedStone.sol:StakedStone",
            "label": "_growthGlobalLast",
            "offset": 0,
            "slot": "0",
            "type": "t_uint256"
          },
          {
            "astId": 5982,
            "contract": "contracts/StakedStone.sol:StakedStone",
            "label": "_owed",
            "offset": 0,
            "slot": "1",
            "type": "t_uint256"
          }
        ],
        "numberOfBytes": "64"
      },
      "t_struct(RoleData)34_storage": {
        "encoding": "inplace",
        "label": "struct AccessControlUpgradeable.RoleData",
        "members": [
          {
            "astId": 31,
            "contract": "contracts/StakedStone.sol:StakedStone",
            "label": "members",
            "offset": 0,
            "slot": "0",
            "type": "t_mapping(t_address,t_bool)"
          },
          {
            "astId": 33,
            "contract": "contracts/StakedStone.sol:StakedStone",
            "label": "adminRole",
            "offset": 0,
            "slot": "1",
            "type": "t_bytes32"
          }
        ],
        "numberOfBytes": "64"
      },
      "t_struct(UnstakingRequest)5978_storage": {
        "encoding": "inplace",
        "label": "struct IStakedStoneStruct.UnstakingRequest",
        "members": [
          {
            "astId": 5971,
            "contract": "contracts/StakedStone.sol:StakedStone",
            "label": "id",
            "offset": 0,
            "slot": "0",
            "type": "t_uint256"
          },
          {
            "astId": 5973,
            "contract": "contracts/StakedStone.sol:StakedStone",
            "label": "amount",
            "offset": 0,
            "slot": "1",
            "type": "t_uint256"
          },
          {
            "astId": 5975,
            "contract": "contracts/StakedStone.sol:StakedStone",
            "label": "requestTs",
            "offset": 0,
            "slot": "2",
            "type": "t_uint256"
          },
          {
            "astId": 5977,
            "contract": "contracts/StakedStone.sol:StakedStone",
            "label": "isClaimed",
            "offset": 0,
            "slot": "3",
            "type": "t_bool"
          }
        ],
        "numberOfBytes": "128"
      },
      "t_uint256": {
        "encoding": "inplace",
        "label": "uint256",
        "numberOfBytes": "32"
      },
      "t_uint8": {
        "encoding": "inplace",
        "label": "uint8",
        "numberOfBytes": "1"
      }
    }
  }
}