{
  "address": "0x5888261d639F6b9f6d7F12441c897a3Db55a0666",
  "abi": [
    {
      "anonymous": false,
      "inputs": [
        {
          "indexed": true,
          "internalType": "address",
          "name": "operator",
          "type": "address"
        },
        {
          "indexed": true,
          "internalType": "uint256",
          "name": "weekStartTime",
          "type": "uint256"
        },
        {
          "indexed": false,
          "internalType": "uint256",
          "name": "amount",
          "type": "uint256"
        }
      ],
      "name": "CancelReward",
      "type": "event"
    },
    {
      "anonymous": false,
      "inputs": [
        {
          "indexed": true,
          "internalType": "address",
          "name": "owner",
          "type": "address"
        },
        {
          "indexed": false,
          "internalType": "uint256",
          "name": "amount",
          "type": "uint256"
        }
      ],
      "name": "Claim",
      "type": "event"
    },
    {
      "anonymous": false,
      "inputs": [
        {
          "indexed": true,
          "internalType": "address",
          "name": "owner",
          "type": "address"
        },
        {
          "indexed": true,
          "internalType": "uint256",
          "name": "epoch",
          "type": "uint256"
        },
        {
          "indexed": false,
          "internalType": "address",
          "name": "token",
          "type": "address"
        },
        {
          "indexed": false,
          "internalType": "uint256",
          "name": "amount",
          "type": "uint256"
        }
      ],
      "name": "ClaimDividend",
      "type": "event"
    },
    {
      "anonymous": false,
      "inputs": [
        {
          "indexed": true,
          "internalType": "uint256",
          "name": "dividendId",
          "type": "uint256"
        },
        {
          "indexed": false,
          "internalType": "address",
          "name": "token",
          "type": "address"
        },
        {
          "indexed": false,
          "internalType": "uint256",
          "name": "amount",
          "type": "uint256"
        }
      ],
      "name": "DepositDividend",
      "type": "event"
    },
    {
      "anonymous": false,
      "inputs": [
        {
          "indexed": true,
          "internalType": "address",
          "name": "operator",
          "type": "address"
        },
        {
          "indexed": true,
          "internalType": "uint256",
          "name": "weekStartTime",
          "type": "uint256"
        },
        {
          "indexed": false,
          "internalType": "uint256",
          "name": "amount",
          "type": "uint256"
        }
      ],
      "name": "DepositReward",
      "type": "event"
    },
    {
      "anonymous": false,
      "inputs": [
        {
          "indexed": true,
          "internalType": "uint256",
          "name": "dividendId",
          "type": "uint256"
        },
        {
          "indexed": false,
          "internalType": "address[]",
          "name": "token",
          "type": "address[]"
        },
        {
          "indexed": false,
          "internalType": "uint256[]",
          "name": "amount",
          "type": "uint256[]"
        }
      ],
      "name": "ExecuteDividend",
      "type": "event"
    },
    {
      "anonymous": false,
      "inputs": [
        {
          "indexed": false,
          "internalType": "uint8",
          "name": "version",
          "type": "uint8"
        }
      ],
      "name": "Initialized",
      "type": "event"
    },
    {
      "anonymous": false,
      "inputs": [
        {
          "indexed": true,
          "internalType": "uint256",
          "name": "dividendId",
          "type": "uint256"
        }
      ],
      "name": "ResetDividend",
      "type": "event"
    },
    {
      "anonymous": false,
      "inputs": [
        {
          "indexed": true,
          "internalType": "bytes32",
          "name": "role",
          "type": "bytes32"
        },
        {
          "indexed": true,
          "internalType": "bytes32",
          "name": "previousAdminRole",
          "type": "bytes32"
        },
        {
          "indexed": true,
          "internalType": "bytes32",
          "name": "newAdminRole",
          "type": "bytes32"
        }
      ],
      "name": "RoleAdminChanged",
      "type": "event"
    },
    {
      "anonymous": false,
      "inputs": [
        {
          "indexed": true,
          "internalType": "bytes32",
          "name": "role",
          "type": "bytes32"
        },
        {
          "indexed": true,
          "internalType": "address",
          "name": "account",
          "type": "address"
        },
        {
          "indexed": true,
          "internalType": "address",
          "name": "sender",
          "type": "address"
        }
      ],
      "name": "RoleGranted",
      "type": "event"
    },
    {
      "anonymous": false,
      "inputs": [
        {
          "indexed": true,
          "internalType": "bytes32",
          "name": "role",
          "type": "bytes32"
        },
        {
          "indexed": true,
          "internalType": "address",
          "name": "account",
          "type": "address"
        },
        {
          "indexed": true,
          "internalType": "address",
          "name": "sender",
          "type": "address"
        }
      ],
      "name": "RoleRevoked",
      "type": "event"
    },
    {
      "anonymous": false,
      "inputs": [
        {
          "indexed": true,
          "internalType": "uint256",
          "name": "dividendId",
          "type": "uint256"
        },
        {
          "indexed": false,
          "internalType": "uint256",
          "name": "startTime",
          "type": "uint256"
        },
        {
          "indexed": false,
          "internalType": "uint256",
          "name": "recordDate",
          "type": "uint256"
        },
        {
          "indexed": false,
          "internalType": "uint256",
          "name": "totalShare",
          "type": "uint256"
        }
      ],
      "name": "SetDividend",
      "type": "event"
    },
    {
      "anonymous": false,
      "inputs": [
        {
          "indexed": true,
          "internalType": "address",
          "name": "owner",
          "type": "address"
        },
        {
          "indexed": false,
          "internalType": "uint256",
          "name": "amount",
          "type": "uint256"
        }
      ],
      "name": "Stake",
      "type": "event"
    },
    {
      "anonymous": false,
      "inputs": [
        {
          "indexed": true,
          "internalType": "address",
          "name": "owner",
          "type": "address"
        },
        {
          "indexed": false,
          "internalType": "uint256",
          "name": "amount",
          "type": "uint256"
        },
        {
          "indexed": false,
          "internalType": "uint256",
          "name": "requestId",
          "type": "uint256"
        }
      ],
      "name": "Unstake",
      "type": "event"
    },
    {
      "anonymous": false,
      "inputs": [
        {
          "indexed": false,
          "internalType": "uint256",
          "name": "prev",
          "type": "uint256"
        },
        {
          "indexed": false,
          "internalType": "uint256",
          "name": "curr",
          "type": "uint256"
        }
      ],
      "name": "UpdateCoolDown",
      "type": "event"
    },
    {
      "anonymous": false,
      "inputs": [
        {
          "indexed": true,
          "internalType": "address",
          "name": "owner",
          "type": "address"
        },
        {
          "indexed": false,
          "internalType": "uint256",
          "name": "amount",
          "type": "uint256"
        }
      ],
      "name": "Withdraw",
      "type": "event"
    },
    {
      "inputs": [],
      "name": "DEFAULT_ADMIN_ROLE",
      "outputs": [
        {
          "internalType": "bytes32",
          "name": "",
          "type": "bytes32"
        }
      ],
      "stateMutability": "view",
      "type": "function"
    },
    {
      "inputs": [],
      "name": "MANAGER_ROLE",
      "outputs": [
        {
          "internalType": "bytes32",
          "name": "",
          "type": "bytes32"
        }
      ],
      "stateMutability": "view",
      "type": "function"
    },
    {
      "inputs": [
        {
          "internalType": "address",
          "name": "",
          "type": "address"
        }
      ],
      "name": "accumulativeUserReward",
      "outputs": [
        {
          "internalType": "uint256",
          "name": "",
          "type": "uint256"
        }
      ],
      "stateMutability": "view",
      "type": "function"
    },
    {
      "inputs": [
        {
          "internalType": "address",
          "name": "owner",
          "type": "address"
        },
        {
          "internalType": "uint256",
          "name": "epoch",
          "type": "uint256"
        }
      ],
      "name": "allocatedDividend",
      "outputs": [
        {
          "internalType": "bool",
          "name": "isPaid",
          "type": "bool"
        },
        {
          "internalType": "address[]",
          "name": "tokens",
          "type": "address[]"
        },
        {
          "internalType": "uint256[]",
          "name": "amounts",
          "type": "uint256[]"
        }
      ],
      "stateMutability": "view",
      "type": "function"
    },
    {
      "inputs": [
        {
          "internalType": "address",
          "name": "owner",
          "type": "address"
        }
      ],
      "name": "allocatedDividendAll",
      "outputs": [
        {
          "components": [
            {
              "internalType": "bool",
              "name": "isPaid",
              "type": "bool"
            },
            {
              "internalType": "address[]",
              "name": "tokens",
              "type": "address[]"
            },
            {
              "internalType": "uint256[]",
              "name": "amounts",
              "type": "uint256[]"
            }
          ],
          "internalType": "struct IStakedStoneStruct.AllocatedDividend[]",
          "name": "dividends",
          "type": "tuple[]"
        }
      ],
      "stateMutability": "view",
      "type": "function"
    },
    {
      "inputs": [
        {
          "internalType": "address",
          "name": "owner",
          "type": "address"
        }
      ],
      "name": "balanceOf",
      "outputs": [
        {
          "internalType": "uint256",
          "name": "amount",
          "type": "uint256"
        }
      ],
      "stateMutability": "view",
      "type": "function"
    },
    {
      "inputs": [
        {
          "internalType": "uint256",
          "name": "amount",
          "type": "uint256"
        },
        {
          "internalType": "uint256",
          "name": "startTime",
          "type": "uint256"
        }
      ],
      "name": "cancelReward",
      "outputs": [],
      "stateMutability": "nonpayable",
      "type": "function"
    },
    {
      "inputs": [
        {
          "internalType": "uint256",
          "name": "epoch",
          "type": "uint256"
        }
      ],
      "name": "claimDividend",
      "outputs": [],
      "stateMutability": "nonpayable",
      "type": "function"
    },
    {
      "inputs": [],
      "name": "claimReward",
      "outputs": [
        {
          "internalType": "uint256",
          "name": "amount",
          "type": "uint256"
        }
      ],
      "stateMutability": "nonpayable",
      "type": "function"
    },
    {
      "inputs": [
        {
          "internalType": "address",
          "name": "owner",
          "type": "address"
        }
      ],
      "name": "claimableReward",
      "outputs": [
        {
          "internalType": "uint256",
          "name": "",
          "type": "uint256"
        }
      ],
      "stateMutability": "view",
      "type": "function"
    },
    {
      "inputs": [],
      "name": "cooldownPeriod",
      "outputs": [
        {
          "internalType": "uint256",
          "name": "",
          "type": "uint256"
        }
      ],
      "stateMutability": "view",
      "type": "function"
    },
    {
      "inputs": [
        {
          "internalType": "address",
          "name": "token",
          "type": "address"
        },
        {
          "internalType": "uint256",
          "name": "amount",
          "type": "uint256"
        }
      ],
      "name": "depositDividend",
      "outputs": [],
      "stateMutability": "nonpayable",
      "type": "function"
    },
    {
      "inputs": [
        {
          "internalType": "uint256",
          "name": "amount",
          "type": "uint256"
        },
        {
          "internalType": "uint256",
          "name": "startTime",
          "type": "uint256"
        }
      ],
      "name": "depositReward",
      "outputs": [],
      "stateMutability": "nonpayable",
      "type": "function"
    },
    {
      "inputs": [
        {
          "internalType": "uint256",
          "name": "epoch",
          "type": "uint256"
        }
      ],
      "name": "dividendInfo",
      "outputs": [
        {
          "components": [
            {
              "internalType": "uint256",
              "name": "startDate",
              "type": "uint256"
            },
            {
              "internalType": "uint256",
              "name": "recordDate",
              "type": "uint256"
            },
            {
              "internalType": "uint256",
              "name": "totalShare",
              "type": "uint256"
            },
            {
              "internalType": "address[]",
              "name": "tokens",
              "type": "address[]"
            },
            {
              "internalType": "uint256[]",
              "name": "amounts",
              "type": "uint256[]"
            }
          ],
          "internalType": "struct IStakedStoneStruct.Dividend",
          "name": "",
          "type": "tuple"
        }
      ],
      "stateMutability": "view",
      "type": "function"
    },
    {
      "inputs": [],
      "name": "epochStartDate",
      "outputs": [
        {
          "internalType": "uint256",
          "name": "",
          "type": "uint256"
        }
      ],
      "stateMutability": "view",
      "type": "function"
    },
    {
      "inputs": [],
      "name": "executeDividend",
      "outputs": [],
      "stateMutability": "nonpayable",
      "type": "function"
    },
    {
      "inputs": [
        {
          "internalType": "bytes32",
          "name": "role",
          "type": "bytes32"
        }
      ],
      "name": "getRoleAdmin",
      "outputs": [
        {
          "internalType": "bytes32",
          "name": "",
          "type": "bytes32"
        }
      ],
      "stateMutability": "view",
      "type": "function"
    },
    {
      "inputs": [
        {
          "internalType": "bytes32",
          "name": "role",
          "type": "bytes32"
        },
        {
          "internalType": "address",
          "name": "account",
          "type": "address"
        }
      ],
      "name": "grantRole",
      "outputs": [],
      "stateMutability": "nonpayable",
      "type": "function"
    },
    {
      "inputs": [
        {
          "internalType": "bytes32",
          "name": "role",
          "type": "bytes32"
        },
        {
          "internalType": "address",
          "name": "account",
          "type": "address"
        }
      ],
      "name": "hasRole",
      "outputs": [
        {
          "internalType": "bool",
          "name": "",
          "type": "bool"
        }
      ],
      "stateMutability": "view",
      "type": "function"
    },
    {
      "inputs": [
        {
          "internalType": "address",
          "name": "_stone",
          "type": "address"
        },
        {
          "internalType": "uint256",
          "name": "_openDate",
          "type": "uint256"
        }
      ],
      "name": "initialize",
      "outputs": [],
      "stateMutability": "nonpayable",
      "type": "function"
    },
    {
      "inputs": [
        {
          "internalType": "bytes[]",
          "name": "data",
          "type": "bytes[]"
        }
      ],
      "name": "multicall",
      "outputs": [
        {
          "internalType": "bytes[]",
          "name": "results",
          "type": "bytes[]"
        }
      ],
      "stateMutability": "nonpayable",
      "type": "function"
    },
    {
      "inputs": [],
      "name": "reStake",
      "outputs": [],
      "stateMutability": "nonpayable",
      "type": "function"
    },
    {
      "inputs": [],
      "name": "readyDividendInfo",
      "outputs": [
        {
          "components": [
            {
              "internalType": "uint256",
              "name": "startDate",
              "type": "uint256"
            },
            {
              "internalType": "uint256",
              "name": "recordDate",
              "type": "uint256"
            },
            {
              "internalType": "uint256",
              "name": "totalShare",
              "type": "uint256"
            },
            {
              "internalType": "address[]",
              "name": "tokens",
              "type": "address[]"
            },
            {
              "internalType": "uint256[]",
              "name": "amounts",
              "type": "uint256[]"
            }
          ],
          "internalType": "struct IStakedStoneStruct.Dividend",
          "name": "",
          "type": "tuple"
        }
      ],
      "stateMutability": "view",
      "type": "function"
    },
    {
      "inputs": [
        {
          "internalType": "bytes32",
          "name": "role",
          "type": "bytes32"
        },
        {
          "internalType": "address",
          "name": "account",
          "type": "address"
        }
      ],
      "name": "renounceRole",
      "outputs": [],
      "stateMutability": "nonpayable",
      "type": "function"
    },
    {
      "inputs": [
        {
          "internalType": "uint256",
          "name": "",
          "type": "uint256"
        }
      ],
      "name": "requestOwnerOf",
      "outputs": [
        {
          "internalType": "address",
          "name": "",
          "type": "address"
        }
      ],
      "stateMutability": "view",
      "type": "function"
    },
    {
      "inputs": [],
      "name": "resetDividendRecordDate",
      "outputs": [],
      "stateMutability": "nonpayable",
      "type": "function"
    },
    {
      "inputs": [
        {
          "internalType": "bytes32",
          "name": "role",
          "type": "bytes32"
        },
        {
          "internalType": "address",
          "name": "account",
          "type": "address"
        }
      ],
      "name": "revokeRole",
      "outputs": [],
      "stateMutability": "nonpayable",
      "type": "function"
    },
    {
      "inputs": [
        {
          "internalType": "uint256",
          "name": "period",
          "type": "uint256"
        }
      ],
      "name": "setCooldownPeriod",
      "outputs": [],
      "stateMutability": "nonpayable",
      "type": "function"
    },
    {
      "inputs": [],
      "name": "setDividendRecordDate",
      "outputs": [],
      "stateMutability": "nonpayable",
      "type": "function"
    },
    {
      "inputs": [
        {
          "internalType": "uint256",
          "name": "amount",
          "type": "uint256"
        }
      ],
      "name": "stake",
      "outputs": [],
      "stateMutability": "nonpayable",
      "type": "function"
    },
    {
      "inputs": [],
      "name": "stone",
      "outputs": [
        {
          "internalType": "address",
          "name": "",
          "type": "address"
        }
      ],
      "stateMutability": "view",
      "type": "function"
    },
    {
      "inputs": [
        {
          "internalType": "bytes4",
          "name": "interfaceId",
          "type": "bytes4"
        }
      ],
      "name": "supportsInterface",
      "outputs": [
        {
          "internalType": "bool",
          "name": "",
          "type": "bool"
        }
      ],
      "stateMutability": "view",
      "type": "function"
    },
    {
      "inputs": [],
      "name": "totalDividendEpoch",
      "outputs": [
        {
          "internalType": "uint256",
          "name": "",
          "type": "uint256"
        }
      ],
      "stateMutability": "view",
      "type": "function"
    },
    {
      "inputs": [
        {
          "internalType": "uint256",
          "name": "",
          "type": "uint256"
        }
      ],
      "name": "totalRewardPerWeek",
      "outputs": [
        {
          "internalType": "uint256",
          "name": "",
          "type": "uint256"
        }
      ],
      "stateMutability": "view",
      "type": "function"
    },
    {
      "inputs": [],
      "name": "totalSupply",
      "outputs": [
        {
          "internalType": "uint256",
          "name": "",
          "type": "uint256"
        }
      ],
      "stateMutability": "view",
      "type": "function"
    },
    {
      "inputs": [
        {
          "internalType": "uint256",
          "name": "amount",
          "type": "uint256"
        }
      ],
      "name": "unstake",
      "outputs": [],
      "stateMutability": "nonpayable",
      "type": "function"
    },
    {
      "inputs": [
        {
          "internalType": "address",
          "name": "owner",
          "type": "address"
        },
        {
          "internalType": "uint256",
          "name": "index",
          "type": "uint256"
        }
      ],
      "name": "unstakingRequestByIndex",
      "outputs": [
        {
          "components": [
            {
              "internalType": "uint256",
              "name": "id",
              "type": "uint256"
            },
            {
              "internalType": "uint256",
              "name": "amount",
              "type": "uint256"
            },
            {
              "internalType": "uint256",
              "name": "requestTs",
              "type": "uint256"
            },
            {
              "internalType": "bool",
              "name": "isClaimed",
              "type": "bool"
            }
          ],
          "internalType": "struct IStakedStoneStruct.UnstakingRequest",
          "name": "",
          "type": "tuple"
        }
      ],
      "stateMutability": "view",
      "type": "function"
    },
    {
      "inputs": [
        {
          "internalType": "address",
          "name": "",
          "type": "address"
        }
      ],
      "name": "unstakingRequestCounts",
      "outputs": [
        {
          "internalType": "uint256",
          "name": "",
          "type": "uint256"
        }
      ],
      "stateMutability": "view",
      "type": "function"
    },
    {
      "inputs": [
        {
          "internalType": "uint256",
          "name": "",
          "type": "uint256"
        }
      ],
      "name": "unstakingRequests",
      "outputs": [
        {
          "internalType": "uint256",
          "name": "id",
          "type": "uint256"
        },
        {
          "internalType": "uint256",
          "name": "amount",
          "type": "uint256"
        },
        {
          "internalType": "uint256",
          "name": "requestTs",
          "type": "uint256"
        },
        {
          "internalType": "bool",
          "name": "isClaimed",
          "type": "bool"
        }
      ],
      "stateMutability": "view",
      "type": "function"
    },
    {
      "inputs": [
        {
          "internalType": "uint256",
          "name": "requestId",
          "type": "uint256"
        }
      ],
      "name": "withdraw",
      "outputs": [
        {
          "internalType": "uint256",
          "name": "amount",
          "type": "uint256"
        }
      ],
      "stateMutability": "nonpayable",
      "type": "function"
    },
    {
      "stateMutability": "payable",
      "type": "receive"
    }
  ],
  "transactionHash": "0x132211bd8e5876f874b6bc6bc247fc890155b792171fd1bde76d49f3e15d6eb9",
  "args": [],
  "numDeployments": 2,
  "solcInputHash": "1d48dab411d34a66379902fbcb1d22f8",
  "bytecode": "0x608060405234801561001057600080fd5b50614c4f806100206000396000f3fe6080604052600436106102bf5760003560e01c806391d148541161016e578063cd6dc687116100cb578063e95034251161007f578063ec87621c11610064578063ec87621c14610830578063f37aecaa14610845578063f86ee1631461089a57600080fd5b8063e9503425146107fb578063eba8a2661461081b57600080fd5b8063d547741f116100b0578063d547741f1461078e578063e649872d146107ae578063e748c057146107db57600080fd5b8063cd6dc6871461074e578063d428d9d61461076e57600080fd5b8063ac9650d811610122578063c415fcae11610107578063c415fcae146106c9578063c43e25cf146106f6578063cc5c1e081461070b57600080fd5b8063ac9650d814610687578063b88a802f146106b457600080fd5b8063a217fddf11610153578063a217fddf1461063d578063a694fc3a14610652578063a986123e1461067257600080fd5b806391d14854146105ca5780639abd35721461061d57600080fd5b80633da55ed81161021c57806370a08231116101d057806377d72e94116101b557806377d72e941461056857806380ea3de11461059557806381364c3d146105b557600080fd5b806370a08231146104f8578063712262b71461053b57600080fd5b806351d57ade1161020157806351d57ade146104945780635bfc4908146104a95780635f78d6bd146104d857600080fd5b80633da55ed81461046a578063465fdaa31461047f57600080fd5b8063248a9ca3116102735780632e1a7d4d116102585780632e1a7d4d1461040a5780632f2ff15d1461042a57806336568abe1461044a57600080fd5b8063248a9ca3146103b85780632e17de78146103e857600080fd5b806304646a49116102a457806304646a491461035257806309356b9d1461037657806318160ddd146103a357600080fd5b80630167eb85146102cb57806301ffc9a71461032257600080fd5b366102c657005b600080fd5b3480156102d757600080fd5b50609f546102f89073ffffffffffffffffffffffffffffffffffffffff1681565b60405173ffffffffffffffffffffffffffffffffffffffff90911681526020015b60405180910390f35b34801561032e57600080fd5b5061034261033d36600461438f565b6108dc565b6040519015158152602001610319565b34801561035e57600080fd5b50610368609e5481565b604051908152602001610319565b34801561038257600080fd5b506103966103913660046143d1565b610975565b604051610319919061446b565b3480156103af57600080fd5b50609d54610368565b3480156103c457600080fd5b506103686103d33660046143d1565b60009081526065602052604090206001015490565b3480156103f457600080fd5b506104086104033660046143d1565b610abf565b005b34801561041657600080fd5b506103686104253660046143d1565b610cdb565b34801561043657600080fd5b5061040861044536600461450d565b610f1f565b34801561045657600080fd5b5061040861046536600461450d565b610f49565b34801561047657600080fd5b50610368610ffc565b34801561048b57600080fd5b50610408611044565b3480156104a057600080fd5b5061039661120d565b3480156104b557600080fd5b506104c96104c4366004614539565b61132b565b60405161031993929190614563565b3480156104e457600080fd5b506104086104f3366004614539565b61155a565b34801561050457600080fd5b50610368610513366004614601565b73ffffffffffffffffffffffffffffffffffffffff166000908152609c602052604090205490565b34801561054757600080fd5b50610368610556366004614601565b60ab6020526000908152604090205481565b34801561057457600080fd5b50610588610583366004614601565b611884565b604051610319919061461c565b3480156105a157600080fd5b506104086105b03660046143d1565b611974565b3480156105c157600080fd5b50610408611a1b565b3480156105d657600080fd5b506103426105e536600461450d565b600091825260656020908152604080842073ffffffffffffffffffffffffffffffffffffffff93909316845291905290205460ff1690565b34801561062957600080fd5b506104086106383660046143d1565b611c29565b34801561064957600080fd5b50610368600081565b34801561065e57600080fd5b5061040861066d3660046143d1565b611fb1565b34801561067e57600080fd5b5060a654610368565b34801561069357600080fd5b506106a76106a23660046146cd565b61206c565b60405161031991906147b8565b3480156106c057600080fd5b50610368612161565b3480156106d557600080fd5b506103686106e4366004614601565b60af6020526000908152604090205481565b34801561070257600080fd5b506104086121b8565b34801561071757600080fd5b506102f86107263660046143d1565b60aa6020526000908152604090205473ffffffffffffffffffffffffffffffffffffffff1681565b34801561075a57600080fd5b50610408610769366004614539565b6124d3565b34801561077a57600080fd5b50610408610789366004614838565b6126ba565b34801561079a57600080fd5b506104086107a936600461450d565b61287d565b3480156107ba57600080fd5b506103686107c93660046143d1565b60976020526000908152604090205481565b3480156107e757600080fd5b506104086107f6366004614838565b6128a2565b34801561080757600080fd5b50610368610816366004614601565b612a6e565b34801561082757600080fd5b50610408612b2f565b34801561083c57600080fd5b50610368612b66565b34801561085157600080fd5b50610865610860366004614539565b612bc0565b604051610319919081518152602080830151908201526040808301519082015260609182015115159181019190915260800190565b3480156108a657600080fd5b506108ba6108b53660046143d1565b612c81565b6040805194855260208501939093529183015215156060820152608001610319565b60007fffffffff0000000000000000000000000000000000000000000000000000000082167f7965db0b00000000000000000000000000000000000000000000000000000000148061096f57507f01ffc9a7000000000000000000000000000000000000000000000000000000007fffffffff000000000000000000000000000000000000000000000000000000008316145b92915050565b6109a76040518060a0016040528060008152602001600081526020016000815260200160608152602001606081525090565b60a682815481106109ba576109ba61485a565b90600052602060002090600502016040518060a001604052908160008201548152602001600182015481526020016002820154815260200160038201805480602002602001604051908101604052809291908181526020018280548015610a5757602002820191906000526020600020905b815473ffffffffffffffffffffffffffffffffffffffff168152600190910190602001808311610a2c575b5050505050815260200160048201805480602002602001604051908101604052809291908181526020018280548015610aaf57602002820191906000526020600020905b815481526020019060010190808311610a9b575b5050505050815250509050919050565b336000610aca612cbe565b9050610ad68282612d2e565b610adf82612db8565b336000908152609c602052604081208054859290610afe9084906148b8565b9250508190555082609d6000828254610b1791906148b8565b909155505060a980546040805160808101825282815260208082018881524283850190815260006060850181815260018801895597815293517fdc471888e6136f84c49e531e9c9240dc4e3fba66da9d3a49e2af6202133683e0600488029081019190915591517fdc471888e6136f84c49e531e9c9240dc4e3fba66da9d3a49e2af6202133683e1830155517fdc471888e6136f84c49e531e9c9240dc4e3fba66da9d3a49e2af6202133683e282015594517fdc471888e6136f84c49e531e9c9240dc4e3fba66da9d3a49e2af6202133683e390950180547fffffffffffffffffffffffffffffffffffffffffffffffffffffffffffffff00169515159590951790945533815260ab909352822080549192919082610c35836148cf565b90915550600083815260aa6020908152604080832080547fffffffffffffffffffffffff0000000000000000000000000000000000000000163390811790915580845260ac8352818420858552835281842087905586845260ad835292819020849055805189815291820186905292935090917ff960dbf9e5d0682f7a298ed974e33a28b4464914b7a2bfac12ae419a9afeb28091015b60405180910390a25050505050565b60008060a98381548110610cf157610cf161485a565b60009182526020918290206040805160808101825260049093029091018054835260018101549383019390935260028301549082015260039091015460ff161580156060830152909150610da6576040517f08c379a000000000000000000000000000000000000000000000000000000000815260206004820152600f60248201527f414c524541445920434c41494d4544000000000000000000000000000000000060448201526064015b60405180910390fd5b600083815260aa602052604090205473ffffffffffffffffffffffffffffffffffffffff163314610e33576040517f08c379a000000000000000000000000000000000000000000000000000000000815260206004820152600960248201527f4e4f54204f574e455200000000000000000000000000000000000000000000006044820152606401610d9d565b42609e548260400151610e469190614908565b1115610eae576040517f08c379a000000000000000000000000000000000000000000000000000000000815260206004820152600d60248201527f4e45454420434f4f4c444f574e000000000000000000000000000000000000006044820152606401610d9d565b6020810151609f54909250610eda9073ffffffffffffffffffffffffffffffffffffffff163384612dea565b610ee43384612ebe565b60405182815233907f884edad9ce6fa2440d8a54cc123490eb96d2768479d49ff9c7366125a94243649060200160405180910390a250919050565b600082815260656020526040902060010154610f3a81612feb565b610f448383612ff8565b505050565b73ffffffffffffffffffffffffffffffffffffffff81163314610fee576040517f08c379a000000000000000000000000000000000000000000000000000000000815260206004820152602f60248201527f416363657373436f6e74726f6c3a2063616e206f6e6c792072656e6f756e636560448201527f20726f6c657320666f722073656c6600000000000000000000000000000000006064820152608401610d9d565b610ff882826130ec565b5050565b60a65460009061100d575060a05490565b60a6805461101d906001906148b8565b8154811061102d5761102d61485a565b906000526020600020906005020160010154905090565b6040516020016110859060208082526007908201527f4d414e4147455200000000000000000000000000000000000000000000000000604082015260600190565b604051602081830303815290604052805190602001206110a481612feb565b60a25461110d576040517f08c379a000000000000000000000000000000000000000000000000000000000815260206004820152600760248201527f4e4f5420534554000000000000000000000000000000000000000000000000006044820152606401610d9d565b60005b60a4548110156111b057600060a160030182815481106111325761113261485a565b600091825260208220015460a5805473ffffffffffffffffffffffffffffffffffffffff9092169350908490811061116c5761116c61485a565b600091825260209091200154905061119b73ffffffffffffffffffffffffffffffffffffffff83163383612dea565b505080806111a8906148cf565b915050611110565b50600060a181815560a282905560a3829055906111ce60a48261429b565b6111dc60048301600061429b565b505060a6546040517f89c1ba38b85b2ef703b7be0205683eb60bad532e0393ea83035e234a1473791090600090a250565b61123f6040518060a0016040528060008152602001600081526020016000815260200160608152602001606081525090565b6040805160a08101825260a18054825260a25460208084019190915260a3548385015260a48054855181840281018401909652808652939492936060860193928301828280156112c557602002820191906000526020600020905b815473ffffffffffffffffffffffffffffffffffffffff16815260019091019060200180831161129a575b505050505081526020016004820180548060200260200160405190810160405280929190818152602001828054801561131d57602002820191906000526020600020905b815481526020019060010190808311611309575b505050505081525050905090565b6000606080600060a685815481106113455761134561485a565b90600052602060002090600502016040518060a0016040529081600082015481526020016001820154815260200160028201548152602001600382018054806020026020016040519081016040528092919081815260200182805480156113e257602002820191906000526020600020905b815473ffffffffffffffffffffffffffffffffffffffff1681526001909101906020018083116113b7575b505050505081526020016004820180548060200260200160405190810160405280929190818152602001828054801561143a57602002820191906000526020600020905b815481526020019060010190808311611426575b50505050508152505090508060600151925080606001515167ffffffffffffffff81111561146a5761146a614920565b604051908082528060200260200182016040528015611493578160200160208202803683370190505b5073ffffffffffffffffffffffffffffffffffffffff8716600090815260a86020908152604080832089845290915281205460ff1695509092506114d88787846131a7565b9050806114e6575050611553565b604082015160005b845181101561154e5761151f846080015182815181106115105761151061485a565b60200260200101518484613284565b8582815181106115315761153161485a565b602090810291909101015280611546816148cf565b9150506114ee565b505050505b9250925092565b60405160200161159b9060208082526007908201527f4d414e4147455200000000000000000000000000000000000000000000000000604082015260600190565b604051602081830303815290604052805190602001206115ba81612feb565b60a254611623576040517f08c379a000000000000000000000000000000000000000000000000000000000815260206004820152600760248201527f4e4f5420534554000000000000000000000000000000000000000000000000006044820152606401610d9d565b6000821161168d576040517f08c379a000000000000000000000000000000000000000000000000000000000815260206004820152600860248201527f4e4f54205a45524f0000000000000000000000000000000000000000000000006044820152606401610d9d565b6116af73ffffffffffffffffffffffffffffffffffffffff8416333085613355565b60005b60a45481101561179e57600060a160030182815481106116d4576116d461485a565b60009182526020909120015473ffffffffffffffffffffffffffffffffffffffff908116915085168114611708575061178c565b8360a1600401838154811061171f5761171f61485a565b9060005260206000200160008282546117389190614908565b909155505060a6546040805173ffffffffffffffffffffffffffffffffffffffff88168152602081018790527f42aeda043a53e048de3d1643589f86a93851f5b509fc4eef44e804713ec849b99101610ccc565b80611796816148cf565b9150506116b2565b5060a4805460018082019092557fe434dc35da084cf8d7e8186688ea2dacb53db7003d427af3abf351bd9d0a4e8d0180547fffffffffffffffffffffffff00000000000000000000000000000000000000001673ffffffffffffffffffffffffffffffffffffffff861690811790915560a5805492830181556000527fb29a2b3b6f2ff1b765777a231725941da5072cc4fcc30ac4a2ce09706e8ddeff90910183905560a654604080519283526020830185905290917f42aeda043a53e048de3d1643589f86a93851f5b509fc4eef44e804713ec849b9910160405180910390a2505050565b60a6546060908067ffffffffffffffff8111156118a3576118a3614920565b6040519080825280602002602001820160405280156118fa57816020015b6118e7604051806060016040528060001515815260200160608152602001606081525090565b8152602001906001900390816118c15790505b50915060005b8181101561196d576000806000611917878561132b565b925092509250604051806060016040528084151581526020018381526020018281525086858151811061194c5761194c61485a565b60200260200101819052505050508080611965906148cf565b915050611900565b5050919050565b6040516020016119b59060208082526007908201527f4d414e4147455200000000000000000000000000000000000000000000000000604082015260600190565b604051602081830303815290604052805190602001206119d481612feb565b609e80549083905560408051828152602081018590527fe54abd71d5bfcd010a9afd9b82fa4f6d9873e50f949a087bd32aff503a8a8b8791015b60405180910390a1505050565b604051602001611a5c9060208082526007908201527f4d414e4147455200000000000000000000000000000000000000000000000000604082015260600190565b60405160208183030381529060405280519060200120611a7b81612feb565b60a054421015611ae7576040517f08c379a000000000000000000000000000000000000000000000000000000000815260206004820152600960248201527f4e4f5420535441525400000000000000000000000000000000000000000000006044820152606401610d9d565b611aef612cbe565b5060a25415611b5a576040517f08c379a000000000000000000000000000000000000000000000000000000000815260206004820152600b60248201527f414c5245414459205345540000000000000000000000000000000000000000006044820152606401610d9d565b6000609b5411611bc6576040517f08c379a000000000000000000000000000000000000000000000000000000000815260206004820152601460248201527f544f54414c205348415245204e4f54205a45524f0000000000000000000000006044820152606401610d9d565b611bce610ffc565b60a18190554260a2819055609b5460a381905560a65460408051948552602085019390935291830152907f8084edb4cf8c3ad32f1f26a4b075ae554a2a5283e0965f45ecc628f6b5dbc786906060015b60405180910390a250565b336000611c34612cbe565b9050611c408282612d2e565b611c4982612db8565b33600090815260a8602090815260408083208684528252918290208251808401909352805460ff16158015845260019091015491830191909152611ce9576040517f08c379a000000000000000000000000000000000000000000000000000000000815260206004820152600c60248201527f414c5245414459205041494400000000000000000000000000000000000000006044820152606401610d9d565b6000816020015111611d57576040517f08c379a000000000000000000000000000000000000000000000000000000000815260206004820152600860248201527f4e4f2053484152450000000000000000000000000000000000000000000000006044820152606401610d9d565b600060a68581548110611d6c57611d6c61485a565b90600052602060002090600502016040518060a001604052908160008201548152602001600182015481526020016002820154815260200160038201805480602002602001604051908101604052809291908181526020018280548015611e0957602002820191906000526020600020905b815473ffffffffffffffffffffffffffffffffffffffff168152600190910190602001808311611dde575b5050505050815260200160048201805480602002602001604051908101604052809291908181526020018280548015611e6157602002820191906000526020600020905b815481526020019060010190808311611e4d575b50505091909252505050604081015190915060005b826060015151811015611f6457600083606001518281518110611e9b57611e9b61485a565b60200260200101519050600084608001518381518110611ebd57611ebd61485a565b602002602001015190506000611ed882886020015187613284565b9050611efb73ffffffffffffffffffffffffffffffffffffffff84163383612dea565b6040805173ffffffffffffffffffffffffffffffffffffffff85168152602081018390528b9133917f1b21e5e267d298d0cfa6802a843faf3c104b8ec7d575be035bfbfbc0cb9b878f910160405180910390a35050508080611f5c906148cf565b915050611e76565b505033600090815260a8602090815260408083209783529690529490942080547fffffffffffffffffffffffffffffffffffffffffffffffffffffffffffffff0016600117905550505050565b336000611fbc612cbe565b9050611fc88282612d2e565b611fd182612db8565b60a05442101561203d576040517f08c379a000000000000000000000000000000000000000000000000000000000815260206004820152600960248201527f4e4f5420535441525400000000000000000000000000000000000000000000006044820152606401610d9d565b609f546120629073ffffffffffffffffffffffffffffffffffffffff16333086613355565b610f4433846133b9565b60608167ffffffffffffffff81111561208757612087614920565b6040519080825280602002602001820160405280156120ba57816020015b60608152602001906001900390816120a55790505b50905060005b8281101561215a5761212a308585848181106120de576120de61485a565b90506020028101906120f0919061494f565b8080601f01602080910402602001604051908101604052809392919081815260200183838082843760009201919091525061345b92505050565b82828151811061213c5761213c61485a565b60200260200101819052508080612152906148cf565b9150506120c0565b5092915050565b600033600061216e612cbe565b905061217a8282612d2e565b61218382612db8565b61218c33613480565b609f549093506121b39073ffffffffffffffffffffffffffffffffffffffff163385612dea565b505090565b6040516020016121f99060208082526007908201527f4d414e4147455200000000000000000000000000000000000000000000000000604082015260600190565b6040516020818303038152906040528051906020012061221881612feb565b60a254612281576040517f08c379a000000000000000000000000000000000000000000000000000000000815260206004820152600760248201527f4e4f5420534554000000000000000000000000000000000000000000000000006044820152606401610d9d565b60a4546122ea576040517f08c379a000000000000000000000000000000000000000000000000000000000815260206004820152600a60248201527f4e4f204445504f534954000000000000000000000000000000000000000000006044820152606401610d9d565b6122f2612cbe565b506040805160a08101825260a154815260a25460208083019190915260a3548284015260a4805484518184028101840190955280855260a69460608501939092919083018282801561237a57602002820191906000526020600020905b815473ffffffffffffffffffffffffffffffffffffffff16815260019091019060200180831161234f575b5050505050815260200160a16004018054806020026020016040519081016040528092919081815260200182805480156123d357602002820191906000526020600020905b8154815260200190600101908083116123bf575b50505091909252505081546001818101845560009384526020938490208351600590930201918255838301519082015560408201516002820155606082015180519293919261242892600385019201906142b9565b506080820151805161244491600484019160209091019061433f565b50505060a160020154609b600082825461245e91906148b8565b9091555050600060a181815560a282905560a38290559061248060a48261429b565b61248e60048301600061429b565b505060a65461249f906001906148b8565b6040517fa6e0490be65d6d4bce57d7b18ba16b514a5b039e85ed295305d1e9e63f557dec90611c1e9060a49060a5906149bb565b600054610100900460ff16158080156124f35750600054600160ff909116105b8061250d5750303b15801561250d575060005460ff166001145b612599576040517f08c379a000000000000000000000000000000000000000000000000000000000815260206004820152602e60248201527f496e697469616c697a61626c653a20636f6e747261637420697320616c72656160448201527f647920696e697469616c697a65640000000000000000000000000000000000006064820152608401610d9d565b600080547fffffffffffffffffffffffffffffffffffffffffffffffffffffffffffffff0016600117905580156125f757600080547fffffffffffffffffffffffffffffffffffffffffffffffffffffffffffff00ff166101001790555b609f80547fffffffffffffffffffffffff00000000000000000000000000000000000000001673ffffffffffffffffffffffffffffffffffffffff851617905562093a80609e5560a0829055609882905561265061350b565b61265b6000336135a4565b8015610f4457600080547fffffffffffffffffffffffffffffffffffffffffffffffffffffffffffff00ff169055604051600181527f7f26b83ff96e1f2b6a682f133852f6798a09c465da95921460cefb384740249890602001611a0e565b6040516020016126fb9060208082526007908201527f4d414e4147455200000000000000000000000000000000000000000000000000604082015260600190565b6040516020818303038152906040528051906020012061271a81612feb565b61272762093a8083614a86565b1561278e576040517f08c379a000000000000000000000000000000000000000000000000000000000815260206004820152601760248201527f737461727454696d6520252037206461797320213d20300000000000000000006044820152606401610d9d565b428210156127f8576040517f08c379a000000000000000000000000000000000000000000000000000000000815260206004820152600860248201527f544f4f204c4154450000000000000000000000000000000000000000000000006044820152606401610d9d565b609f5461281d9073ffffffffffffffffffffffffffffffffffffffff16333086613355565b6000828152609760205260408120805485929061283b908490614908565b9091555050604051838152829033907f11df96c8b9e61be6108e9001f87a321a1aa58b0fffbb02a3e5cb1a490de7f875906020015b60405180910390a3505050565b60008281526065602052604090206001015461289881612feb565b610f4483836130ec565b6040516020016128e39060208082526007908201527f4d414e4147455200000000000000000000000000000000000000000000000000604082015260600190565b6040516020818303038152906040528051906020012061290281612feb565b4282101561296c576040517f08c379a000000000000000000000000000000000000000000000000000000000815260206004820152600860248201527f544f4f204c4154450000000000000000000000000000000000000000000000006044820152606401610d9d565b6000828152609760205260408120805485929061298a9084906148b8565b9091555050609f546040517fa9059cbb0000000000000000000000000000000000000000000000000000000081523360048201526024810185905273ffffffffffffffffffffffffffffffffffffffff9091169063a9059cbb90604401602060405180830381600087803b158015612a0157600080fd5b505af1158015612a15573d6000803e3d6000fd5b505050506040513d601f19601f82011682018060405250810190612a399190614a9a565b50604051838152829033907fff16e0f040677e89c03a5b04dddd1656d379b6a72ce0faf921c47af7d285740490602001612870565b600080609a54612a7c6135ae565b612a869190614908565b73ffffffffffffffffffffffffffffffffffffffff8416600090815260ae6020908152604091829020825180840190935280548084526001909101549183018290529293509091612b1d90612ada856136aa565b612ae491906148b8565b73ffffffffffffffffffffffffffffffffffffffff87166000908152609c60205260409020546c01000000000000000000000000613284565b612b279190614908565b949350505050565b336000612b3a612cbe565b9050612b468282612d2e565b612b4f82612db8565b6000612b5a33613480565b9050610f4433826133b9565b604051602001612ba79060208082526007908201527f4d414e4147455200000000000000000000000000000000000000000000000000604082015260600190565b6040516020818303038152906040528051906020012081565b612bed60405180608001604052806000815260200160008152602001600081526020016000151581525090565b73ffffffffffffffffffffffffffffffffffffffff8316600090815260ac6020908152604080832085845290915290205460a9805482908110612c3257612c3261485a565b60009182526020918290206040805160808101825260049093029091018054835260018101549383019390935260028301549082015260039091015460ff161515606082015291505092915050565b60a98181548110612c9157600080fd5b60009182526020909120600490910201805460018201546002830154600390930154919350919060ff1684565b60985460009081612ccd6135ae565b9050612cd8816136ec565b9050612ce3816136aa565b60998190559250428210612cf657505090565b609d54612d0383426148b8565b612d0d9190614abc565b609b6000828254612d1e9190614908565b9091555050426098555090919050565b73ffffffffffffffffffffffffffffffffffffffff8216600090815260ae602052604090208054612d9c90612d6390846148b8565b73ffffffffffffffffffffffffffffffffffffffff85166000908152609c60205260409020546c01000000000000000000000000613284565b816001016000828254612daf9190614908565b90915550505550565b612dc181613739565b73ffffffffffffffffffffffffffffffffffffffff16600090815260a760205260409020429055565b60405173ffffffffffffffffffffffffffffffffffffffff8316602482015260448101829052610f449084907fa9059cbb00000000000000000000000000000000000000000000000000000000906064015b604080517fffffffffffffffffffffffffffffffffffffffffffffffffffffffffffffffe08184030181529190526020810180517bffffffffffffffffffffffffffffffffffffffffffffffffffffffff167fffffffff0000000000000000000000000000000000000000000000000000000090931692909217909152613b4d565b600160a98281548110612ed357612ed361485a565b6000918252602080832060049290920290910160030180547fffffffffffffffffffffffffffffffffffffffffffffffffffffffffffffff00169315159390931790925573ffffffffffffffffffffffffffffffffffffffff8416815260ab9091526040812080548290612f4690614af9565b9182905550600083815260ad6020526040902054909150808214612fab5773ffffffffffffffffffffffffffffffffffffffff8416600090815260ac60209081526040808320858452825280832054848452818420819055835260ad90915290208190555b50600091825260ad6020908152604080842084905573ffffffffffffffffffffffffffffffffffffffff909416835260ac81528383209183525290812055565b612ff58133613c59565b50565b600082815260656020908152604080832073ffffffffffffffffffffffffffffffffffffffff8516845290915290205460ff16610ff857600082815260656020908152604080832073ffffffffffffffffffffffffffffffffffffffff85168452909152902080547fffffffffffffffffffffffffffffffffffffffffffffffffffffffffffffff0016600117905561308e3390565b73ffffffffffffffffffffffffffffffffffffffff168173ffffffffffffffffffffffffffffffffffffffff16837f2f8788117e7eff1d82e926ec794901d17c78024a50270940304540a733656f0d60405160405180910390a45050565b600082815260656020908152604080832073ffffffffffffffffffffffffffffffffffffffff8516845290915290205460ff1615610ff857600082815260656020908152604080832073ffffffffffffffffffffffffffffffffffffffff8516808552925280832080547fffffffffffffffffffffffffffffffffffffffffffffffffffffffffffffff0016905551339285917ff6391f5c32d9c69d2a47ea670b442974b53935d1edc7fd64eb21e047a839171b9190a45050565b73ffffffffffffffffffffffffffffffffffffffff8316600090815260a86020908152604080832085845290915290206001015480156131e65761327d565b73ffffffffffffffffffffffffffffffffffffffff84166000908152609c602052604090205480613217575061327d565b73ffffffffffffffffffffffffffffffffffffffff8516600090815260a7602052604081205484516132499190613d2b565b90508084602001511161325d57505061327d565b8181856020015161326e91906148b8565b6132789190614abc565b925050505b9392505050565b600080807fffffffffffffffffffffffffffffffffffffffffffffffffffffffffffffffff85870985870292508281108382030391505080600014156132dc57600084116132d157600080fd5b50829004905061327d565b8084116132e857600080fd5b6000848688096000868103871696879004966002600389028118808a02820302808a02820302808a02820302808a02820302808a02820302808a02909103029181900381900460010186841190950394909402919094039290920491909117919091029150509392505050565b60405173ffffffffffffffffffffffffffffffffffffffff808516602483015283166044820152606481018290526133b39085907f23b872dd0000000000000000000000000000000000000000000000000000000090608401612e3c565b50505050565b73ffffffffffffffffffffffffffffffffffffffff82166000908152609c6020526040812080548392906133ee908490614908565b9250508190555080609d60008282546134079190614908565b909155505060405181815273ffffffffffffffffffffffffffffffffffffffff8316907febedb8b3c678666e7f36970bc8f57abf6d8fa2e828c0da91ea5b75bf68ed101a9060200160405180910390a25050565b606061327d8383604051806060016040528060278152602001614bf360279139613d42565b73ffffffffffffffffffffffffffffffffffffffff8116600090815260ae6020908152604080832060010180549084905533845260af90925282208054919283926134cc908490614908565b909155505060405181815233907f47cee97cb7acd717b3c0aa1435d004cd5b3c8c57d70dbceb4e4458bbd60e39d49060200160405180910390a2919050565b600054610100900460ff166135a2576040517f08c379a000000000000000000000000000000000000000000000000000000000815260206004820152602b60248201527f496e697469616c697a61626c653a20636f6e7472616374206973206e6f74206960448201527f6e697469616c697a696e670000000000000000000000000000000000000000006064820152608401610d9d565b565b610ff88282612ff8565b609854600090816135c262093a8042614b2e565b6135cf9062093a80614abc565b9050808210156136685760006135e862093a8084614b2e565b6135f59062093a80614abc565b9050805b828110156136655760006136108262093a80614908565b905062093a8061362086836148b8565b6000848152609760205260409020546136399190614abc565b6136439190614b2e565b61364d9087614908565b9550935061365e62093a8082614908565b90506135f9565b50505b62093a8061367683426148b8565b60008381526097602052604090205461368f9190614abc565b6136999190614b2e565b6136a39084614908565b9250505090565b60995481158015906136be57506000609d54115b156136e7576136dd826c01000000000000000000000000609d54613284565b61096f9082614908565b919050565b6000609d54600014156137185781609a600082825461370b9190614908565b9091555060009392505050565b609a541561373557609a5461372d9083614908565b6000609a5591505b5090565b73ffffffffffffffffffffffffffffffffffffffff81166000908152609c602052604090205480613768575050565b73ffffffffffffffffffffffffffffffffffffffff8216600090815260a7602052604090205460a6546137f757816137a082426148b8565b6137aa9190614abc565b73ffffffffffffffffffffffffffffffffffffffff8416600090815260a860209081526040808320838052909152812060010180549091906137ed908490614908565b9091555050505050565b60a654600090613809906001906148b8565b9050600060a682815481106138205761382061485a565b90600052602060002090600502016040518060a0016040529081600082015481526020016001820154815260200160028201548152602001600382018054806020026020016040519081016040528092919081815260200182805480156138bd57602002820191906000526020600020905b815473ffffffffffffffffffffffffffffffffffffffff168152600190910190602001808311613892575b505050505081526020016004820180548060200260200160405190810160405280929190818152602001828054801561391557602002820191906000526020600020905b815481526020019060010190808311613901575b50505050508152505090506000613930826020015185613d2b565b61393a90426148b8565b90506139468582614abc565b73ffffffffffffffffffffffffffffffffffffffff8716600090815260a86020526040812090613977866001614908565b815260200190815260200160002060010160008282546139979190614908565b90915550505b8382602001511115613b455781516139b59085613d2b565b82602001516139c491906148b8565b90506139d08582614abc565b73ffffffffffffffffffffffffffffffffffffffff8716600090815260a86020908152604080832087845290915281206001018054909190613a13908490614908565b909155505082613a2257613b45565b60a6613a2d84614af9565b93508381548110613a4057613a4061485a565b90600052602060002090600502016040518060a001604052908160008201548152602001600182015481526020016002820154815260200160038201805480602002602001604051908101604052809291908181526020018280548015613add57602002820191906000526020600020905b815473ffffffffffffffffffffffffffffffffffffffff168152600190910190602001808311613ab2575b5050505050815260200160048201805480602002602001604051908101604052809291908181526020018280548015613b3557602002820191906000526020600020905b815481526020019060010190808311613b21575b505050505081525050915061399d565b505050505050565b6000613baf826040518060400160405280602081526020017f5361666545524332303a206c6f772d6c6576656c2063616c6c206661696c65648152508573ffffffffffffffffffffffffffffffffffffffff16613e609092919063ffffffff16565b805190915015610f445780806020019051810190613bcd9190614a9a565b610f44576040517f08c379a000000000000000000000000000000000000000000000000000000000815260206004820152602a60248201527f5361666545524332303a204552433230206f7065726174696f6e20646964206e60448201527f6f742073756363656564000000000000000000000000000000000000000000006064820152608401610d9d565b600082815260656020908152604080832073ffffffffffffffffffffffffffffffffffffffff8516845290915290205460ff16610ff857613cb18173ffffffffffffffffffffffffffffffffffffffff166014613e6f565b613cbc836020613e6f565b604051602001613ccd929190614b42565b604080517fffffffffffffffffffffffffffffffffffffffffffffffffffffffffffffffe0818403018152908290527f08c379a0000000000000000000000000000000000000000000000000000000008252610d9d91600401614bc3565b600081831015613d3b578161327d565b5090919050565b606073ffffffffffffffffffffffffffffffffffffffff84163b613de8576040517f08c379a000000000000000000000000000000000000000000000000000000000815260206004820152602660248201527f416464726573733a2064656c65676174652063616c6c20746f206e6f6e2d636f60448201527f6e747261637400000000000000000000000000000000000000000000000000006064820152608401610d9d565b6000808573ffffffffffffffffffffffffffffffffffffffff1685604051613e109190614bd6565b600060405180830381855af49150503d8060008114613e4b576040519150601f19603f3d011682016040523d82523d6000602084013e613e50565b606091505b50915091506132788282866140b2565b6060612b278484600085614105565b60606000613e7e836002614abc565b613e89906002614908565b67ffffffffffffffff811115613ea157613ea1614920565b6040519080825280601f01601f191660200182016040528015613ecb576020820181803683370190505b5090507f300000000000000000000000000000000000000000000000000000000000000081600081518110613f0257613f0261485a565b60200101907effffffffffffffffffffffffffffffffffffffffffffffffffffffffffffff1916908160001a9053507f780000000000000000000000000000000000000000000000000000000000000081600181518110613f6557613f6561485a565b60200101907effffffffffffffffffffffffffffffffffffffffffffffffffffffffffffff1916908160001a9053506000613fa1846002614abc565b613fac906001614908565b90505b6001811115614049577f303132333435363738396162636465660000000000000000000000000000000085600f1660108110613fed57613fed61485a565b1a60f81b8282815181106140035761400361485a565b60200101907effffffffffffffffffffffffffffffffffffffffffffffffffffffffffffff1916908160001a90535060049490941c9361404281614af9565b9050613faf565b50831561327d576040517f08c379a000000000000000000000000000000000000000000000000000000000815260206004820181905260248201527f537472696e67733a20686578206c656e67746820696e73756666696369656e746044820152606401610d9d565b606083156140c157508161327d565b8251156140d15782518084602001fd5b816040517f08c379a0000000000000000000000000000000000000000000000000000000008152600401610d9d9190614bc3565b606082471015614197576040517f08c379a000000000000000000000000000000000000000000000000000000000815260206004820152602660248201527f416464726573733a20696e73756666696369656e742062616c616e636520666f60448201527f722063616c6c00000000000000000000000000000000000000000000000000006064820152608401610d9d565b73ffffffffffffffffffffffffffffffffffffffff85163b614215576040517f08c379a000000000000000000000000000000000000000000000000000000000815260206004820152601d60248201527f416464726573733a2063616c6c20746f206e6f6e2d636f6e74726163740000006044820152606401610d9d565b6000808673ffffffffffffffffffffffffffffffffffffffff16858760405161423e9190614bd6565b60006040518083038185875af1925050503d806000811461427b576040519150601f19603f3d011682016040523d82523d6000602084013e614280565b606091505b50915091506142908282866140b2565b979650505050505050565b5080546000825590600052602060002090810190612ff5919061437a565b828054828255906000526020600020908101928215614333579160200282015b8281111561433357825182547fffffffffffffffffffffffff00000000000000000000000000000000000000001673ffffffffffffffffffffffffffffffffffffffff9091161782556020909201916001909101906142d9565b5061373592915061437a565b828054828255906000526020600020908101928215614333579160200282015b8281111561433357825182559160200191906001019061435f565b5b80821115613735576000815560010161437b565b6000602082840312156143a157600080fd5b81357fffffffff000000000000000000000000000000000000000000000000000000008116811461327d57600080fd5b6000602082840312156143e357600080fd5b5035919050565b600081518084526020808501945080840160005b8381101561443057815173ffffffffffffffffffffffffffffffffffffffff16875295820195908201906001016143fe565b509495945050505050565b600081518084526020808501945080840160005b838110156144305781518752958201959082019060010161444f565b602081528151602082015260208201516040820152604082015160608201526000606083015160a060808401526144a560c08401826143ea565b905060808401517fffffffffffffffffffffffffffffffffffffffffffffffffffffffffffffffe08483030160a08501526144e0828261443b565b95945050505050565b803573ffffffffffffffffffffffffffffffffffffffff811681146136e757600080fd5b6000806040838503121561452057600080fd5b82359150614530602084016144e9565b90509250929050565b6000806040838503121561454c57600080fd5b614555836144e9565b946020939093013593505050565b60006060820185151583526020606081850152818651808452608086019150828801935060005b818110156145bc57845173ffffffffffffffffffffffffffffffffffffffff168352938301939183019160010161458a565b50508481036040860152855180825290820192508186019060005b818110156145f3578251855293830193918301916001016145d7565b509298975050505050505050565b60006020828403121561461357600080fd5b61327d826144e9565b60006020808301818452808551808352604092508286019150828160051b87010184880160005b838110156146bf577fffffffffffffffffffffffffffffffffffffffffffffffffffffffffffffffc08984030185528151606081511515855288820151818a870152614691828701826143ea565b915050878201519150848103888601526146ab818361443b565b968901969450505090860190600101614643565b509098975050505050505050565b600080602083850312156146e057600080fd5b823567ffffffffffffffff808211156146f857600080fd5b818501915085601f83011261470c57600080fd5b81358181111561471b57600080fd5b8660208260051b850101111561473057600080fd5b60209290920196919550909350505050565b60005b8381101561475d578181015183820152602001614745565b838111156133b35750506000910152565b60008151808452614786816020860160208601614742565b601f017fffffffffffffffffffffffffffffffffffffffffffffffffffffffffffffffe0169290920160200192915050565b6000602080830181845280855180835260408601915060408160051b870101925083870160005b8281101561482b577fffffffffffffffffffffffffffffffffffffffffffffffffffffffffffffffc088860301845261481985835161476e565b945092850192908501906001016147df565b5092979650505050505050565b6000806040838503121561484b57600080fd5b50508035926020909101359150565b7f4e487b7100000000000000000000000000000000000000000000000000000000600052603260045260246000fd5b7f4e487b7100000000000000000000000000000000000000000000000000000000600052601160045260246000fd5b6000828210156148ca576148ca614889565b500390565b60007fffffffffffffffffffffffffffffffffffffffffffffffffffffffffffffffff82141561490157614901614889565b5060010190565b6000821982111561491b5761491b614889565b500190565b7f4e487b7100000000000000000000000000000000000000000000000000000000600052604160045260246000fd5b60008083357fffffffffffffffffffffffffffffffffffffffffffffffffffffffffffffffe184360301811261498457600080fd5b83018035915067ffffffffffffffff82111561499f57600080fd5b6020019150368190038213156149b457600080fd5b9250929050565b60006040820160408352808554808352606085019150600092508683526020808420845b83811015614a1157815473ffffffffffffffffffffffffffffffffffffffff16855293820193600191820191016149df565b505085830381870152865480845287855281852093820192505b80851015614a4a57835483526001948501949093019291810191614a2b565b5090979650505050505050565b7f4e487b7100000000000000000000000000000000000000000000000000000000600052601260045260246000fd5b600082614a9557614a95614a57565b500690565b600060208284031215614aac57600080fd5b8151801515811461327d57600080fd5b6000817fffffffffffffffffffffffffffffffffffffffffffffffffffffffffffffffff0483118215151615614af457614af4614889565b500290565b600081614b0857614b08614889565b507fffffffffffffffffffffffffffffffffffffffffffffffffffffffffffffffff0190565b600082614b3d57614b3d614a57565b500490565b7f416363657373436f6e74726f6c3a206163636f756e7420000000000000000000815260008351614b7a816017850160208801614742565b7f206973206d697373696e6720726f6c65200000000000000000000000000000006017918401918201528351614bb7816028840160208801614742565b01602801949350505050565b60208152600061327d602083018461476e565b60008251614be8818460208701614742565b919091019291505056fe416464726573733a206c6f772d6c6576656c2064656c65676174652063616c6c206661696c6564a26469706673582212207921d4ee07d73ce5b6a0cb5112674ae9891c3a39c479d1dbc38fe08b7d8ce15b64736f6c63430008090033",
  "devdoc": {
    "kind": "dev",
    "methods": {
      "depositReward(uint256,uint256)": {
        "params": {
          "amount": "amount to deposit",
          "startTime": "The start time of distribution. should always satisfy UTC 00:00. (startTime % 604,800 == 0)"
        }
      },
      "getRoleAdmin(bytes32)": {
        "details": "Returns the admin role that controls `role`. See {grantRole} and {revokeRole}. To change a role's admin, use {_setRoleAdmin}."
      },
      "grantRole(bytes32,address)": {
        "details": "Grants `role` to `account`. If `account` had not been already granted `role`, emits a {RoleGranted} event. Requirements: - the caller must have ``role``'s admin role. May emit a {RoleGranted} event."
      },
      "hasRole(bytes32,address)": {
        "details": "Returns `true` if `account` has been granted `role`."
      },
      "multicall(bytes[])": {
        "details": "Receives and executes a batch of function calls on this contract."
      },
      "renounceRole(bytes32,address)": {
        "details": "Revokes `role` from the calling account. Roles are often managed via {grantRole} and {revokeRole}: this function's purpose is to provide a mechanism for accounts to lose their privileges if they are compromised (such as when a trusted device is misplaced). If the calling account had been revoked `role`, emits a {RoleRevoked} event. Requirements: - the caller must be `account`. May emit a {RoleRevoked} event."
      },
      "revokeRole(bytes32,address)": {
        "details": "Revokes `role` from `account`. If `account` had been granted `role`, emits a {RoleRevoked} event. Requirements: - the caller must have ``role``'s admin role. May emit a {RoleRevoked} event."
      },
      "supportsInterface(bytes4)": {
        "details": "See {IERC165-supportsInterface}."
      }
    },
    "version": 1
  },
  "userdoc": {
    "kind": "user",
    "methods": {
      "accumulativeUserReward(address)": {
        "notice": "   (STONE)"
      },
      "allocatedDividend(address,uint256)": {
        "notice": "     "
      },
      "allocatedDividendAll(address)": {
        "notice": "       "
      },
      "balanceOf(address)": {
        "notice": "calculate the balance staked by owner"
      },
      "cancelReward(uint256,uint256)": {
        "notice": "Retrieve undistributed STONE"
      },
      "claimDividend(uint256)": {
        "notice": " "
      },
      "claimReward()": {
        "notice": "claim allocated STONE reward"
      },
      "claimableReward(address)": {
        "notice": "calculate claimable STONE reward"
      },
      "depositDividend(address,uint256)": {
        "notice": " "
      },
      "depositReward(uint256,uint256)": {
        "notice": "deposit the STONE to be distributed linearly for 1 week"
      },
      "dividendInfo(uint256)": {
        "notice": " "
      },
      "epochStartDate()": {
        "notice": "     "
      },
      "executeDividend()": {
        "notice": " "
      },
      "reStake()": {
        "notice": "Re-stake claimable Stone"
      },
      "readyDividendInfo()": {
        "notice": "  "
      },
      "resetDividendRecordDate()": {
        "notice": "  "
      },
      "setCooldownPeriod(uint256)": {
        "notice": "Sets period until un-staking requested amount is able to be withdrawn."
      },
      "setDividendRecordDate()": {
        "notice": "  "
      },
      "stake(uint256)": {
        "notice": "Stakes Stone for msg.sender"
      },
      "totalDividendEpoch()": {
        "notice": "  "
      },
      "totalSupply()": {
        "notice": "total stone staked"
      },
      "unstake(uint256)": {
        "notice": "request unstaking to msg.sender"
      },
      "unstakingRequestByIndex(address,uint256)": {
        "notice": "Get the information of un-staking requests by owner"
      },
      "unstakingRequestCounts(address)": {
        "notice": "Get the number of un-staking requests by owner"
      },
      "withdraw(uint256)": {
        "notice": "withdraw unstaked Stone after cooldown"
      }
    },
    "notice": "StakedStone Contract created to distribute rewards to STONE holders [ ] ============== StakedStone , STONE  Pangeaswap     .     unstake  , cooldown  withdraw  . unstake    claim  . 1. Manager Side stake() => unstake() =====> withdraw() ---------- | cooldown |   - setCooldownPeriod(period) : unstake withdraw  . default : 7 days  1. Holder Side - stake(amount) : amount STONE  - unstake(amount) :  STONE amount   - unstakingRequestCounts(owner) :  owner  unstaking request  ( withdraw ) - unstakingRequestByIndex(owner, index); :  unstaking   - withdraw(requestId) : cooldown   unstaking request   [ ] ============== ``    Holder  ,         . 1. Manager Side                                     setDividendRecordDate() => depositDividend(token,amount) => executeDividend(); <= resetDividendRecordDate() :   ; -   account   . -  ,  . -       . -    resetDividendRecordDate   ,   . (msg.sender) 2. Holder Side - allocatedDividend(epoch) :  epoch       - claimDividend(epoch) :  epoch    [ ] ================ ``         ,    . 1. Manager Side - depositReward(amount, startTime) :   (startTime  1 ) - cancelReward(amount, startTime) :      2. Holder Side - claimableReward(owner) :        - claimReward() :  ",
    "version": 1
  },
  "storageLayout": {
    "storage": [
      {
        "astId": 419,
        "contract": "contracts/StakedStone.sol:StakedStone",
        "label": "_initialized",
        "offset": 0,
        "slot": "0",
        "type": "t_uint8"
      },
      {
        "astId": 422,
        "contract": "contracts/StakedStone.sol:StakedStone",
        "label": "_initializing",
        "offset": 1,
        "slot": "0",
        "type": "t_bool"
      },
      {
        "astId": 847,
        "contract": "contracts/StakedStone.sol:StakedStone",
        "label": "__gap",
        "offset": 0,
        "slot": "1",
        "type": "t_array(t_uint256)50_storage"
      },
      {
        "astId": 1117,
        "contract": "contracts/StakedStone.sol:StakedStone",
        "label": "__gap",
        "offset": 0,
        "slot": "51",
        "type": "t_array(t_uint256)50_storage"
      },
      {
        "astId": 39,
        "contract": "contracts/StakedStone.sol:StakedStone",
        "label": "_roles",
        "offset": 0,
        "slot": "101",
        "type": "t_mapping(t_bytes32,t_struct(RoleData)34_storage)"
      },
      {
        "astId": 338,
        "contract": "contracts/StakedStone.sol:StakedStone",
        "label": "__gap",
        "offset": 0,
        "slot": "102",
        "type": "t_array(t_uint256)49_storage"
      },
      {
        "astId": 4093,
        "contract": "contracts/StakedStone.sol:StakedStone",
        "label": "totalRewardPerWeek",
        "offset": 0,
        "slot": "151",
        "type": "t_mapping(t_uint256,t_uint256)"
      },
      {
        "astId": 4095,
        "contract": "contracts/StakedStone.sol:StakedStone",
        "label": "checkpoint",
        "offset": 0,
        "slot": "152",
        "type": "t_uint256"
      },
      {
        "astId": 4097,
        "contract": "contracts/StakedStone.sol:StakedStone",
        "label": "rewardGrowthGlobalLast",
        "offset": 0,
        "slot": "153",
        "type": "t_uint256"
      },
      {
        "astId": 4099,
        "contract": "contracts/StakedStone.sol:StakedStone",
        "label": "pendingReward",
        "offset": 0,
        "slot": "154",
        "type": "t_uint256"
      },
      {
        "astId": 4101,
        "contract": "contracts/StakedStone.sol:StakedStone",
        "label": "totalShare",
        "offset": 0,
        "slot": "155",
        "type": "t_uint256"
      },
      {
        "astId": 4105,
        "contract": "contracts/StakedStone.sol:StakedStone",
        "label": "_balanceOf",
        "offset": 0,
        "slot": "156",
        "type": "t_mapping(t_address,t_uint256)"
      },
      {
        "astId": 4107,
        "contract": "contracts/StakedStone.sol:StakedStone",
        "label": "_totalSupply",
        "offset": 0,
        "slot": "157",
        "type": "t_uint256"
      },
      {
        "astId": 4109,
        "contract": "contracts/StakedStone.sol:StakedStone",
        "label": "cooldownPeriod",
        "offset": 0,
        "slot": "158",
        "type": "t_uint256"
      },
      {
        "astId": 4111,
        "contract": "contracts/StakedStone.sol:StakedStone",
        "label": "stone",
        "offset": 0,
        "slot": "159",
        "type": "t_address"
      },
      {
        "astId": 4113,
        "contract": "contracts/StakedStone.sol:StakedStone",
        "label": "openDate",
        "offset": 0,
        "slot": "160",
        "type": "t_uint256"
      },
      {
        "astId": 4116,
        "contract": "contracts/StakedStone.sol:StakedStone",
        "label": "readyDividend",
        "offset": 0,
        "slot": "161",
        "type": "t_struct(Dividend)6066_storage"
      },
      {
        "astId": 4120,
        "contract": "contracts/StakedStone.sol:StakedStone",
        "label": "_dividendHistory",
        "offset": 0,
        "slot": "166",
        "type": "t_array(t_struct(Dividend)6066_storage)dyn_storage"
      },
      {
        "astId": 4124,
        "contract": "contracts/StakedStone.sol:StakedStone",
        "label": "_userLastRecordDate",
        "offset": 0,
        "slot": "167",
        "type": "t_mapping(t_address,t_uint256)"
      },
      {
        "astId": 4131,
        "contract": "contracts/StakedStone.sol:StakedStone",
        "label": "_userDividendSnapshot",
        "offset": 0,
        "slot": "168",
        "type": "t_mapping(t_address,t_mapping(t_uint256,t_struct(DividendSnapshot)6071_storage))"
      },
      {
        "astId": 4135,
        "contract": "contracts/StakedStone.sol:StakedStone",
        "label": "unstakingRequests",
        "offset": 0,
        "slot": "169",
        "type": "t_array(t_struct(UnstakingRequest)6048_storage)dyn_storage"
      },
      {
        "astId": 4139,
        "contract": "contracts/StakedStone.sol:StakedStone",
        "label": "requestOwnerOf",
        "offset": 0,
        "slot": "170",
        "type": "t_mapping(t_uint256,t_address)"
      },
      {
        "astId": 4144,
        "contract": "contracts/StakedStone.sol:StakedStone",
        "label": "unstakingRequestCounts",
        "offset": 0,
        "slot": "171",
        "type": "t_mapping(t_address,t_uint256)"
      },
      {
        "astId": 4150,
        "contract": "contracts/StakedStone.sol:StakedStone",
        "label": "_ownedRequests",
        "offset": 0,
        "slot": "172",
        "type": "t_mapping(t_address,t_mapping(t_uint256,t_uint256))"
      },
      {
        "astId": 4154,
        "contract": "contracts/StakedStone.sol:StakedStone",
        "label": "_ownedRequestsIndex",
        "offset": 0,
        "slot": "173",
        "type": "t_mapping(t_uint256,t_uint256)"
      },
      {
        "astId": 4159,
        "contract": "contracts/StakedStone.sol:StakedStone",
        "label": "_userRewardSnapshot",
        "offset": 0,
        "slot": "174",
        "type": "t_mapping(t_address,t_struct(RewardSnapshot)6053_storage)"
      },
      {
        "astId": 4164,
        "contract": "contracts/StakedStone.sol:StakedStone",
        "label": "accumulativeUserReward",
        "offset": 0,
        "slot": "175",
        "type": "t_mapping(t_address,t_uint256)"
      }
    ],
    "types": {
      "t_address": {
        "encoding": "inplace",
        "label": "address",
        "numberOfBytes": "20"
      },
      "t_array(t_address)dyn_storage": {
        "base": "t_address",
        "encoding": "dynamic_array",
        "label": "address[]",
        "numberOfBytes": "32"
      },
      "t_array(t_struct(Dividend)6066_storage)dyn_storage": {
        "base": "t_struct(Dividend)6066_storage",
        "encoding": "dynamic_array",
        "label": "struct IStakedStoneStruct.Dividend[]",
        "numberOfBytes": "32"
      },
      "t_array(t_struct(UnstakingRequest)6048_storage)dyn_storage": {
        "base": "t_struct(UnstakingRequest)6048_storage",
        "encoding": "dynamic_array",
        "label": "struct IStakedStoneStruct.UnstakingRequest[]",
        "numberOfBytes": "32"
      },
      "t_array(t_uint256)49_storage": {
        "base": "t_uint256",
        "encoding": "inplace",
        "label": "uint256[49]",
        "numberOfBytes": "1568"
      },
      "t_array(t_uint256)50_storage": {
        "base": "t_uint256",
        "encoding": "inplace",
        "label": "uint256[50]",
        "numberOfBytes": "1600"
      },
      "t_array(t_uint256)dyn_storage": {
        "base": "t_uint256",
        "encoding": "dynamic_array",
        "label": "uint256[]",
        "numberOfBytes": "32"
      },
      "t_bool": {
        "encoding": "inplace",
        "label": "bool",
        "numberOfBytes": "1"
      },
      "t_bytes32": {
        "encoding": "inplace",
        "label": "bytes32",
        "numberOfBytes": "32"
      },
      "t_mapping(t_address,t_bool)": {
        "encoding": "mapping",
        "key": "t_address",
        "label": "mapping(address => bool)",
        "numberOfBytes": "32",
        "value": "t_bool"
      },
      "t_mapping(t_address,t_mapping(t_uint256,t_struct(DividendSnapshot)6071_storage))": {
        "encoding": "mapping",
        "key": "t_address",
        "label": "mapping(address => mapping(uint256 => struct IStakedStoneStruct.DividendSnapshot))",
        "numberOfBytes": "32",
        "value": "t_mapping(t_uint256,t_struct(DividendSnapshot)6071_storage)"
      },
      "t_mapping(t_address,t_mapping(t_uint256,t_uint256))": {
        "encoding": "mapping",
        "key": "t_address",
        "label": "mapping(address => mapping(uint256 => uint256))",
        "numberOfBytes": "32",
        "value": "t_mapping(t_uint256,t_uint256)"
      },
      "t_mapping(t_address,t_struct(RewardSnapshot)6053_storage)": {
        "encoding": "mapping",
        "key": "t_address",
        "label": "mapping(address => struct IStakedStoneStruct.RewardSnapshot)",
        "numberOfBytes": "32",
        "value": "t_struct(RewardSnapshot)6053_storage"
      },
      "t_mapping(t_address,t_uint256)": {
        "encoding": "mapping",
        "key": "t_address",
        "label": "mapping(address => uint256)",
        "numberOfBytes": "32",
        "value": "t_uint256"
      },
      "t_mapping(t_bytes32,t_struct(RoleData)34_storage)": {
        "encoding": "mapping",
        "key": "t_bytes32",
        "label": "mapping(bytes32 => struct AccessControlUpgradeable.RoleData)",
        "numberOfBytes": "32",
        "value": "t_struct(RoleData)34_storage"
      },
      "t_mapping(t_uint256,t_address)": {
        "encoding": "mapping",
        "key": "t_uint256",
        "label": "mapping(uint256 => address)",
        "numberOfBytes": "32",
        "value": "t_address"
      },
      "t_mapping(t_uint256,t_struct(DividendSnapshot)6071_storage)": {
        "encoding": "mapping",
        "key": "t_uint256",
        "label": "mapping(uint256 => struct IStakedStoneStruct.DividendSnapshot)",
        "numberOfBytes": "32",
        "value": "t_struct(DividendSnapshot)6071_storage"
      },
      "t_mapping(t_uint256,t_uint256)": {
        "encoding": "mapping",
        "key": "t_uint256",
        "label": "mapping(uint256 => uint256)",
        "numberOfBytes": "32",
        "value": "t_uint256"
      },
      "t_struct(Dividend)6066_storage": {
        "encoding": "inplace",
        "label": "struct IStakedStoneStruct.Dividend",
        "members": [
          {
            "astId": 6055,
            "contract": "contracts/StakedStone.sol:StakedStone",
            "label": "startDate",
            "offset": 0,
            "slot": "0",
            "type": "t_uint256"
          },
          {
            "astId": 6057,
            "contract": "contracts/StakedStone.sol:StakedStone",
            "label": "recordDate",
            "offset": 0,
            "slot": "1",
            "type": "t_uint256"
          },
          {
            "astId": 6059,
            "contract": "contracts/StakedStone.sol:StakedStone",
            "label": "totalShare",
            "offset": 0,
            "slot": "2",
            "type": "t_uint256"
          },
          {
            "astId": 6062,
            "contract": "contracts/StakedStone.sol:StakedStone",
            "label": "tokens",
            "offset": 0,
            "slot": "3",
            "type": "t_array(t_address)dyn_storage"
          },
          {
            "astId": 6065,
            "contract": "contracts/StakedStone.sol:StakedStone",
            "label": "amounts",
            "offset": 0,
            "slot": "4",
            "type": "t_array(t_uint256)dyn_storage"
          }
        ],
        "numberOfBytes": "160"
      },
      "t_struct(DividendSnapshot)6071_storage": {
        "encoding": "inplace",
        "label": "struct IStakedStoneStruct.DividendSnapshot",
        "members": [
          {
            "astId": 6068,
            "contract": "contracts/StakedStone.sol:StakedStone",
            "label": "isPaid",
            "offset": 0,
            "slot": "0",
            "type": "t_bool"
          },
          {
            "astId": 6070,
            "contract": "contracts/StakedStone.sol:StakedStone",
            "label": "share",
            "offset": 0,
            "slot": "1",
            "type": "t_uint256"
          }
        ],
        "numberOfBytes": "64"
      },
      "t_struct(RewardSnapshot)6053_storage": {
        "encoding": "inplace",
        "label": "struct IStakedStoneStruct.RewardSnapshot",
        "members": [
          {
            "astId": 6050,
            "contract": "contracts/StakedStone.sol:StakedStone",
            "label": "_growthGlobalLast",
            "offset": 0,
            "slot": "0",
            "type": "t_uint256"
          },
          {
            "astId": 6052,
            "contract": "contracts/StakedStone.sol:StakedStone",
            "label": "_owed",
            "offset": 0,
            "slot": "1",
            "type": "t_uint256"
          }
        ],
        "numberOfBytes": "64"
      },
      "t_struct(RoleData)34_storage": {
        "encoding": "inplace",
        "label": "struct AccessControlUpgradeable.RoleData",
        "members": [
          {
            "astId": 31,
            "contract": "contracts/StakedStone.sol:StakedStone",
            "label": "members",
            "offset": 0,
            "slot": "0",
            "type": "t_mapping(t_address,t_bool)"
          },
          {
            "astId": 33,
            "contract": "contracts/StakedStone.sol:StakedStone",
            "label": "adminRole",
            "offset": 0,
            "slot": "1",
            "type": "t_bytes32"
          }
        ],
        "numberOfBytes": "64"
      },
      "t_struct(UnstakingRequest)6048_storage": {
        "encoding": "inplace",
        "label": "struct IStakedStoneStruct.UnstakingRequest",
        "members": [
          {
            "astId": 6041,
            "contract": "contracts/StakedStone.sol:StakedStone",
            "label": "id",
            "offset": 0,
            "slot": "0",
            "type": "t_uint256"
          },
          {
            "astId": 6043,
            "contract": "contracts/StakedStone.sol:StakedStone",
            "label": "amount",
            "offset": 0,
            "slot": "1",
            "type": "t_uint256"
          },
          {
            "astId": 6045,
            "contract": "contracts/StakedStone.sol:StakedStone",
            "label": "requestTs",
            "offset": 0,
            "slot": "2",
            "type": "t_uint256"
          },
          {
            "astId": 6047,
            "contract": "contracts/StakedStone.sol:StakedStone",
            "label": "isClaimed",
            "offset": 0,
            "slot": "3",
            "type": "t_bool"
          }
        ],
        "numberOfBytes": "128"
      },
      "t_uint256": {
        "encoding": "inplace",
        "label": "uint256",
        "numberOfBytes": "32"
      },
      "t_uint8": {
        "encoding": "inplace",
        "label": "uint8",
        "numberOfBytes": "1"
      }
    }
  }
}