{
  "address": "0xBfA59A3824441834EA3c2d5B286e4dA3446A66A1",
  "abi": [
    {
      "anonymous": false,
      "inputs": [
        {
          "indexed": true,
          "internalType": "address",
          "name": "operator",
          "type": "address"
        },
        {
          "indexed": true,
          "internalType": "uint256",
          "name": "weekStartTime",
          "type": "uint256"
        },
        {
          "indexed": false,
          "internalType": "uint256",
          "name": "amount",
          "type": "uint256"
        }
      ],
      "name": "CancelReward",
      "type": "event"
    },
    {
      "anonymous": false,
      "inputs": [
        {
          "indexed": true,
          "internalType": "address",
          "name": "owner",
          "type": "address"
        },
        {
          "indexed": false,
          "internalType": "uint256",
          "name": "amount",
          "type": "uint256"
        }
      ],
      "name": "Claim",
      "type": "event"
    },
    {
      "anonymous": false,
      "inputs": [
        {
          "indexed": true,
          "internalType": "address",
          "name": "owner",
          "type": "address"
        },
        {
          "indexed": true,
          "internalType": "uint256",
          "name": "epoch",
          "type": "uint256"
        },
        {
          "indexed": false,
          "internalType": "address",
          "name": "token",
          "type": "address"
        },
        {
          "indexed": false,
          "internalType": "uint256",
          "name": "amount",
          "type": "uint256"
        }
      ],
      "name": "ClaimDividend",
      "type": "event"
    },
    {
      "anonymous": false,
      "inputs": [
        {
          "indexed": true,
          "internalType": "uint256",
          "name": "dividendId",
          "type": "uint256"
        },
        {
          "indexed": false,
          "internalType": "address",
          "name": "token",
          "type": "address"
        },
        {
          "indexed": false,
          "internalType": "uint256",
          "name": "amount",
          "type": "uint256"
        }
      ],
      "name": "DepositDividend",
      "type": "event"
    },
    {
      "anonymous": false,
      "inputs": [
        {
          "indexed": true,
          "internalType": "address",
          "name": "operator",
          "type": "address"
        },
        {
          "indexed": true,
          "internalType": "uint256",
          "name": "weekStartTime",
          "type": "uint256"
        },
        {
          "indexed": false,
          "internalType": "uint256",
          "name": "amount",
          "type": "uint256"
        }
      ],
      "name": "DepositReward",
      "type": "event"
    },
    {
      "anonymous": false,
      "inputs": [
        {
          "indexed": true,
          "internalType": "uint256",
          "name": "dividendId",
          "type": "uint256"
        },
        {
          "indexed": false,
          "internalType": "address[]",
          "name": "token",
          "type": "address[]"
        },
        {
          "indexed": false,
          "internalType": "uint256[]",
          "name": "amount",
          "type": "uint256[]"
        }
      ],
      "name": "ExecuteDividend",
      "type": "event"
    },
    {
      "anonymous": false,
      "inputs": [
        {
          "indexed": false,
          "internalType": "uint8",
          "name": "version",
          "type": "uint8"
        }
      ],
      "name": "Initialized",
      "type": "event"
    },
    {
      "anonymous": false,
      "inputs": [
        {
          "indexed": true,
          "internalType": "uint256",
          "name": "dividendId",
          "type": "uint256"
        }
      ],
      "name": "ResetDividend",
      "type": "event"
    },
    {
      "anonymous": false,
      "inputs": [
        {
          "indexed": true,
          "internalType": "bytes32",
          "name": "role",
          "type": "bytes32"
        },
        {
          "indexed": true,
          "internalType": "bytes32",
          "name": "previousAdminRole",
          "type": "bytes32"
        },
        {
          "indexed": true,
          "internalType": "bytes32",
          "name": "newAdminRole",
          "type": "bytes32"
        }
      ],
      "name": "RoleAdminChanged",
      "type": "event"
    },
    {
      "anonymous": false,
      "inputs": [
        {
          "indexed": true,
          "internalType": "bytes32",
          "name": "role",
          "type": "bytes32"
        },
        {
          "indexed": true,
          "internalType": "address",
          "name": "account",
          "type": "address"
        },
        {
          "indexed": true,
          "internalType": "address",
          "name": "sender",
          "type": "address"
        }
      ],
      "name": "RoleGranted",
      "type": "event"
    },
    {
      "anonymous": false,
      "inputs": [
        {
          "indexed": true,
          "internalType": "bytes32",
          "name": "role",
          "type": "bytes32"
        },
        {
          "indexed": true,
          "internalType": "address",
          "name": "account",
          "type": "address"
        },
        {
          "indexed": true,
          "internalType": "address",
          "name": "sender",
          "type": "address"
        }
      ],
      "name": "RoleRevoked",
      "type": "event"
    },
    {
      "anonymous": false,
      "inputs": [
        {
          "indexed": true,
          "internalType": "uint256",
          "name": "dividendId",
          "type": "uint256"
        },
        {
          "indexed": false,
          "internalType": "uint256",
          "name": "startTime",
          "type": "uint256"
        },
        {
          "indexed": false,
          "internalType": "uint256",
          "name": "recordDate",
          "type": "uint256"
        },
        {
          "indexed": false,
          "internalType": "uint256",
          "name": "totalShare",
          "type": "uint256"
        }
      ],
      "name": "SetDividend",
      "type": "event"
    },
    {
      "anonymous": false,
      "inputs": [
        {
          "indexed": true,
          "internalType": "address",
          "name": "owner",
          "type": "address"
        },
        {
          "indexed": false,
          "internalType": "uint256",
          "name": "amount",
          "type": "uint256"
        }
      ],
      "name": "Stake",
      "type": "event"
    },
    {
      "anonymous": false,
      "inputs": [
        {
          "indexed": true,
          "internalType": "address",
          "name": "owner",
          "type": "address"
        },
        {
          "indexed": false,
          "internalType": "uint256",
          "name": "amount",
          "type": "uint256"
        },
        {
          "indexed": false,
          "internalType": "uint256",
          "name": "requestId",
          "type": "uint256"
        }
      ],
      "name": "Unstake",
      "type": "event"
    },
    {
      "anonymous": false,
      "inputs": [
        {
          "indexed": false,
          "internalType": "uint256",
          "name": "prev",
          "type": "uint256"
        },
        {
          "indexed": false,
          "internalType": "uint256",
          "name": "curr",
          "type": "uint256"
        }
      ],
      "name": "UpdateCoolDown",
      "type": "event"
    },
    {
      "anonymous": false,
      "inputs": [
        {
          "indexed": true,
          "internalType": "address",
          "name": "owner",
          "type": "address"
        },
        {
          "indexed": false,
          "internalType": "uint256",
          "name": "amount",
          "type": "uint256"
        }
      ],
      "name": "Withdraw",
      "type": "event"
    },
    {
      "inputs": [],
      "name": "DEFAULT_ADMIN_ROLE",
      "outputs": [
        {
          "internalType": "bytes32",
          "name": "",
          "type": "bytes32"
        }
      ],
      "stateMutability": "view",
      "type": "function"
    },
    {
      "inputs": [],
      "name": "MANAGER_ROLE",
      "outputs": [
        {
          "internalType": "bytes32",
          "name": "",
          "type": "bytes32"
        }
      ],
      "stateMutability": "view",
      "type": "function"
    },
    {
      "inputs": [
        {
          "internalType": "address",
          "name": "",
          "type": "address"
        }
      ],
      "name": "accumulativeUserReward",
      "outputs": [
        {
          "internalType": "uint256",
          "name": "",
          "type": "uint256"
        }
      ],
      "stateMutability": "view",
      "type": "function"
    },
    {
      "inputs": [
        {
          "internalType": "address",
          "name": "owner",
          "type": "address"
        },
        {
          "internalType": "uint256",
          "name": "epoch",
          "type": "uint256"
        }
      ],
      "name": "allocatedDividend",
      "outputs": [
        {
          "internalType": "bool",
          "name": "isPaid",
          "type": "bool"
        },
        {
          "internalType": "address[]",
          "name": "tokens",
          "type": "address[]"
        },
        {
          "internalType": "uint256[]",
          "name": "amounts",
          "type": "uint256[]"
        }
      ],
      "stateMutability": "view",
      "type": "function"
    },
    {
      "inputs": [
        {
          "internalType": "address",
          "name": "owner",
          "type": "address"
        }
      ],
      "name": "allocatedDividendAll",
      "outputs": [
        {
          "components": [
            {
              "internalType": "bool",
              "name": "isPaid",
              "type": "bool"
            },
            {
              "internalType": "address[]",
              "name": "tokens",
              "type": "address[]"
            },
            {
              "internalType": "uint256[]",
              "name": "amounts",
              "type": "uint256[]"
            }
          ],
          "internalType": "struct IStakedStoneStruct.AllocatedDividend[]",
          "name": "dividends",
          "type": "tuple[]"
        }
      ],
      "stateMutability": "view",
      "type": "function"
    },
    {
      "inputs": [
        {
          "internalType": "address",
          "name": "owner",
          "type": "address"
        }
      ],
      "name": "balanceOf",
      "outputs": [
        {
          "internalType": "uint256",
          "name": "amount",
          "type": "uint256"
        }
      ],
      "stateMutability": "view",
      "type": "function"
    },
    {
      "inputs": [
        {
          "internalType": "uint256",
          "name": "amount",
          "type": "uint256"
        },
        {
          "internalType": "uint256",
          "name": "startTime",
          "type": "uint256"
        }
      ],
      "name": "cancelReward",
      "outputs": [],
      "stateMutability": "nonpayable",
      "type": "function"
    },
    {
      "inputs": [
        {
          "internalType": "uint256",
          "name": "epoch",
          "type": "uint256"
        }
      ],
      "name": "claimDividend",
      "outputs": [],
      "stateMutability": "nonpayable",
      "type": "function"
    },
    {
      "inputs": [],
      "name": "claimReward",
      "outputs": [
        {
          "internalType": "uint256",
          "name": "amount",
          "type": "uint256"
        }
      ],
      "stateMutability": "nonpayable",
      "type": "function"
    },
    {
      "inputs": [
        {
          "internalType": "address",
          "name": "owner",
          "type": "address"
        }
      ],
      "name": "claimableReward",
      "outputs": [
        {
          "internalType": "uint256",
          "name": "",
          "type": "uint256"
        }
      ],
      "stateMutability": "view",
      "type": "function"
    },
    {
      "inputs": [],
      "name": "cooldownPeriod",
      "outputs": [
        {
          "internalType": "uint256",
          "name": "",
          "type": "uint256"
        }
      ],
      "stateMutability": "view",
      "type": "function"
    },
    {
      "inputs": [
        {
          "internalType": "address",
          "name": "token",
          "type": "address"
        },
        {
          "internalType": "uint256",
          "name": "amount",
          "type": "uint256"
        }
      ],
      "name": "depositDividend",
      "outputs": [],
      "stateMutability": "nonpayable",
      "type": "function"
    },
    {
      "inputs": [
        {
          "internalType": "uint256",
          "name": "amount",
          "type": "uint256"
        },
        {
          "internalType": "uint256",
          "name": "startTime",
          "type": "uint256"
        }
      ],
      "name": "depositReward",
      "outputs": [],
      "stateMutability": "nonpayable",
      "type": "function"
    },
    {
      "inputs": [
        {
          "internalType": "uint256",
          "name": "epoch",
          "type": "uint256"
        }
      ],
      "name": "dividendInfo",
      "outputs": [
        {
          "components": [
            {
              "internalType": "uint256",
              "name": "startDate",
              "type": "uint256"
            },
            {
              "internalType": "uint256",
              "name": "recordDate",
              "type": "uint256"
            },
            {
              "internalType": "uint256",
              "name": "totalShare",
              "type": "uint256"
            },
            {
              "internalType": "address[]",
              "name": "tokens",
              "type": "address[]"
            },
            {
              "internalType": "uint256[]",
              "name": "amounts",
              "type": "uint256[]"
            }
          ],
          "internalType": "struct IStakedStoneStruct.Dividend",
          "name": "",
          "type": "tuple"
        }
      ],
      "stateMutability": "view",
      "type": "function"
    },
    {
      "inputs": [],
      "name": "epochStartDate",
      "outputs": [
        {
          "internalType": "uint256",
          "name": "",
          "type": "uint256"
        }
      ],
      "stateMutability": "view",
      "type": "function"
    },
    {
      "inputs": [],
      "name": "executeDividend",
      "outputs": [],
      "stateMutability": "nonpayable",
      "type": "function"
    },
    {
      "inputs": [
        {
          "internalType": "bytes32",
          "name": "role",
          "type": "bytes32"
        }
      ],
      "name": "getRoleAdmin",
      "outputs": [
        {
          "internalType": "bytes32",
          "name": "",
          "type": "bytes32"
        }
      ],
      "stateMutability": "view",
      "type": "function"
    },
    {
      "inputs": [
        {
          "internalType": "bytes32",
          "name": "role",
          "type": "bytes32"
        },
        {
          "internalType": "address",
          "name": "account",
          "type": "address"
        }
      ],
      "name": "grantRole",
      "outputs": [],
      "stateMutability": "nonpayable",
      "type": "function"
    },
    {
      "inputs": [
        {
          "internalType": "bytes32",
          "name": "role",
          "type": "bytes32"
        },
        {
          "internalType": "address",
          "name": "account",
          "type": "address"
        }
      ],
      "name": "hasRole",
      "outputs": [
        {
          "internalType": "bool",
          "name": "",
          "type": "bool"
        }
      ],
      "stateMutability": "view",
      "type": "function"
    },
    {
      "inputs": [
        {
          "internalType": "address",
          "name": "_stone",
          "type": "address"
        },
        {
          "internalType": "uint256",
          "name": "_openDate",
          "type": "uint256"
        }
      ],
      "name": "initialize",
      "outputs": [],
      "stateMutability": "nonpayable",
      "type": "function"
    },
    {
      "inputs": [
        {
          "internalType": "bytes[]",
          "name": "data",
          "type": "bytes[]"
        }
      ],
      "name": "multicall",
      "outputs": [
        {
          "internalType": "bytes[]",
          "name": "results",
          "type": "bytes[]"
        }
      ],
      "stateMutability": "nonpayable",
      "type": "function"
    },
    {
      "inputs": [],
      "name": "reStake",
      "outputs": [],
      "stateMutability": "nonpayable",
      "type": "function"
    },
    {
      "inputs": [],
      "name": "readyDividendInfo",
      "outputs": [
        {
          "components": [
            {
              "internalType": "uint256",
              "name": "startDate",
              "type": "uint256"
            },
            {
              "internalType": "uint256",
              "name": "recordDate",
              "type": "uint256"
            },
            {
              "internalType": "uint256",
              "name": "totalShare",
              "type": "uint256"
            },
            {
              "internalType": "address[]",
              "name": "tokens",
              "type": "address[]"
            },
            {
              "internalType": "uint256[]",
              "name": "amounts",
              "type": "uint256[]"
            }
          ],
          "internalType": "struct IStakedStoneStruct.Dividend",
          "name": "",
          "type": "tuple"
        }
      ],
      "stateMutability": "view",
      "type": "function"
    },
    {
      "inputs": [
        {
          "internalType": "bytes32",
          "name": "role",
          "type": "bytes32"
        },
        {
          "internalType": "address",
          "name": "account",
          "type": "address"
        }
      ],
      "name": "renounceRole",
      "outputs": [],
      "stateMutability": "nonpayable",
      "type": "function"
    },
    {
      "inputs": [
        {
          "internalType": "uint256",
          "name": "",
          "type": "uint256"
        }
      ],
      "name": "requestOwnerOf",
      "outputs": [
        {
          "internalType": "address",
          "name": "",
          "type": "address"
        }
      ],
      "stateMutability": "view",
      "type": "function"
    },
    {
      "inputs": [],
      "name": "resetDividendRecordDate",
      "outputs": [],
      "stateMutability": "nonpayable",
      "type": "function"
    },
    {
      "inputs": [
        {
          "internalType": "bytes32",
          "name": "role",
          "type": "bytes32"
        },
        {
          "internalType": "address",
          "name": "account",
          "type": "address"
        }
      ],
      "name": "revokeRole",
      "outputs": [],
      "stateMutability": "nonpayable",
      "type": "function"
    },
    {
      "inputs": [
        {
          "internalType": "uint256",
          "name": "period",
          "type": "uint256"
        }
      ],
      "name": "setCooldownPeriod",
      "outputs": [],
      "stateMutability": "nonpayable",
      "type": "function"
    },
    {
      "inputs": [],
      "name": "setDividendRecordDate",
      "outputs": [],
      "stateMutability": "nonpayable",
      "type": "function"
    },
    {
      "inputs": [
        {
          "internalType": "uint256",
          "name": "amount",
          "type": "uint256"
        }
      ],
      "name": "stake",
      "outputs": [],
      "stateMutability": "nonpayable",
      "type": "function"
    },
    {
      "inputs": [],
      "name": "stone",
      "outputs": [
        {
          "internalType": "address",
          "name": "",
          "type": "address"
        }
      ],
      "stateMutability": "view",
      "type": "function"
    },
    {
      "inputs": [
        {
          "internalType": "bytes4",
          "name": "interfaceId",
          "type": "bytes4"
        }
      ],
      "name": "supportsInterface",
      "outputs": [
        {
          "internalType": "bool",
          "name": "",
          "type": "bool"
        }
      ],
      "stateMutability": "view",
      "type": "function"
    },
    {
      "inputs": [],
      "name": "totalDividendEpoch",
      "outputs": [
        {
          "internalType": "uint256",
          "name": "",
          "type": "uint256"
        }
      ],
      "stateMutability": "view",
      "type": "function"
    },
    {
      "inputs": [
        {
          "internalType": "uint256",
          "name": "",
          "type": "uint256"
        }
      ],
      "name": "totalRewardPerWeek",
      "outputs": [
        {
          "internalType": "uint256",
          "name": "",
          "type": "uint256"
        }
      ],
      "stateMutability": "view",
      "type": "function"
    },
    {
      "inputs": [],
      "name": "totalShare",
      "outputs": [
        {
          "internalType": "uint256",
          "name": "",
          "type": "uint256"
        }
      ],
      "stateMutability": "view",
      "type": "function"
    },
    {
      "inputs": [],
      "name": "totalSupply",
      "outputs": [
        {
          "internalType": "uint256",
          "name": "",
          "type": "uint256"
        }
      ],
      "stateMutability": "view",
      "type": "function"
    },
    {
      "inputs": [
        {
          "internalType": "uint256",
          "name": "amount",
          "type": "uint256"
        }
      ],
      "name": "unstake",
      "outputs": [],
      "stateMutability": "nonpayable",
      "type": "function"
    },
    {
      "inputs": [
        {
          "internalType": "address",
          "name": "owner",
          "type": "address"
        },
        {
          "internalType": "uint256",
          "name": "index",
          "type": "uint256"
        }
      ],
      "name": "unstakingRequestByIndex",
      "outputs": [
        {
          "components": [
            {
              "internalType": "uint256",
              "name": "id",
              "type": "uint256"
            },
            {
              "internalType": "uint256",
              "name": "amount",
              "type": "uint256"
            },
            {
              "internalType": "uint256",
              "name": "requestTs",
              "type": "uint256"
            },
            {
              "internalType": "bool",
              "name": "isClaimed",
              "type": "bool"
            }
          ],
          "internalType": "struct IStakedStoneStruct.UnstakingRequest",
          "name": "",
          "type": "tuple"
        }
      ],
      "stateMutability": "view",
      "type": "function"
    },
    {
      "inputs": [
        {
          "internalType": "address",
          "name": "",
          "type": "address"
        }
      ],
      "name": "unstakingRequestCounts",
      "outputs": [
        {
          "internalType": "uint256",
          "name": "",
          "type": "uint256"
        }
      ],
      "stateMutability": "view",
      "type": "function"
    },
    {
      "inputs": [
        {
          "internalType": "uint256",
          "name": "",
          "type": "uint256"
        }
      ],
      "name": "unstakingRequests",
      "outputs": [
        {
          "internalType": "uint256",
          "name": "id",
          "type": "uint256"
        },
        {
          "internalType": "uint256",
          "name": "amount",
          "type": "uint256"
        },
        {
          "internalType": "uint256",
          "name": "requestTs",
          "type": "uint256"
        },
        {
          "internalType": "bool",
          "name": "isClaimed",
          "type": "bool"
        }
      ],
      "stateMutability": "view",
      "type": "function"
    },
    {
      "inputs": [
        {
          "internalType": "address",
          "name": "owner",
          "type": "address"
        },
        {
          "internalType": "uint256",
          "name": "index",
          "type": "uint256"
        }
      ],
      "name": "userDividendSnapshot",
      "outputs": [
        {
          "components": [
            {
              "internalType": "bool",
              "name": "isPaid",
              "type": "bool"
            },
            {
              "internalType": "uint256",
              "name": "share",
              "type": "uint256"
            }
          ],
          "internalType": "struct IStakedStoneStruct.DividendSnapshot",
          "name": "",
          "type": "tuple"
        }
      ],
      "stateMutability": "view",
      "type": "function"
    },
    {
      "inputs": [
        {
          "internalType": "uint256",
          "name": "requestId",
          "type": "uint256"
        }
      ],
      "name": "withdraw",
      "outputs": [
        {
          "internalType": "uint256",
          "name": "amount",
          "type": "uint256"
        }
      ],
      "stateMutability": "nonpayable",
      "type": "function"
    },
    {
      "stateMutability": "payable",
      "type": "receive"
    }
  ],
  "transactionHash": "0x95eed827d3e8aebeb5b3732483fe13c233e703fb8c2cfeb13d9ac88a3b33afc4",
  "args": [],
  "numDeployments": 3,
  "solcInputHash": "3d0e2b89dd5fbf9dca6ba313c1373265",
  "bytecode": "0x608060405234801561001057600080fd5b50614f19806100206000396000f3fe6080604052600436106102d55760003560e01c806381364c3d11610179578063cc5c1e08116100d6578063e748c0571161008a578063ec87621c11610064578063ec87621c146108f2578063f37aecaa14610907578063f86ee1631461095c57600080fd5b8063e748c0571461089d578063e9503425146108bd578063eba8a266146108dd57600080fd5b8063d428d9d6116100bb578063d428d9d614610830578063d547741f14610850578063e649872d1461087057600080fd5b8063cc5c1e08146107cd578063cd6dc6871461081057600080fd5b8063a986123e1161012d578063b88a802f11610112578063b88a802f14610776578063c415fcae1461078b578063c43e25cf146107b857600080fd5b8063a986123e14610734578063ac9650d81461074957600080fd5b80639abd35721161015e5780639abd3572146106df578063a217fddf146106ff578063a694fc3a1461071457600080fd5b806381364c3d1461067757806391d148541461068c57600080fd5b806336568abe116102325780635bfc4908116101e6578063712262b7116101c0578063712262b7146105fd57806377d72e941461062a57806380ea3de11461065757600080fd5b80635bfc49081461056b5780635f78d6bd1461059a57806370a08231146105ba57600080fd5b8063465fdaa311610217578063465fdaa3146104ab57806351d57ade146104c05780635806fa60146104d557600080fd5b806336568abe146104765780633da55ed81461049657600080fd5b806318160ddd116102895780632e17de781161026e5780632e17de78146104145780632e1a7d4d146104365780632f2ff15d1461045657600080fd5b806318160ddd146103cf578063248a9ca3146103e457600080fd5b8063026c4207116102ba578063026c42071461036857806304646a491461038c57806309356b9d146103a257600080fd5b80630167eb85146102e157806301ffc9a71461033857600080fd5b366102dc57005b600080fd5b3480156102ed57600080fd5b50609f5461030e9073ffffffffffffffffffffffffffffffffffffffff1681565b60405173ffffffffffffffffffffffffffffffffffffffff90911681526020015b60405180910390f35b34801561034457600080fd5b50610358610353366004614659565b61099e565b604051901515815260200161032f565b34801561037457600080fd5b5061037e609b5481565b60405190815260200161032f565b34801561039857600080fd5b5061037e609e5481565b3480156103ae57600080fd5b506103c26103bd36600461469b565b610a37565b60405161032f9190614735565b3480156103db57600080fd5b50609d5461037e565b3480156103f057600080fd5b5061037e6103ff36600461469b565b60009081526065602052604090206001015490565b34801561042057600080fd5b5061043461042f36600461469b565b610b81565b005b34801561044257600080fd5b5061037e61045136600461469b565b610e0d565b34801561046257600080fd5b506104346104713660046147d7565b61104b565b34801561048257600080fd5b506104346104913660046147d7565b611075565b3480156104a257600080fd5b5061037e611128565b3480156104b757600080fd5b50610434611170565b3480156104cc57600080fd5b506103c2611339565b3480156104e157600080fd5b5061054e6104f0366004614803565b6040805180820182526000808252602091820181905273ffffffffffffffffffffffffffffffffffffffff94909416845260a88152818420928452918252918290208251808401909352805460ff1615158352600101549082015290565b60408051825115158152602092830151928101929092520161032f565b34801561057757600080fd5b5061058b610586366004614803565b611457565b60405161032f9392919061482d565b3480156105a657600080fd5b506104346105b5366004614803565b611686565b3480156105c657600080fd5b5061037e6105d53660046148cb565b73ffffffffffffffffffffffffffffffffffffffff166000908152609c602052604090205490565b34801561060957600080fd5b5061037e6106183660046148cb565b60ab6020526000908152604090205481565b34801561063657600080fd5b5061064a6106453660046148cb565b6119b0565b60405161032f91906148e6565b34801561066357600080fd5b5061043461067236600461469b565b611aa0565b34801561068357600080fd5b50610434611b47565b34801561069857600080fd5b506103586106a73660046147d7565b600091825260656020908152604080842073ffffffffffffffffffffffffffffffffffffffff93909316845291905290205460ff1690565b3480156106eb57600080fd5b506104346106fa36600461469b565b611d55565b34801561070b57600080fd5b5061037e600081565b34801561072057600080fd5b5061043461072f36600461469b565b612144565b34801561074057600080fd5b5060a65461037e565b34801561075557600080fd5b50610769610764366004614997565b61226a565b60405161032f9190614a82565b34801561078257600080fd5b5061037e61235f565b34801561079757600080fd5b5061037e6107a63660046148cb565b60af6020526000908152604090205481565b3480156107c457600080fd5b50610434612422565b3480156107d957600080fd5b5061030e6107e836600461469b565b60aa6020526000908152604090205473ffffffffffffffffffffffffffffffffffffffff1681565b34801561081c57600080fd5b5061043461082b366004614803565b61273d565b34801561083c57600080fd5b5061043461084b366004614b02565b612924565b34801561085c57600080fd5b5061043461086b3660046147d7565b612ae7565b34801561087c57600080fd5b5061037e61088b36600461469b565b60976020526000908152604090205481565b3480156108a957600080fd5b506104346108b8366004614b02565b612b0c565b3480156108c957600080fd5b5061037e6108d83660046148cb565b612cd8565b3480156108e957600080fd5b50610434612d99565b3480156108fe57600080fd5b5061037e612e3b565b34801561091357600080fd5b50610927610922366004614803565b612e95565b60405161032f919081518152602080830151908201526040808301519082015260609182015115159181019190915260800190565b34801561096857600080fd5b5061097c61097736600461469b565b612f56565b604080519485526020850193909352918301521515606082015260800161032f565b60007fffffffff0000000000000000000000000000000000000000000000000000000082167f7965db0b000000000000000000000000000000000000000000000000000000001480610a3157507f01ffc9a7000000000000000000000000000000000000000000000000000000007fffffffff000000000000000000000000000000000000000000000000000000008316145b92915050565b610a696040518060a0016040528060008152602001600081526020016000815260200160608152602001606081525090565b60a68281548110610a7c57610a7c614b24565b90600052602060002090600502016040518060a001604052908160008201548152602001600182015481526020016002820154815260200160038201805480602002602001604051908101604052809291908181526020018280548015610b1957602002820191906000526020600020905b815473ffffffffffffffffffffffffffffffffffffffff168152600190910190602001808311610aee575b5050505050815260200160048201805480602002602001604051908101604052809291908181526020018280548015610b7157602002820191906000526020600020905b815481526020019060010190808311610b5d575b5050505050815250509050919050565b60a254339015610bf2576040517f08c379a000000000000000000000000000000000000000000000000000000000815260206004820152600b60248201527f4f4e204449564944454e4400000000000000000000000000000000000000000060448201526064015b60405180910390fd5b6000610bfc612f93565b9050610c088282613003565b610c118261308d565b336000908152609c602052604081208054859290610c30908490614b82565b9250508190555082609d6000828254610c499190614b82565b909155505060a980546040805160808101825282815260208082018881524283850190815260006060850181815260018801895597815293517fdc471888e6136f84c49e531e9c9240dc4e3fba66da9d3a49e2af6202133683e0600488029081019190915591517fdc471888e6136f84c49e531e9c9240dc4e3fba66da9d3a49e2af6202133683e1830155517fdc471888e6136f84c49e531e9c9240dc4e3fba66da9d3a49e2af6202133683e282015594517fdc471888e6136f84c49e531e9c9240dc4e3fba66da9d3a49e2af6202133683e390950180547fffffffffffffffffffffffffffffffffffffffffffffffffffffffffffffff00169515159590951790945533815260ab909352822080549192919082610d6783614b99565b90915550600083815260aa6020908152604080832080547fffffffffffffffffffffffff0000000000000000000000000000000000000000163390811790915580845260ac8352818420858552835281842087905586845260ad835292819020849055805189815291820186905292935090917ff960dbf9e5d0682f7a298ed974e33a28b4464914b7a2bfac12ae419a9afeb28091015b60405180910390a25050505050565b60008060a98381548110610e2357610e23614b24565b60009182526020918290206040805160808101825260049093029091018054835260018101549383019390935260028301549082015260039091015460ff161580156060830152909150610ed3576040517f08c379a000000000000000000000000000000000000000000000000000000000815260206004820152600f60248201527f414c524541445920434c41494d454400000000000000000000000000000000006044820152606401610be9565b600083815260aa602052604090205473ffffffffffffffffffffffffffffffffffffffff163314610f60576040517f08c379a000000000000000000000000000000000000000000000000000000000815260206004820152600960248201527f4e4f54204f574e455200000000000000000000000000000000000000000000006044820152606401610be9565b42609e548260400151610f739190614bd2565b1115610fdb576040517f08c379a000000000000000000000000000000000000000000000000000000000815260206004820152600d60248201527f4e45454420434f4f4c444f574e000000000000000000000000000000000000006044820152606401610be9565b80602001519150610fec33846130bf565b609f546110109073ffffffffffffffffffffffffffffffffffffffff1633846131ec565b60405182815233907f884edad9ce6fa2440d8a54cc123490eb96d2768479d49ff9c7366125a94243649060200160405180910390a250919050565b600082815260656020526040902060010154611066816132c0565b61107083836132cd565b505050565b73ffffffffffffffffffffffffffffffffffffffff8116331461111a576040517f08c379a000000000000000000000000000000000000000000000000000000000815260206004820152602f60248201527f416363657373436f6e74726f6c3a2063616e206f6e6c792072656e6f756e636560448201527f20726f6c657320666f722073656c6600000000000000000000000000000000006064820152608401610be9565b61112482826133c1565b5050565b60a654600090611139575060a05490565b60a6805461114990600190614b82565b8154811061115957611159614b24565b906000526020600020906005020160010154905090565b6040516020016111b19060208082526007908201527f4d414e4147455200000000000000000000000000000000000000000000000000604082015260600190565b604051602081830303815290604052805190602001206111d0816132c0565b60a254611239576040517f08c379a000000000000000000000000000000000000000000000000000000000815260206004820152600760248201527f4e4f5420534554000000000000000000000000000000000000000000000000006044820152606401610be9565b60005b60a4548110156112dc57600060a1600301828154811061125e5761125e614b24565b600091825260208220015460a5805473ffffffffffffffffffffffffffffffffffffffff9092169350908490811061129857611298614b24565b60009182526020909120015490506112c773ffffffffffffffffffffffffffffffffffffffff831633836131ec565b505080806112d490614b99565b91505061123c565b50600060a181815560a282905560a3829055906112fa60a482614565565b611308600483016000614565565b505060a6546040517f89c1ba38b85b2ef703b7be0205683eb60bad532e0393ea83035e234a1473791090600090a250565b61136b6040518060a0016040528060008152602001600081526020016000815260200160608152602001606081525090565b6040805160a08101825260a18054825260a25460208084019190915260a3548385015260a48054855181840281018401909652808652939492936060860193928301828280156113f157602002820191906000526020600020905b815473ffffffffffffffffffffffffffffffffffffffff1681526001909101906020018083116113c6575b505050505081526020016004820180548060200260200160405190810160405280929190818152602001828054801561144957602002820191906000526020600020905b815481526020019060010190808311611435575b505050505081525050905090565b6000606080600060a6858154811061147157611471614b24565b90600052602060002090600502016040518060a00160405290816000820154815260200160018201548152602001600282015481526020016003820180548060200260200160405190810160405280929190818152602001828054801561150e57602002820191906000526020600020905b815473ffffffffffffffffffffffffffffffffffffffff1681526001909101906020018083116114e3575b505050505081526020016004820180548060200260200160405190810160405280929190818152602001828054801561156657602002820191906000526020600020905b815481526020019060010190808311611552575b50505050508152505090508060600151925080606001515167ffffffffffffffff81111561159657611596614bea565b6040519080825280602002602001820160405280156115bf578160200160208202803683370190505b5073ffffffffffffffffffffffffffffffffffffffff8716600090815260a86020908152604080832089845290915281205460ff16955090925061160487878461347c565b90508061161257505061167f565b604082015160005b845181101561167a5761164b8460800151828151811061163c5761163c614b24565b6020026020010151848461353d565b85828151811061165d5761165d614b24565b60209081029190910101528061167281614b99565b91505061161a565b505050505b9250925092565b6040516020016116c79060208082526007908201527f4d414e4147455200000000000000000000000000000000000000000000000000604082015260600190565b604051602081830303815290604052805190602001206116e6816132c0565b60a25461174f576040517f08c379a000000000000000000000000000000000000000000000000000000000815260206004820152600760248201527f4e4f5420534554000000000000000000000000000000000000000000000000006044820152606401610be9565b600082116117b9576040517f08c379a000000000000000000000000000000000000000000000000000000000815260206004820152600860248201527f4e4f54205a45524f0000000000000000000000000000000000000000000000006044820152606401610be9565b6117db73ffffffffffffffffffffffffffffffffffffffff841633308561360e565b60005b60a4548110156118ca57600060a1600301828154811061180057611800614b24565b60009182526020909120015473ffffffffffffffffffffffffffffffffffffffff90811691508516811461183457506118b8565b8360a1600401838154811061184b5761184b614b24565b9060005260206000200160008282546118649190614bd2565b909155505060a6546040805173ffffffffffffffffffffffffffffffffffffffff88168152602081018790527f42aeda043a53e048de3d1643589f86a93851f5b509fc4eef44e804713ec849b99101610dfe565b806118c281614b99565b9150506117de565b5060a4805460018082019092557fe434dc35da084cf8d7e8186688ea2dacb53db7003d427af3abf351bd9d0a4e8d0180547fffffffffffffffffffffffff00000000000000000000000000000000000000001673ffffffffffffffffffffffffffffffffffffffff861690811790915560a5805492830181556000527fb29a2b3b6f2ff1b765777a231725941da5072cc4fcc30ac4a2ce09706e8ddeff90910183905560a654604080519283526020830185905290917f42aeda043a53e048de3d1643589f86a93851f5b509fc4eef44e804713ec849b9910160405180910390a2505050565b60a6546060908067ffffffffffffffff8111156119cf576119cf614bea565b604051908082528060200260200182016040528015611a2657816020015b611a13604051806060016040528060001515815260200160608152602001606081525090565b8152602001906001900390816119ed5790505b50915060005b81811015611a99576000806000611a438785611457565b9250925092506040518060600160405280841515815260200183815260200182815250868581518110611a7857611a78614b24565b60200260200101819052505050508080611a9190614b99565b915050611a2c565b5050919050565b604051602001611ae19060208082526007908201527f4d414e4147455200000000000000000000000000000000000000000000000000604082015260600190565b60405160208183030381529060405280519060200120611b00816132c0565b609e80549083905560408051828152602081018590527fe54abd71d5bfcd010a9afd9b82fa4f6d9873e50f949a087bd32aff503a8a8b8791015b60405180910390a1505050565b604051602001611b889060208082526007908201527f4d414e4147455200000000000000000000000000000000000000000000000000604082015260600190565b60405160208183030381529060405280519060200120611ba7816132c0565b60a054421015611c13576040517f08c379a000000000000000000000000000000000000000000000000000000000815260206004820152600960248201527f4e4f5420535441525400000000000000000000000000000000000000000000006044820152606401610be9565b611c1b612f93565b5060a25415611c86576040517f08c379a000000000000000000000000000000000000000000000000000000000815260206004820152600b60248201527f414c5245414459205345540000000000000000000000000000000000000000006044820152606401610be9565b6000609b5411611cf2576040517f08c379a000000000000000000000000000000000000000000000000000000000815260206004820152601460248201527f544f54414c205348415245204e4f54205a45524f0000000000000000000000006044820152606401610be9565b611cfa611128565b60a18190554260a2819055609b5460a381905560a65460408051948552602085019390935291830152907f8084edb4cf8c3ad32f1f26a4b075ae554a2a5283e0965f45ecc628f6b5dbc786906060015b60405180910390a250565b60a254339015611dc1576040517f08c379a000000000000000000000000000000000000000000000000000000000815260206004820152600b60248201527f4f4e204449564944454e440000000000000000000000000000000000000000006044820152606401610be9565b6000611dcb612f93565b9050611dd78282613003565b611de08261308d565b33600090815260a8602090815260408083208684528252918290208251808401909352805460ff16158015845260019091015491830191909152611e80576040517f08c379a000000000000000000000000000000000000000000000000000000000815260206004820152600c60248201527f414c5245414459205041494400000000000000000000000000000000000000006044820152606401610be9565b6000816020015111611eee576040517f08c379a000000000000000000000000000000000000000000000000000000000815260206004820152600860248201527f4e4f2053484152450000000000000000000000000000000000000000000000006044820152606401610be9565b600060a68581548110611f0357611f03614b24565b90600052602060002090600502016040518060a001604052908160008201548152602001600182015481526020016002820154815260200160038201805480602002602001604051908101604052809291908181526020018280548015611fa057602002820191906000526020600020905b815473ffffffffffffffffffffffffffffffffffffffff168152600190910190602001808311611f75575b5050505050815260200160048201805480602002602001604051908101604052809291908181526020018280548015611ff857602002820191906000526020600020905b815481526020019060010190808311611fe4575b5050509190925250505060408082015133600090815260a860209081528382208a8352905291822080547fffffffffffffffffffffffffffffffffffffffffffffffffffffffffffffff001660011790559192505b82606001515181101561213b5760008360600151828151811061207257612072614b24565b6020026020010151905060008460800151838151811061209457612094614b24565b6020026020010151905060006120af8288602001518761353d565b90506120d273ffffffffffffffffffffffffffffffffffffffff841633836131ec565b6040805173ffffffffffffffffffffffffffffffffffffffff85168152602081018390528b9133917f1b21e5e267d298d0cfa6802a843faf3c104b8ec7d575be035bfbfbc0cb9b878f910160405180910390a3505050808061213390614b99565b91505061204d565b50505050505050565b60a2543390156121b0576040517f08c379a000000000000000000000000000000000000000000000000000000000815260206004820152600b60248201527f4f4e204449564944454e440000000000000000000000000000000000000000006044820152606401610be9565b60006121ba612f93565b90506121c68282613003565b6121cf8261308d565b60a05442101561223b576040517f08c379a000000000000000000000000000000000000000000000000000000000815260206004820152600960248201527f4e4f5420535441525400000000000000000000000000000000000000000000006044820152606401610be9565b609f546122609073ffffffffffffffffffffffffffffffffffffffff1633308661360e565b6110703384613672565b60608167ffffffffffffffff81111561228557612285614bea565b6040519080825280602002602001820160405280156122b857816020015b60608152602001906001900390816122a35790505b50905060005b8281101561235857612328308585848181106122dc576122dc614b24565b90506020028101906122ee9190614c19565b8080601f01602080910402602001604051908101604052809392919081815260200183838082843760009201919091525061371492505050565b82828151811061233a5761233a614b24565b6020026020010181905250808061235090614b99565b9150506122be565b5092915050565b60a2546000903390156123ce576040517f08c379a000000000000000000000000000000000000000000000000000000000815260206004820152600b60248201527f4f4e204449564944454e440000000000000000000000000000000000000000006044820152606401610be9565b60006123d8612f93565b90506123e48282613003565b6123ed8261308d565b6123f633613739565b609f5490935061241d9073ffffffffffffffffffffffffffffffffffffffff1633856131ec565b505090565b6040516020016124639060208082526007908201527f4d414e4147455200000000000000000000000000000000000000000000000000604082015260600190565b60405160208183030381529060405280519060200120612482816132c0565b60a2546124eb576040517f08c379a000000000000000000000000000000000000000000000000000000000815260206004820152600760248201527f4e4f5420534554000000000000000000000000000000000000000000000000006044820152606401610be9565b60a454612554576040517f08c379a000000000000000000000000000000000000000000000000000000000815260206004820152600a60248201527f4e4f204445504f534954000000000000000000000000000000000000000000006044820152606401610be9565b61255c612f93565b506040805160a08101825260a154815260a25460208083019190915260a3548284015260a4805484518184028101840190955280855260a6946060850193909291908301828280156125e457602002820191906000526020600020905b815473ffffffffffffffffffffffffffffffffffffffff1681526001909101906020018083116125b9575b5050505050815260200160a160040180548060200260200160405190810160405280929190818152602001828054801561263d57602002820191906000526020600020905b815481526020019060010190808311612629575b5050509190925250508154600181810184556000938452602093849020835160059093020191825583830151908201556040820151600282015560608201518051929391926126929260038501920190614583565b50608082015180516126ae916004840191602090910190614609565b50505060a160020154609b60008282546126c89190614b82565b9091555050600060a181815560a282905560a3829055906126ea60a482614565565b6126f8600483016000614565565b505060a65461270990600190614b82565b6040517fa6e0490be65d6d4bce57d7b18ba16b514a5b039e85ed295305d1e9e63f557dec90611d4a9060a49060a590614c85565b600054610100900460ff161580801561275d5750600054600160ff909116105b806127775750303b158015612777575060005460ff166001145b612803576040517f08c379a000000000000000000000000000000000000000000000000000000000815260206004820152602e60248201527f496e697469616c697a61626c653a20636f6e747261637420697320616c72656160448201527f647920696e697469616c697a65640000000000000000000000000000000000006064820152608401610be9565b600080547fffffffffffffffffffffffffffffffffffffffffffffffffffffffffffffff00166001179055801561286157600080547fffffffffffffffffffffffffffffffffffffffffffffffffffffffffffff00ff166101001790555b609f80547fffffffffffffffffffffffff00000000000000000000000000000000000000001673ffffffffffffffffffffffffffffffffffffffff851617905562093a80609e5560a082905560988290556128ba6137c4565b6128c560003361385d565b801561107057600080547fffffffffffffffffffffffffffffffffffffffffffffffffffffffffffff00ff169055604051600181527f7f26b83ff96e1f2b6a682f133852f6798a09c465da95921460cefb384740249890602001611b3a565b6040516020016129659060208082526007908201527f4d414e4147455200000000000000000000000000000000000000000000000000604082015260600190565b60405160208183030381529060405280519060200120612984816132c0565b61299162093a8083614d50565b156129f8576040517f08c379a000000000000000000000000000000000000000000000000000000000815260206004820152601760248201527f737461727454696d6520252037206461797320213d20300000000000000000006044820152606401610be9565b42821015612a62576040517f08c379a000000000000000000000000000000000000000000000000000000000815260206004820152600860248201527f544f4f204c4154450000000000000000000000000000000000000000000000006044820152606401610be9565b609f54612a879073ffffffffffffffffffffffffffffffffffffffff1633308661360e565b60008281526097602052604081208054859290612aa5908490614bd2565b9091555050604051838152829033907f11df96c8b9e61be6108e9001f87a321a1aa58b0fffbb02a3e5cb1a490de7f875906020015b60405180910390a3505050565b600082815260656020526040902060010154612b02816132c0565b61107083836133c1565b604051602001612b4d9060208082526007908201527f4d414e4147455200000000000000000000000000000000000000000000000000604082015260600190565b60405160208183030381529060405280519060200120612b6c816132c0565b42821015612bd6576040517f08c379a000000000000000000000000000000000000000000000000000000000815260206004820152600860248201527f544f4f204c4154450000000000000000000000000000000000000000000000006044820152606401610be9565b60008281526097602052604081208054859290612bf4908490614b82565b9091555050609f546040517fa9059cbb0000000000000000000000000000000000000000000000000000000081523360048201526024810185905273ffffffffffffffffffffffffffffffffffffffff9091169063a9059cbb90604401602060405180830381600087803b158015612c6b57600080fd5b505af1158015612c7f573d6000803e3d6000fd5b505050506040513d601f19601f82011682018060405250810190612ca39190614d64565b50604051838152829033907fff16e0f040677e89c03a5b04dddd1656d379b6a72ce0faf921c47af7d285740490602001612ada565b600080609a54612ce6613867565b612cf09190614bd2565b73ffffffffffffffffffffffffffffffffffffffff8416600090815260ae6020908152604091829020825180840190935280548084526001909101549183018290529293509091612d8790612d4485613974565b612d4e9190614b82565b73ffffffffffffffffffffffffffffffffffffffff87166000908152609c60205260409020546c0100000000000000000000000061353d565b612d919190614bd2565b949350505050565b60a254339015612e05576040517f08c379a000000000000000000000000000000000000000000000000000000000815260206004820152600b60248201527f4f4e204449564944454e440000000000000000000000000000000000000000006044820152606401610be9565b6000612e0f612f93565b9050612e1b8282613003565b612e248261308d565b6000612e2f33613739565b90506110703382613672565b604051602001612e7c9060208082526007908201527f4d414e4147455200000000000000000000000000000000000000000000000000604082015260600190565b6040516020818303038152906040528051906020012081565b612ec260405180608001604052806000815260200160008152602001600081526020016000151581525090565b73ffffffffffffffffffffffffffffffffffffffff8316600090815260ac6020908152604080832085845290915290205460a9805482908110612f0757612f07614b24565b60009182526020918290206040805160808101825260049093029091018054835260018101549383019390935260028301549082015260039091015460ff161515606082015291505092915050565b60a98181548110612f6657600080fd5b60009182526020909120600490910201805460018201546002830154600390930154919350919060ff1684565b60985460009081612fa2613867565b9050612fad816139b6565b9050612fb881613974565b60998190559250428210612fcb57505090565b609d54612fd88342614b82565b612fe29190614d86565b609b6000828254612ff39190614bd2565b9091555050426098555090919050565b73ffffffffffffffffffffffffffffffffffffffff8216600090815260ae602052604090208054613071906130389084614b82565b73ffffffffffffffffffffffffffffffffffffffff85166000908152609c60205260409020546c0100000000000000000000000061353d565b8160010160008282546130849190614bd2565b90915550505550565b61309681613a03565b73ffffffffffffffffffffffffffffffffffffffff16600090815260a760205260409020429055565b600160a982815481106130d4576130d4614b24565b6000918252602080832060049290920290910160030180547fffffffffffffffffffffffffffffffffffffffffffffffffffffffffffffff00169315159390931790925573ffffffffffffffffffffffffffffffffffffffff8416815260ab909152604081208054829061314790614dc3565b9182905550600083815260ad60205260409020549091508082146131ac5773ffffffffffffffffffffffffffffffffffffffff8416600090815260ac60209081526040808320858452825280832054848452818420819055835260ad90915290208190555b50600091825260ad6020908152604080842084905573ffffffffffffffffffffffffffffffffffffffff909416835260ac81528383209183525290812055565b60405173ffffffffffffffffffffffffffffffffffffffff83166024820152604481018290526110709084907fa9059cbb00000000000000000000000000000000000000000000000000000000906064015b604080517fffffffffffffffffffffffffffffffffffffffffffffffffffffffffffffffe08184030181529190526020810180517bffffffffffffffffffffffffffffffffffffffffffffffffffffffff167fffffffff0000000000000000000000000000000000000000000000000000000090931692909217909152613e17565b6132ca8133613f23565b50565b600082815260656020908152604080832073ffffffffffffffffffffffffffffffffffffffff8516845290915290205460ff1661112457600082815260656020908152604080832073ffffffffffffffffffffffffffffffffffffffff85168452909152902080547fffffffffffffffffffffffffffffffffffffffffffffffffffffffffffffff001660011790556133633390565b73ffffffffffffffffffffffffffffffffffffffff168173ffffffffffffffffffffffffffffffffffffffff16837f2f8788117e7eff1d82e926ec794901d17c78024a50270940304540a733656f0d60405160405180910390a45050565b600082815260656020908152604080832073ffffffffffffffffffffffffffffffffffffffff8516845290915290205460ff161561112457600082815260656020908152604080832073ffffffffffffffffffffffffffffffffffffffff8516808552925280832080547fffffffffffffffffffffffffffffffffffffffffffffffffffffffffffffff0016905551339285917ff6391f5c32d9c69d2a47ea670b442974b53935d1edc7fd64eb21e047a839171b9190a45050565b73ffffffffffffffffffffffffffffffffffffffff8316600081815260a860209081526040808320868452825280832060010154938352609c909152902054806134c65750613536565b73ffffffffffffffffffffffffffffffffffffffff8516600090815260a7602052604081205484516134f89190613ff5565b90508084602001511161350c575050613536565b8181856020015161351d9190614b82565b6135279190614d86565b6135319084614bd2565b925050505b9392505050565b600080807fffffffffffffffffffffffffffffffffffffffffffffffffffffffffffffffff8587098587029250828110838203039150508060001415613595576000841161358a57600080fd5b508290049050613536565b8084116135a157600080fd5b6000848688096000868103871696879004966002600389028118808a02820302808a02820302808a02820302808a02820302808a02820302808a02909103029181900381900460010186841190950394909402919094039290920491909117919091029150509392505050565b60405173ffffffffffffffffffffffffffffffffffffffff8085166024830152831660448201526064810182905261366c9085907f23b872dd000000000000000000000000000000000000000000000000000000009060840161323e565b50505050565b73ffffffffffffffffffffffffffffffffffffffff82166000908152609c6020526040812080548392906136a7908490614bd2565b9250508190555080609d60008282546136c09190614bd2565b909155505060405181815273ffffffffffffffffffffffffffffffffffffffff8316907febedb8b3c678666e7f36970bc8f57abf6d8fa2e828c0da91ea5b75bf68ed101a9060200160405180910390a25050565b60606135368383604051806060016040528060278152602001614ebd6027913961400c565b73ffffffffffffffffffffffffffffffffffffffff8116600090815260ae6020908152604080832060010180549084905533845260af9092528220805491928392613785908490614bd2565b909155505060405181815233907f47cee97cb7acd717b3c0aa1435d004cd5b3c8c57d70dbceb4e4458bbd60e39d49060200160405180910390a2919050565b600054610100900460ff1661385b576040517f08c379a000000000000000000000000000000000000000000000000000000000815260206004820152602b60248201527f496e697469616c697a61626c653a20636f6e7472616374206973206e6f74206960448201527f6e697469616c697a696e670000000000000000000000000000000000000000006064820152608401610be9565b565b61112482826132cd565b6098546000904281111561387d57600091505090565b600061388c62093a8042614df8565b6138999062093a80614d86565b9050808210156139325760006138b262093a8084614df8565b6138bf9062093a80614d86565b9050805b8281101561392f5760006138da8262093a80614bd2565b905062093a806138ea8683614b82565b6000848152609760205260409020546139039190614d86565b61390d9190614df8565b6139179087614bd2565b9550935061392862093a8082614bd2565b90506138c3565b50505b62093a806139408342614b82565b6000838152609760205260409020546139599190614d86565b6139639190614df8565b61396d9084614bd2565b9250505090565b609954811580159061398857506000609d54115b156139b1576139a7826c01000000000000000000000000609d5461353d565b610a319082614bd2565b919050565b6000609d54600014156139e25781609a60008282546139d59190614bd2565b9091555060009392505050565b609a54156139ff57609a546139f79083614bd2565b6000609a5591505b5090565b73ffffffffffffffffffffffffffffffffffffffff81166000908152609c602052604090205480613a32575050565b73ffffffffffffffffffffffffffffffffffffffff8216600090815260a7602052604090205460a654613ac15781613a6a8242614b82565b613a749190614d86565b73ffffffffffffffffffffffffffffffffffffffff8416600090815260a86020908152604080832083805290915281206001018054909190613ab7908490614bd2565b9091555050505050565b60a654600090613ad390600190614b82565b9050600060a68281548110613aea57613aea614b24565b90600052602060002090600502016040518060a001604052908160008201548152602001600182015481526020016002820154815260200160038201805480602002602001604051908101604052809291908181526020018280548015613b8757602002820191906000526020600020905b815473ffffffffffffffffffffffffffffffffffffffff168152600190910190602001808311613b5c575b5050505050815260200160048201805480602002602001604051908101604052809291908181526020018280548015613bdf57602002820191906000526020600020905b815481526020019060010190808311613bcb575b50505050508152505090506000613bfa826020015185613ff5565b613c049042614b82565b9050613c108582614d86565b73ffffffffffffffffffffffffffffffffffffffff8716600090815260a86020526040812090613c41866001614bd2565b81526020019081526020016000206001016000828254613c619190614bd2565b90915550505b8382602001511115613e0f578151613c7f9085613ff5565b8260200151613c8e9190614b82565b9050613c9a8582614d86565b73ffffffffffffffffffffffffffffffffffffffff8716600090815260a86020908152604080832087845290915281206001018054909190613cdd908490614bd2565b909155505082613cec57613e0f565b60a6613cf784614dc3565b93508381548110613d0a57613d0a614b24565b90600052602060002090600502016040518060a001604052908160008201548152602001600182015481526020016002820154815260200160038201805480602002602001604051908101604052809291908181526020018280548015613da757602002820191906000526020600020905b815473ffffffffffffffffffffffffffffffffffffffff168152600190910190602001808311613d7c575b5050505050815260200160048201805480602002602001604051908101604052809291908181526020018280548015613dff57602002820191906000526020600020905b815481526020019060010190808311613deb575b5050505050815250509150613c67565b505050505050565b6000613e79826040518060400160405280602081526020017f5361666545524332303a206c6f772d6c6576656c2063616c6c206661696c65648152508573ffffffffffffffffffffffffffffffffffffffff1661412a9092919063ffffffff16565b8051909150156110705780806020019051810190613e979190614d64565b611070576040517f08c379a000000000000000000000000000000000000000000000000000000000815260206004820152602a60248201527f5361666545524332303a204552433230206f7065726174696f6e20646964206e60448201527f6f742073756363656564000000000000000000000000000000000000000000006064820152608401610be9565b600082815260656020908152604080832073ffffffffffffffffffffffffffffffffffffffff8516845290915290205460ff1661112457613f7b8173ffffffffffffffffffffffffffffffffffffffff166014614139565b613f86836020614139565b604051602001613f97929190614e0c565b604080517fffffffffffffffffffffffffffffffffffffffffffffffffffffffffffffffe0818403018152908290527f08c379a0000000000000000000000000000000000000000000000000000000008252610be991600401614e8d565b6000818310156140055781613536565b5090919050565b606073ffffffffffffffffffffffffffffffffffffffff84163b6140b2576040517f08c379a000000000000000000000000000000000000000000000000000000000815260206004820152602660248201527f416464726573733a2064656c65676174652063616c6c20746f206e6f6e2d636f60448201527f6e747261637400000000000000000000000000000000000000000000000000006064820152608401610be9565b6000808573ffffffffffffffffffffffffffffffffffffffff16856040516140da9190614ea0565b600060405180830381855af49150503d8060008114614115576040519150601f19603f3d011682016040523d82523d6000602084013e61411a565b606091505b509150915061353182828661437c565b6060612d9184846000856143cf565b60606000614148836002614d86565b614153906002614bd2565b67ffffffffffffffff81111561416b5761416b614bea565b6040519080825280601f01601f191660200182016040528015614195576020820181803683370190505b5090507f3000000000000000000000000000000000000000000000000000000000000000816000815181106141cc576141cc614b24565b60200101907effffffffffffffffffffffffffffffffffffffffffffffffffffffffffffff1916908160001a9053507f78000000000000000000000000000000000000000000000000000000000000008160018151811061422f5761422f614b24565b60200101907effffffffffffffffffffffffffffffffffffffffffffffffffffffffffffff1916908160001a905350600061426b846002614d86565b614276906001614bd2565b90505b6001811115614313577f303132333435363738396162636465660000000000000000000000000000000085600f16601081106142b7576142b7614b24565b1a60f81b8282815181106142cd576142cd614b24565b60200101907effffffffffffffffffffffffffffffffffffffffffffffffffffffffffffff1916908160001a90535060049490941c9361430c81614dc3565b9050614279565b508315613536576040517f08c379a000000000000000000000000000000000000000000000000000000000815260206004820181905260248201527f537472696e67733a20686578206c656e67746820696e73756666696369656e746044820152606401610be9565b6060831561438b575081613536565b82511561439b5782518084602001fd5b816040517f08c379a0000000000000000000000000000000000000000000000000000000008152600401610be99190614e8d565b606082471015614461576040517f08c379a000000000000000000000000000000000000000000000000000000000815260206004820152602660248201527f416464726573733a20696e73756666696369656e742062616c616e636520666f60448201527f722063616c6c00000000000000000000000000000000000000000000000000006064820152608401610be9565b73ffffffffffffffffffffffffffffffffffffffff85163b6144df576040517f08c379a000000000000000000000000000000000000000000000000000000000815260206004820152601d60248201527f416464726573733a2063616c6c20746f206e6f6e2d636f6e74726163740000006044820152606401610be9565b6000808673ffffffffffffffffffffffffffffffffffffffff1685876040516145089190614ea0565b60006040518083038185875af1925050503d8060008114614545576040519150601f19603f3d011682016040523d82523d6000602084013e61454a565b606091505b509150915061455a82828661437c565b979650505050505050565b50805460008255906000526020600020908101906132ca9190614644565b8280548282559060005260206000209081019282156145fd579160200282015b828111156145fd57825182547fffffffffffffffffffffffff00000000000000000000000000000000000000001673ffffffffffffffffffffffffffffffffffffffff9091161782556020909201916001909101906145a3565b506139ff929150614644565b8280548282559060005260206000209081019282156145fd579160200282015b828111156145fd578251825591602001919060010190614629565b5b808211156139ff5760008155600101614645565b60006020828403121561466b57600080fd5b81357fffffffff000000000000000000000000000000000000000000000000000000008116811461353657600080fd5b6000602082840312156146ad57600080fd5b5035919050565b600081518084526020808501945080840160005b838110156146fa57815173ffffffffffffffffffffffffffffffffffffffff16875295820195908201906001016146c8565b509495945050505050565b600081518084526020808501945080840160005b838110156146fa57815187529582019590820190600101614719565b602081528151602082015260208201516040820152604082015160608201526000606083015160a0608084015261476f60c08401826146b4565b905060808401517fffffffffffffffffffffffffffffffffffffffffffffffffffffffffffffffe08483030160a08501526147aa8282614705565b95945050505050565b803573ffffffffffffffffffffffffffffffffffffffff811681146139b157600080fd5b600080604083850312156147ea57600080fd5b823591506147fa602084016147b3565b90509250929050565b6000806040838503121561481657600080fd5b61481f836147b3565b946020939093013593505050565b60006060820185151583526020606081850152818651808452608086019150828801935060005b8181101561488657845173ffffffffffffffffffffffffffffffffffffffff1683529383019391830191600101614854565b50508481036040860152855180825290820192508186019060005b818110156148bd578251855293830193918301916001016148a1565b509298975050505050505050565b6000602082840312156148dd57600080fd5b613536826147b3565b60006020808301818452808551808352604092508286019150828160051b87010184880160005b83811015614989577fffffffffffffffffffffffffffffffffffffffffffffffffffffffffffffffc08984030185528151606081511515855288820151818a87015261495b828701826146b4565b915050878201519150848103888601526149758183614705565b96890196945050509086019060010161490d565b509098975050505050505050565b600080602083850312156149aa57600080fd5b823567ffffffffffffffff808211156149c257600080fd5b818501915085601f8301126149d657600080fd5b8135818111156149e557600080fd5b8660208260051b85010111156149fa57600080fd5b60209290920196919550909350505050565b60005b83811015614a27578181015183820152602001614a0f565b8381111561366c5750506000910152565b60008151808452614a50816020860160208601614a0c565b601f017fffffffffffffffffffffffffffffffffffffffffffffffffffffffffffffffe0169290920160200192915050565b6000602080830181845280855180835260408601915060408160051b870101925083870160005b82811015614af5577fffffffffffffffffffffffffffffffffffffffffffffffffffffffffffffffc0888603018452614ae3858351614a38565b94509285019290850190600101614aa9565b5092979650505050505050565b60008060408385031215614b1557600080fd5b50508035926020909101359150565b7f4e487b7100000000000000000000000000000000000000000000000000000000600052603260045260246000fd5b7f4e487b7100000000000000000000000000000000000000000000000000000000600052601160045260246000fd5b600082821015614b9457614b94614b53565b500390565b60007fffffffffffffffffffffffffffffffffffffffffffffffffffffffffffffffff821415614bcb57614bcb614b53565b5060010190565b60008219821115614be557614be5614b53565b500190565b7f4e487b7100000000000000000000000000000000000000000000000000000000600052604160045260246000fd5b60008083357fffffffffffffffffffffffffffffffffffffffffffffffffffffffffffffffe1843603018112614c4e57600080fd5b83018035915067ffffffffffffffff821115614c6957600080fd5b602001915036819003821315614c7e57600080fd5b9250929050565b60006040820160408352808554808352606085019150600092508683526020808420845b83811015614cdb57815473ffffffffffffffffffffffffffffffffffffffff1685529382019360019182019101614ca9565b505085830381870152865480845287855281852093820192505b80851015614d1457835483526001948501949093019291810191614cf5565b5090979650505050505050565b7f4e487b7100000000000000000000000000000000000000000000000000000000600052601260045260246000fd5b600082614d5f57614d5f614d21565b500690565b600060208284031215614d7657600080fd5b8151801515811461353657600080fd5b6000817fffffffffffffffffffffffffffffffffffffffffffffffffffffffffffffffff0483118215151615614dbe57614dbe614b53565b500290565b600081614dd257614dd2614b53565b507fffffffffffffffffffffffffffffffffffffffffffffffffffffffffffffffff0190565b600082614e0757614e07614d21565b500490565b7f416363657373436f6e74726f6c3a206163636f756e7420000000000000000000815260008351614e44816017850160208801614a0c565b7f206973206d697373696e6720726f6c65200000000000000000000000000000006017918401918201528351614e81816028840160208801614a0c565b01602801949350505050565b6020815260006135366020830184614a38565b60008251614eb2818460208701614a0c565b919091019291505056fe416464726573733a206c6f772d6c6576656c2064656c65676174652063616c6c206661696c6564a2646970667358221220ec835d628bc01547823e80b0135c8a1027c5426f6c2c20376c30aa06950daf9464736f6c63430008090033",
  "devdoc": {
    "kind": "dev",
    "methods": {
      "depositReward(uint256,uint256)": {
        "params": {
          "amount": "amount to deposit",
          "startTime": "The start time of distribution. should always satisfy UTC 00:00. (startTime % 604,800 == 0)"
        }
      },
      "getRoleAdmin(bytes32)": {
        "details": "Returns the admin role that controls `role`. See {grantRole} and {revokeRole}. To change a role's admin, use {_setRoleAdmin}."
      },
      "grantRole(bytes32,address)": {
        "details": "Grants `role` to `account`. If `account` had not been already granted `role`, emits a {RoleGranted} event. Requirements: - the caller must have ``role``'s admin role. May emit a {RoleGranted} event."
      },
      "hasRole(bytes32,address)": {
        "details": "Returns `true` if `account` has been granted `role`."
      },
      "multicall(bytes[])": {
        "details": "Receives and executes a batch of function calls on this contract."
      },
      "renounceRole(bytes32,address)": {
        "details": "Revokes `role` from the calling account. Roles are often managed via {grantRole} and {revokeRole}: this function's purpose is to provide a mechanism for accounts to lose their privileges if they are compromised (such as when a trusted device is misplaced). If the calling account had been revoked `role`, emits a {RoleRevoked} event. Requirements: - the caller must be `account`. May emit a {RoleRevoked} event."
      },
      "revokeRole(bytes32,address)": {
        "details": "Revokes `role` from `account`. If `account` had been granted `role`, emits a {RoleRevoked} event. Requirements: - the caller must have ``role``'s admin role. May emit a {RoleRevoked} event."
      },
      "supportsInterface(bytes4)": {
        "details": "See {IERC165-supportsInterface}."
      }
    },
    "version": 1
  },
  "userdoc": {
    "kind": "user",
    "methods": {
      "accumulativeUserReward(address)": {
        "notice": "   (STONE)"
      },
      "allocatedDividend(address,uint256)": {
        "notice": "     "
      },
      "allocatedDividendAll(address)": {
        "notice": "       "
      },
      "balanceOf(address)": {
        "notice": "calculate the balance staked by owner"
      },
      "cancelReward(uint256,uint256)": {
        "notice": "Retrieve undistributed STONE"
      },
      "claimDividend(uint256)": {
        "notice": " "
      },
      "claimReward()": {
        "notice": "claim allocated STONE reward"
      },
      "claimableReward(address)": {
        "notice": "calculate claimable STONE reward"
      },
      "depositDividend(address,uint256)": {
        "notice": " "
      },
      "depositReward(uint256,uint256)": {
        "notice": "deposit the STONE to be distributed linearly for 1 week"
      },
      "dividendInfo(uint256)": {
        "notice": " "
      },
      "epochStartDate()": {
        "notice": "     "
      },
      "executeDividend()": {
        "notice": " "
      },
      "reStake()": {
        "notice": "Re-stake claimable Stone"
      },
      "readyDividendInfo()": {
        "notice": "  "
      },
      "resetDividendRecordDate()": {
        "notice": "  "
      },
      "setCooldownPeriod(uint256)": {
        "notice": "Sets period until un-staking requested amount is able to be withdrawn."
      },
      "setDividendRecordDate()": {
        "notice": "  "
      },
      "stake(uint256)": {
        "notice": "Stakes Stone for msg.sender"
      },
      "totalDividendEpoch()": {
        "notice": "  "
      },
      "totalSupply()": {
        "notice": "total stone staked"
      },
      "unstake(uint256)": {
        "notice": "request unstaking to msg.sender"
      },
      "unstakingRequestByIndex(address,uint256)": {
        "notice": "Get the information of un-staking requests by owner"
      },
      "unstakingRequestCounts(address)": {
        "notice": "Get the number of un-staking requests by owner"
      },
      "userDividendSnapshot(address,uint256)": {
        "notice": "user's dividend snapshot"
      },
      "withdraw(uint256)": {
        "notice": "withdraw unstaked Stone after cooldown"
      }
    },
    "notice": "StakedStone Contract created to distribute rewards to STONE holders [ ] ============== StakedStone , STONE  Pangeaswap     .     unstake  , cooldown  withdraw  . unstake    claim  . 1. Manager Side stake() => unstake() =====> withdraw() ---------- | cooldown |   - setCooldownPeriod(period) : unstake withdraw  . default : 7 days  1. Holder Side - stake(amount) : amount STONE  - unstake(amount) :  STONE amount   - unstakingRequestCounts(owner) :  owner  unstaking request  ( withdraw ) - unstakingRequestByIndex(owner, index); :  unstaking   - withdraw(requestId) : cooldown   unstaking request   [ ] ============== ``    Holder  ,         . 1. Manager Side                                     setDividendRecordDate() => depositDividend(token,amount) => executeDividend(); <= resetDividendRecordDate() :   ; -   account   . -  ,  . -       . -    resetDividendRecordDate   ,   . (msg.sender) 2. Holder Side - allocatedDividend(epoch) :  epoch       - claimDividend(epoch) :  epoch    [ ] ================ ``         ,    . 1. Manager Side - depositReward(amount, startTime) :   (startTime  1 ) - cancelReward(amount, startTime) :      2. Holder Side - claimableReward(owner) :        - claimReward() :  ",
    "version": 1
  },
  "storageLayout": {
    "storage": [
      {
        "astId": 419,
        "contract": "contracts/StakedStone.sol:StakedStone",
        "label": "_initialized",
        "offset": 0,
        "slot": "0",
        "type": "t_uint8"
      },
      {
        "astId": 422,
        "contract": "contracts/StakedStone.sol:StakedStone",
        "label": "_initializing",
        "offset": 1,
        "slot": "0",
        "type": "t_bool"
      },
      {
        "astId": 847,
        "contract": "contracts/StakedStone.sol:StakedStone",
        "label": "__gap",
        "offset": 0,
        "slot": "1",
        "type": "t_array(t_uint256)50_storage"
      },
      {
        "astId": 1117,
        "contract": "contracts/StakedStone.sol:StakedStone",
        "label": "__gap",
        "offset": 0,
        "slot": "51",
        "type": "t_array(t_uint256)50_storage"
      },
      {
        "astId": 39,
        "contract": "contracts/StakedStone.sol:StakedStone",
        "label": "_roles",
        "offset": 0,
        "slot": "101",
        "type": "t_mapping(t_bytes32,t_struct(RoleData)34_storage)"
      },
      {
        "astId": 338,
        "contract": "contracts/StakedStone.sol:StakedStone",
        "label": "__gap",
        "offset": 0,
        "slot": "102",
        "type": "t_array(t_uint256)49_storage"
      },
      {
        "astId": 4144,
        "contract": "contracts/StakedStone.sol:StakedStone",
        "label": "totalRewardPerWeek",
        "offset": 0,
        "slot": "151",
        "type": "t_mapping(t_uint256,t_uint256)"
      },
      {
        "astId": 4146,
        "contract": "contracts/StakedStone.sol:StakedStone",
        "label": "checkpoint",
        "offset": 0,
        "slot": "152",
        "type": "t_uint256"
      },
      {
        "astId": 4148,
        "contract": "contracts/StakedStone.sol:StakedStone",
        "label": "rewardGrowthGlobalLast",
        "offset": 0,
        "slot": "153",
        "type": "t_uint256"
      },
      {
        "astId": 4150,
        "contract": "contracts/StakedStone.sol:StakedStone",
        "label": "pendingReward",
        "offset": 0,
        "slot": "154",
        "type": "t_uint256"
      },
      {
        "astId": 4152,
        "contract": "contracts/StakedStone.sol:StakedStone",
        "label": "totalShare",
        "offset": 0,
        "slot": "155",
        "type": "t_uint256"
      },
      {
        "astId": 4156,
        "contract": "contracts/StakedStone.sol:StakedStone",
        "label": "_balanceOf",
        "offset": 0,
        "slot": "156",
        "type": "t_mapping(t_address,t_uint256)"
      },
      {
        "astId": 4158,
        "contract": "contracts/StakedStone.sol:StakedStone",
        "label": "_totalSupply",
        "offset": 0,
        "slot": "157",
        "type": "t_uint256"
      },
      {
        "astId": 4160,
        "contract": "contracts/StakedStone.sol:StakedStone",
        "label": "cooldownPeriod",
        "offset": 0,
        "slot": "158",
        "type": "t_uint256"
      },
      {
        "astId": 4162,
        "contract": "contracts/StakedStone.sol:StakedStone",
        "label": "stone",
        "offset": 0,
        "slot": "159",
        "type": "t_address"
      },
      {
        "astId": 4164,
        "contract": "contracts/StakedStone.sol:StakedStone",
        "label": "openDate",
        "offset": 0,
        "slot": "160",
        "type": "t_uint256"
      },
      {
        "astId": 4167,
        "contract": "contracts/StakedStone.sol:StakedStone",
        "label": "readyDividend",
        "offset": 0,
        "slot": "161",
        "type": "t_struct(Dividend)6152_storage"
      },
      {
        "astId": 4171,
        "contract": "contracts/StakedStone.sol:StakedStone",
        "label": "_dividendHistory",
        "offset": 0,
        "slot": "166",
        "type": "t_array(t_struct(Dividend)6152_storage)dyn_storage"
      },
      {
        "astId": 4175,
        "contract": "contracts/StakedStone.sol:StakedStone",
        "label": "_userLastRecordDate",
        "offset": 0,
        "slot": "167",
        "type": "t_mapping(t_address,t_uint256)"
      },
      {
        "astId": 4182,
        "contract": "contracts/StakedStone.sol:StakedStone",
        "label": "_userDividendSnapshot",
        "offset": 0,
        "slot": "168",
        "type": "t_mapping(t_address,t_mapping(t_uint256,t_struct(DividendSnapshot)6157_storage))"
      },
      {
        "astId": 4186,
        "contract": "contracts/StakedStone.sol:StakedStone",
        "label": "unstakingRequests",
        "offset": 0,
        "slot": "169",
        "type": "t_array(t_struct(UnstakingRequest)6134_storage)dyn_storage"
      },
      {
        "astId": 4190,
        "contract": "contracts/StakedStone.sol:StakedStone",
        "label": "requestOwnerOf",
        "offset": 0,
        "slot": "170",
        "type": "t_mapping(t_uint256,t_address)"
      },
      {
        "astId": 4195,
        "contract": "contracts/StakedStone.sol:StakedStone",
        "label": "unstakingRequestCounts",
        "offset": 0,
        "slot": "171",
        "type": "t_mapping(t_address,t_uint256)"
      },
      {
        "astId": 4201,
        "contract": "contracts/StakedStone.sol:StakedStone",
        "label": "_ownedRequests",
        "offset": 0,
        "slot": "172",
        "type": "t_mapping(t_address,t_mapping(t_uint256,t_uint256))"
      },
      {
        "astId": 4205,
        "contract": "contracts/StakedStone.sol:StakedStone",
        "label": "_ownedRequestsIndex",
        "offset": 0,
        "slot": "173",
        "type": "t_mapping(t_uint256,t_uint256)"
      },
      {
        "astId": 4210,
        "contract": "contracts/StakedStone.sol:StakedStone",
        "label": "_userRewardSnapshot",
        "offset": 0,
        "slot": "174",
        "type": "t_mapping(t_address,t_struct(RewardSnapshot)6139_storage)"
      },
      {
        "astId": 4215,
        "contract": "contracts/StakedStone.sol:StakedStone",
        "label": "accumulativeUserReward",
        "offset": 0,
        "slot": "175",
        "type": "t_mapping(t_address,t_uint256)"
      }
    ],
    "types": {
      "t_address": {
        "encoding": "inplace",
        "label": "address",
        "numberOfBytes": "20"
      },
      "t_array(t_address)dyn_storage": {
        "base": "t_address",
        "encoding": "dynamic_array",
        "label": "address[]",
        "numberOfBytes": "32"
      },
      "t_array(t_struct(Dividend)6152_storage)dyn_storage": {
        "base": "t_struct(Dividend)6152_storage",
        "encoding": "dynamic_array",
        "label": "struct IStakedStoneStruct.Dividend[]",
        "numberOfBytes": "32"
      },
      "t_array(t_struct(UnstakingRequest)6134_storage)dyn_storage": {
        "base": "t_struct(UnstakingRequest)6134_storage",
        "encoding": "dynamic_array",
        "label": "struct IStakedStoneStruct.UnstakingRequest[]",
        "numberOfBytes": "32"
      },
      "t_array(t_uint256)49_storage": {
        "base": "t_uint256",
        "encoding": "inplace",
        "label": "uint256[49]",
        "numberOfBytes": "1568"
      },
      "t_array(t_uint256)50_storage": {
        "base": "t_uint256",
        "encoding": "inplace",
        "label": "uint256[50]",
        "numberOfBytes": "1600"
      },
      "t_array(t_uint256)dyn_storage": {
        "base": "t_uint256",
        "encoding": "dynamic_array",
        "label": "uint256[]",
        "numberOfBytes": "32"
      },
      "t_bool": {
        "encoding": "inplace",
        "label": "bool",
        "numberOfBytes": "1"
      },
      "t_bytes32": {
        "encoding": "inplace",
        "label": "bytes32",
        "numberOfBytes": "32"
      },
      "t_mapping(t_address,t_bool)": {
        "encoding": "mapping",
        "key": "t_address",
        "label": "mapping(address => bool)",
        "numberOfBytes": "32",
        "value": "t_bool"
      },
      "t_mapping(t_address,t_mapping(t_uint256,t_struct(DividendSnapshot)6157_storage))": {
        "encoding": "mapping",
        "key": "t_address",
        "label": "mapping(address => mapping(uint256 => struct IStakedStoneStruct.DividendSnapshot))",
        "numberOfBytes": "32",
        "value": "t_mapping(t_uint256,t_struct(DividendSnapshot)6157_storage)"
      },
      "t_mapping(t_address,t_mapping(t_uint256,t_uint256))": {
        "encoding": "mapping",
        "key": "t_address",
        "label": "mapping(address => mapping(uint256 => uint256))",
        "numberOfBytes": "32",
        "value": "t_mapping(t_uint256,t_uint256)"
      },
      "t_mapping(t_address,t_struct(RewardSnapshot)6139_storage)": {
        "encoding": "mapping",
        "key": "t_address",
        "label": "mapping(address => struct IStakedStoneStruct.RewardSnapshot)",
        "numberOfBytes": "32",
        "value": "t_struct(RewardSnapshot)6139_storage"
      },
      "t_mapping(t_address,t_uint256)": {
        "encoding": "mapping",
        "key": "t_address",
        "label": "mapping(address => uint256)",
        "numberOfBytes": "32",
        "value": "t_uint256"
      },
      "t_mapping(t_bytes32,t_struct(RoleData)34_storage)": {
        "encoding": "mapping",
        "key": "t_bytes32",
        "label": "mapping(bytes32 => struct AccessControlUpgradeable.RoleData)",
        "numberOfBytes": "32",
        "value": "t_struct(RoleData)34_storage"
      },
      "t_mapping(t_uint256,t_address)": {
        "encoding": "mapping",
        "key": "t_uint256",
        "label": "mapping(uint256 => address)",
        "numberOfBytes": "32",
        "value": "t_address"
      },
      "t_mapping(t_uint256,t_struct(DividendSnapshot)6157_storage)": {
        "encoding": "mapping",
        "key": "t_uint256",
        "label": "mapping(uint256 => struct IStakedStoneStruct.DividendSnapshot)",
        "numberOfBytes": "32",
        "value": "t_struct(DividendSnapshot)6157_storage"
      },
      "t_mapping(t_uint256,t_uint256)": {
        "encoding": "mapping",
        "key": "t_uint256",
        "label": "mapping(uint256 => uint256)",
        "numberOfBytes": "32",
        "value": "t_uint256"
      },
      "t_struct(Dividend)6152_storage": {
        "encoding": "inplace",
        "label": "struct IStakedStoneStruct.Dividend",
        "members": [
          {
            "astId": 6141,
            "contract": "contracts/StakedStone.sol:StakedStone",
            "label": "startDate",
            "offset": 0,
            "slot": "0",
            "type": "t_uint256"
          },
          {
            "astId": 6143,
            "contract": "contracts/StakedStone.sol:StakedStone",
            "label": "recordDate",
            "offset": 0,
            "slot": "1",
            "type": "t_uint256"
          },
          {
            "astId": 6145,
            "contract": "contracts/StakedStone.sol:StakedStone",
            "label": "totalShare",
            "offset": 0,
            "slot": "2",
            "type": "t_uint256"
          },
          {
            "astId": 6148,
            "contract": "contracts/StakedStone.sol:StakedStone",
            "label": "tokens",
            "offset": 0,
            "slot": "3",
            "type": "t_array(t_address)dyn_storage"
          },
          {
            "astId": 6151,
            "contract": "contracts/StakedStone.sol:StakedStone",
            "label": "amounts",
            "offset": 0,
            "slot": "4",
            "type": "t_array(t_uint256)dyn_storage"
          }
        ],
        "numberOfBytes": "160"
      },
      "t_struct(DividendSnapshot)6157_storage": {
        "encoding": "inplace",
        "label": "struct IStakedStoneStruct.DividendSnapshot",
        "members": [
          {
            "astId": 6154,
            "contract": "contracts/StakedStone.sol:StakedStone",
            "label": "isPaid",
            "offset": 0,
            "slot": "0",
            "type": "t_bool"
          },
          {
            "astId": 6156,
            "contract": "contracts/StakedStone.sol:StakedStone",
            "label": "share",
            "offset": 0,
            "slot": "1",
            "type": "t_uint256"
          }
        ],
        "numberOfBytes": "64"
      },
      "t_struct(RewardSnapshot)6139_storage": {
        "encoding": "inplace",
        "label": "struct IStakedStoneStruct.RewardSnapshot",
        "members": [
          {
            "astId": 6136,
            "contract": "contracts/StakedStone.sol:StakedStone",
            "label": "_growthGlobalLast",
            "offset": 0,
            "slot": "0",
            "type": "t_uint256"
          },
          {
            "astId": 6138,
            "contract": "contracts/StakedStone.sol:StakedStone",
            "label": "_owed",
            "offset": 0,
            "slot": "1",
            "type": "t_uint256"
          }
        ],
        "numberOfBytes": "64"
      },
      "t_struct(RoleData)34_storage": {
        "encoding": "inplace",
        "label": "struct AccessControlUpgradeable.RoleData",
        "members": [
          {
            "astId": 31,
            "contract": "contracts/StakedStone.sol:StakedStone",
            "label": "members",
            "offset": 0,
            "slot": "0",
            "type": "t_mapping(t_address,t_bool)"
          },
          {
            "astId": 33,
            "contract": "contracts/StakedStone.sol:StakedStone",
            "label": "adminRole",
            "offset": 0,
            "slot": "1",
            "type": "t_bytes32"
          }
        ],
        "numberOfBytes": "64"
      },
      "t_struct(UnstakingRequest)6134_storage": {
        "encoding": "inplace",
        "label": "struct IStakedStoneStruct.UnstakingRequest",
        "members": [
          {
            "astId": 6127,
            "contract": "contracts/StakedStone.sol:StakedStone",
            "label": "id",
            "offset": 0,
            "slot": "0",
            "type": "t_uint256"
          },
          {
            "astId": 6129,
            "contract": "contracts/StakedStone.sol:StakedStone",
            "label": "amount",
            "offset": 0,
            "slot": "1",
            "type": "t_uint256"
          },
          {
            "astId": 6131,
            "contract": "contracts/StakedStone.sol:StakedStone",
            "label": "requestTs",
            "offset": 0,
            "slot": "2",
            "type": "t_uint256"
          },
          {
            "astId": 6133,
            "contract": "contracts/StakedStone.sol:StakedStone",
            "label": "isClaimed",
            "offset": 0,
            "slot": "3",
            "type": "t_bool"
          }
        ],
        "numberOfBytes": "128"
      },
      "t_uint256": {
        "encoding": "inplace",
        "label": "uint256",
        "numberOfBytes": "32"
      },
      "t_uint8": {
        "encoding": "inplace",
        "label": "uint8",
        "numberOfBytes": "1"
      }
    }
  }
}